S0130000426172654D696E696D756D2E73726563BB
S113000070C100009FC100009DC100009BC10000A1
S113001099C1000097C1000095C1000093C1000080
S113002091C100008FC100008DC100008BC1000090
S113003089C1000087C1000085C1000083C10000A0
S113004081C100000C94E0197DC100007BC1000057
S113005079C1000077C1000075C100000C946022D2
S113006071C100000C94FA200C9430216BC1000083
S113007069C1000067C1000065C1000063C10000E0
S11300800C94171A5FC100005DC100005BC1000041
S113009059C1000057C1000055C1000053C1000000
S11300A051C100004FC100000C944E1A4BC1000016
S11300B049C1000047C1000045C100000C94851AE5
S11300C041C100003FC100003DC100003BC1000030
S11300D039C1000037C1000035C1000033C1000040
S11300E031C10000F301150237024E027002A20270
S11300F0C402E60218034A038103A303D503FC03E5
S11301009F04B204EE040505290560058105A205D6
S1130110BD057806D805F505340645060800000037
S1130120BE922449123EABAAAA2ABECDCCCC4C3EE8
S113013000000080BEABAAAAAA3E00000000BF00D7
S11301400000803F0000000000084178D3BB4387D3
S1130150D1133D190E3CC3BD4282AD2B3E68EC82E7
S113016076BED98FE1A93E4C80EFFFBE01C4FF7F6C
S11301703F0000000000CC23D123D623E023EA2350
S11301806324F423FC2304240E241824222431247D
S11301903B24632445244F24592486248924782429
S11301A07C248224C0248D24912497249B249F247E
S11301B0A524A924AD24C024B324B724BB2400005F
S11301C00A0B02090C0D0E080703040100000000CD
S11301D0000000000000000000000000000000001B
S11301E000000000000000000000121110000000D8
S11301F000000000000000000000000000000000FB
S113020000000000010210202008081020401020E7
S113021040800201020108040201010204081020C6
S113022040808040201008040201800402018040C4
S1130230201008040201080402010102040810202D
S113024040800102040810204080050505050705CB
S113025008080808020202020A0A0808040404043E
S1130260010101010101010103030303030303036A
S1130270040707070C0C0C0C0C0C0C0C02020202F9
S113028006060606060606060B0B0B0B0B0B0B0BE2
S1130290000020002300260029002C002F0032003B
S11302A000010000030106010901000022002500ED
S11302B028002B002E00310034000201000005014B
S11302C008010B0100002100240027002A002D0052
S11302D03000330001010000040107010A01BD08D8
S11302E0622111241FBECFEFD1E2DEBFCDBF00E0FB
S11302F00CBF13E0A0E0B2E0E0E3FEE400E00BBFDB
S113030002C007900D92A03CB107D9F725E0A0ECFC
S1130310B3E001C01D92AC39B207E1F711E0C1E7C7
S1130320D1E000E006C021970109802FFE010E9460
S1130330E826CF36D10780E00807A9F70E9490216C
S11303400C9416275DCE0F931F93CF93DF9300D0A9
S11303501F92CDB7DEB79A8389837C836B838B81AD
S11303609C81892B19F480E090E015C089819A81E1
S1130370FC01808191810296FC01008111818B81B5
S11303809C810E940D27AC012B813C8189819A813B
S1130390B901F80119950F900F900F900F90DF910C
S11303A0CF911F910F910895CF93DF931F921F92C6
S11303B0CDB7DEB79A83898389819A81092E000C8F
S11303C0AA0BBB0B40E050E02DE030E0841B950B02
S11303D02817390708F442C2FC018827EE58FF4F5A
S11303E08F4F0C94E82640E060E08FEC93E00E948D
S11303F0F11664E272E08FEC93E0A5DF41E060E087
S11304008FEC93E00E94F11665E372E08FEC93E0C9
S11304109ADF41E068E08FEC93E00E94F1166CE310
S113042072E08FEC93E08FDF30C240E060E08FEC4D
S113043093E00E94F11665E472E08FEC93E083DFB1
S113044040E069E08FEC93E00E94F1166BE472E007
S11304508FEC93E078DF41E060E08FEC93E00E9462
S1130460F11663E572E08FEC93E06DDF0EC240E0BD
S113047060E08FEC93E00E94F1166CE572E08FEC83
S113048093E061DF41E060E08FEC93E00E94F116BD
S11304906DE672E08FEC93E056DFF7C140E060E078
S11304A08FEC93E00E94F11665E772E08FEC93E025
S11304B04ADF41E060E08FEC93E00E94F11666E8C9
S11304C072E08FEC93E03FDF41E069E08FEC93E072
S11304D00E94F1166FE872E08FEC93E034DFD5C12F
S11304E040E060E08FEC93E00E94F11667E972E06F
S11304F08FEC93E028DF8091C5039091C6034AE016
S113050050E0BC018FEC93E00E945A226EE972E045
S11305108FEC93E018DF41E060E08FEC93E00E9401
S1130520F11660EA72E08FEC93E00DDF41E06AE0DF
S11305308FEC93E00E94F11667EA72E08FEC93E08F
S113054002DFA3C140E060E08FEC93E00E94F1166B
S11305506EEA72E08FEC93E0F6DE41E060E08FEC4F
S113056093E00E94F1166FEB72E08FEC93E0EBDE08
S113057041E069E08FEC93E00E94F11665EC72E0D3
S11305808FEC93E0E0DE81C140E060E08FEC93E02B
S11305900E94F1166DEC72E08FEC93E0D4DE41E042
S11305A060E08FEC93E00E94F1166EED72E08FEC48
S11305B093E0C9DE41E06AE08FEC93E00E94F1161B
S11305C067EE72E08FEC93E0BEDE5FC140E060E076
S11305D08FEC93E00E94F1166EEE72E08FEC93E0E4
S11305E0B2DE80910002909101024AE050E0BC0129
S11305F08FEC93E00E945A226FED8FEC93E00E94FF
S1130600631741E060E08FEC93E00E94F11660EA2A
S113061072E08FEC93E097DE41E06AE08FEC93E0C8
S11306200E94F11667EA72E08FEC93E08CDE2DC134
S113063040E060E08FEC93E00E94F1166EEE72E011
S11306408FEC93E080DE80910202909103024AE0F5
S113065050E0BC018FEC93E00E945A226FED8FECC6
S113066093E00E94631741E060E08FEC93E00E9406
S1130670F11660EA72E08FEC93E065DE41E06AE037
S11306808FEC93E00E94F11667EA72E08FEC93E03E
S11306905ADEFBC040E060E08FEC93E00E94F1166C
S11306A068EF72E08FEC93E04EDE8091C803909186
S11306B0C9034AE050E0BC018FEC93E00E945A2247
S11306C06FED8FEC93E00E94631741E060E08FECE4
S11306D093E00E94F11661E073E08FEC93E033DE67
S11306E08091CA039091CB034AE050E0BC018FECA7
S11306F093E00E945A226FED8FEC93E00E946317FF
S1130700C4C040E060E08FEC93E00E94F1166CE519
S113071072E08FEC93E017DE41E060E08FEC93E051
S11307200E94F1166DE672E08FEC93E00CDE41E07E
S113073069E08FEC93E00E94F1166AE073E08FECBD
S113074093E001DEA2C040E060E08FEC93E00E9401
S1130750F1168091CE03882331F062E173E08FECCF
S113076093E0F1DD0BC09091CE0381E089278823CB
S113077029F061E273E08FEC93E0E5DD41E060E0B5
S11307808FEC93E00E94F1166FE273E08FEC93E03C
S1130790DADD41E069E08FEC93E00E94F11668E352
S11307A073E08FEC93E0CFDD70C040E060E08FEC4D
S11307B093E00E94F11660E473E08FEC93E0C3DDF4
S11307C08091CC039091CD034AE050E0BC018FECC2
S11307D093E00E945A226EE972E08FEC93E0B3DD5D
S11307E041E060E08FEC93E00E94F1166AE473E06C
S11307F08FEC93E0A8DD49C040E060E08FEC93E02B
S11308000E94F11668E573E08FEC93E09CDD809123
S11308100602909107024AE050E0BC018FEC93E09D
S11308200E945A226EE972E08FEC93E08CDD41E085
S113083060E08FEC93E00E94F11660EA72E08FECC6
S113084093E081DD41E06AE08FEC93E00E94F116D1
S113085067EA72E08FEC93E076DD17C040E060E079
S11308608FEC93E00E94F11665E673E08FEC93E061
S11308706ADD41E060E08FEC93E00E94F11664E7EA
S113088073E08FEC93E05FDD000000000F900F90A9
S1130890DF91CF910895CF93DF931F92CDB7DEB749
S11308A089838981882309F43CC28981833269F46C
S11308B08FEC93E00E94DB161092C3031092C203E4
S11308C01092C1031092C0032CC289818A3269F448
S11308D08FEC93E00E94DB168091C2039091C303D6
S11308E09093C1038093C0031CC28981813451F069
S11308F08981823439F08981833421F08981843477
S113090009F00FC28FEC93E00E94DB168091C003C4
S11309109091C103092E000CAA0BBB0B40E050E0E0
S11309202DE030E0841B950B2817390708F4DEC14D
S1130930FC018827E058FF4F8F4F0C94E8268981EB
S1130940813439F481E090E09093C1038093C00333
S1130950D1C18981823409F0CDC11092C1031092B2
S1130960C003C8C189818134C1F48091C70388233D
S113097039F082E090E09093C1038093C00306C0F5
S113098083E090E09093C1038093C00381E090E002
S11309909093C3038093C203AFC18981823469F405
S11309A085E090E09093C1038093C00381E090E0E0
S11309B09093C3038093C2039FC18981833409F058
S11309C09BC18AE090E09093C1038093C00381E0CF
S11309D090E09093C3038093C2038EC189818134D4
S11309E009F08CC11092C70383E090E09093C10397
S11309F08093C00381E090E09093C3038093C2038B
S1130A001092C6031092C50379C18981813481F49F
S1130A1081E08093C70382E090E09093C1038093C8
S1130A20C00381E090E09093C3038093C20368C144
S1130A308981823409F064C184E090E09093C10319
S1130A408093C00383E090E09093C3038093C20338
S1130A5057C189818134A1F48091C5039091C60363
S1130A6005979093C6038093C5038091C503909125
S1130A70C6039923F4F41092C6031092C50319C057
S1130A8089818234B1F48091C5039091C60305969F
S1130A909093C6038093C5038091C5039091C603C8
S1130AA08536910534F084E690E09093C6038093F4
S1130AB0C50383E090E09093C3038093C20331C1E4
S1130AC08981813469F486E090E09093C103809336
S1130AD0C00385E090E09093C3038093C20312C1E6
S1130AE08981823409F00EC189E090E09093C103BA
S1130AF08093C00385E090E09093C3038093C20386
S1130B0001C18981813469F487E090E09093C10345
S1130B108093C00386E090E09093C3038093C20364
S1130B20F3C08981823409F0EFC088E090E09093AB
S1130B30C1038093C00386E090E09093C303809345
S1130B40C203E2C08981813451F480910002909102
S1130B50010201979093010280930002D7C089811A
S1130B60823409F0D3C08091000290910102019671
S1130B709093010280930002C9C08981813451F4A9
S1130B808091020290910302019790930302809353
S1130B900202BEC08981823409F0BAC08091020287
S1130BA09091030201969093030280930202B0C0D5
S1130BB08981813449F410920A028BE090E0909389
S1130BC0C1038093C003A6C08981823409F0A2C006
S1130BD08CE090E09093C1038093C0038AE090E09E
S1130BE09093C3038093C20395C089818134F1F447
S1130BF08091CE03882349F01092CE0364EB70E019
S1130C008EE594E00E94511C87C09091CE0381E050
S1130C108927882309F480C081E08093CE0360E0B3
S1130C2070E08EE594E00E94511C76C08981823484
S1130C3051F48AE090E09093C1038093C00381E073
S1130C4080930A0269C08981833409F065C08CE00D
S1130C5090E09093C1038093C0038BE090E0909365
S1130C60C3038093C20358C08981813409F056C0FC
S1130C708DE090E09093C1038093C0038CE090E0FA
S1130C809093C3038093C20349C089818134A1F442
S1130C908091060290910702059790930702809332
S1130CA0060280910602909107029923CCF51092D6
S1130CB007021092060234C08981823489F580913A
S1130CC0060290910702059690930702809306020C
S1130CD08091060290910702853691050CF184E615
S1130CE090E090930702809306021AC0000019C096
S1130CF0000017C0000015C0000013C0000011C0A0
S1130D0000000FC000000DC000000BC0000009C0AF
S1130D10000007C0000005C0000003C0000001C0BF
S1130D2000008091C0039091C1033EDB00000F904E
S1130D30DF91CF910895CF93DF931F921F92CDB788
S1130D40DEB79A83898389819A81880F991F0F90CE
S1130D500F90DF91CF910895CF93DF93CDB7DEB796
S1130D608091C703882309F49CC02091000230912C
S1130D7001028091040290910502281B390B809195
S1130D80C8039091C903821793072CF41092C603E9
S1130D901092C50386C02091000230910102809117
S1130DA004029091050299230CF401969595879578
S1130DB0281B390B8091C8039091C90382179307AC
S1130DC094F482E390E0B7DF9C01809183039091D7
S1130DD08403B9010E94A62389E190E09093C6039D
S1130DE08093C5035EC0209100023091010280917E
S1130DF0040290910502281B390B8091C80390913D
S1130E00C90382179307C4F02091000230910102B4
S1130E108091040290910502280F391F8091C80324
S1130E209091C903281739073CF082E390E090932E
S1130E30C6038093C50335C08091040290910502D6
S1130E4099230CF40196959587959C018091000255
S1130E5090910102280F391F8091C8039091C90312
S1130E60281739073CF48BE490E09093C6038093F1
S1130E70C50317C020910002309101028091040241
S1130E8090910502280F391F8091C8039091C903DE
S1130E902817390734F484E690E09093C6038093CE
S1130EA0C5038091C5039091C60345DF9C018091E1
S1130EB0830390918403B9010E94A6230000DF916B
S1130EC0CF910895CF93DF9300D000D0CDB7DEB794
S1130ED09A8389837C836B835E834D8380918503AE
S1130EE090918603282F89819A81BC01822F0E94C8
S1130EF0A6238091870390918803282F8B819C815E
S1130F00BC01822F0E94A6238091890390918A03B9
S1130F10282F8D819E81BC01822F0E94A623000070
S1130F2026960FB6F894DEBF0FBECDBFDF91CF91EA
S1130F300895CF93DF93CDB7DEB7209100023091AF
S1130F4001028091040290910502281B390B8091C3
S1130F50C8039091C9038217930744F44FEF50E0FC
S1130F6060E070E080E090E0ADDF7FC0209100029F
S1130F7030910102809104029091050299230CF4AE
S1130F80019695958795281B390B8091C8039091FC
S1130F90C9038217930744F44DE750E068EC70E00E
S1130FA080E090E08FDF61C0209100023091010267
S1130FB08091040290910502281B390B8091C8038B
S1130FC09091C90382179307CCF0209100023091CD
S1130FD001028091040290910502280F391F80912B
S1130FE0C8039091C9032817390744F040E050E042
S1130FF06FEF70E080E090E065DF37C0809104021D
S11310009091050299230CF40196959587959C017E
S11310108091000290910102280F391F8091C8032A
S11310209091C9032817390744F440E050E06DE774
S113103070E088EC90E046DF18C020910002309107
S113104001028091040290910502280F391F8091BA
S1131050C8039091C903281739073CF440E050E0D5
S113106060E070E08FEF90E02DDF0000DF91CF9122
S11310700895CF93DF93CDB7DEB761E082E00E949D
S1131080C12461E083E00E94C12461E084E00E9405
S1131090C12420E042E060E18FEC93E00E948215DD
S11310A067E38BE494E0E3D068E070E08EE594E0DD
S11310B00E94A61B0000DF91CF910895CF93DF9388
S11310C0CDB7DEB70E942E1E47DE0E94651E31DFBB
S11310D087EE93E05BD78093C4038091C403DBDB8A
S11310E01092C4030000DF91CF910895CF92EF9244
S11310F00F93CF93DF9300D01F92CDB7DEB79A83BF
S113110089837C836B8389819A81019759F58B81CB
S11311109C81019639F50F2EF3E2CF2EF02D0F2E80
S1131120F1E2EF2EF02D02E220E244E265E28FECE0
S113113093E00E94CD146894EE24E2F804E02FE1D9
S113114032E04BE152E06BE072E087EE93E07AD656
S113115026E04BE06DE08BE494E039D08EE594E03A
S11311600E94721B00000F900F900F900F90DF9160
S1131170CF910F91EF90CF900895CF93DF93CDB798
S1131180DEB76FEF7FEF81E090E0B0DFDF91CF91CA
S11311900895CF93DF931F921F92CDB7DEB79A8342
S11311A08983F89400000F900F90DF91CF910895F8
S11311B0CF93DF931F921F92CDB7DEB79A838983B3
S11311C0789400000F900F90DF91CF910895CF9302
S11311D0DF93CDB7DEB72B970FB6F894DEBF0FBE03
S11311E0CDBF98878F8369874A872B878F8198859E
S11311F02985FC0125838F8198852A85FC01268316
S11312008985882F90E08C5F9D4F9A83898389819B
S11312109A81FC0184918B838F8198852B81FC01B9
S113122027838985882F90E0865B9D4F9D838C83DF
S11312308C819D81FC0184918E838F8198852E8180
S1131240FC0120872F81388580E89EE3A0E0B0E090
S1131250F90185879687A787B08B00002B960FB678
S1131260F894DEBF0FBECDBFDF91CF910895CF9329
S1131270DF9300D0CDB7DEB79A8389836B838981EE
S11312809A81FC01858162E00E94C1240E94AA2205
S1131290DC01CB01805D9740A109B10929813A8124
S11312A0F90181879287A387B48789819A812B81E9
S11312B0FC01228B00000F900F900F90DF91CF91D3
S11312C00895CF93DF93CDB7DEB728970FB6F89480
S11312D0DEBF0FBECDBF9E838D836F83488780E0C2
S11312E090E0A0ECBFE789839A83AB83BC838D81B4
S11312F09E8168851DD2882309F434C18D819E8125
S1131300FC018681882F90E08C30910509F472C02D
S11313108D3091051CF40B9731F024C14597029749
S113132008F020C1C7C08D819E81FC018281882F75
S113133090E0A0E0B0E0BC01CD010E94901FDC0170
S1131340CB0189839A83AB83BC838D819E81FC010D
S11313508381882384F429813A814B815C8160E014
S113136070E080E89FEB0E94921EDC01CB01898330
S11313709A83AB83BC838D819E81FC018381882FFA
S113138090E08F709927092E000CAA0BBB0BBC01AF
S1131390CD010E94921FDC01CB012DEC3CEC4CEC06
S11313A05DE3BC01CD010E946320DC01CB019C0103
S11313B0AD0169817A818B819C810E94931EDC013D
S11313C0CB0189839A83AB83BC838F81882309F4FF
S11313D0C4C089819A81AB81BC812D813E81AC01DD
S11313E0BD01C901CED0DC01CB0189839A83AB83D3
S11313F0BC83B3C08D819E81FC018281882F90E0E3
S1131400A0E0B0E0BC01CD010E94901FDC01CB0143
S113141089839A83AB83BC838D819E81FC01838104
S1131420882F90E08F709927092E000CAA0BBB0B14
S1131430BC01CD010E94921FDC01CB012DEC3CECE0
S11314404CEC5DE3BC01CD010E946320DC01CB01C7
S11314509C01AD0169817A818B819C810E94931EDC
S1131460DC01CB0189839A83AB83BC838D819E810C
S1131470FC01828188234CF489819A81AB81BC81EF
S1131480B05889839A83AB83BC838F81882309F402
S113149066C089819A81AB81BC812D813E81AC017A
S11314A0BD01C9016ED0DC01CB0189839A83AB8372
S11314B0BC8355C08D819E81FC018281882F90E080
S11314C08F779927382F22278D819E81FC01838174
S11314D0882F90E0822B932BCC01A0E0B0E0BC01DC
S11314E0CD010E94901FDC01CB0189839A83AB83D9
S11314F0BC832DEC3CEC4CEC5DE369817A818B81FF
S11315009C810E946320DC01CB0189839A83AB8395
S1131510BC838D819E81FC01828188234CF4898166
S11315209A81AB81BC81B05889839A83AB83BC8395
S11315308F818823B1F089819A81AB81BC812D810F
S11315403E81AC01BD01C9011CD0DC01CB01898302
S11315509A83AB83BC83000004C0000003C0000076
S113156001C0000089819A81AB81BC81BC01CD019D
S113157028960FB6F894DEBF0FBECDBFDF91CF9192
S11315800895CF93DF9300D000D0CDB7DEB79A8310
S113159089834B835C836D837E8326E636E646EE41
S11315A05FE36B817C818D819E810E946320DC01DD
S11315B0CB0120E030E040E052E4BC01CD010E94C8
S11315C0931EDC01CB01BC01CD0126960FB6F89425
S11315D0DEBF0FBECDBFDF91CF910895CF92DF92D2
S11315E0EF92FF92CF93DF93CDB7DEB727970FB675
S11315F0F894DEBF0FBECDBF9E838D836F8380E0E2
S113160090E0A0ECBFE789839A83AB83BC838D8190
S11316109E816F818DD0882309F477C08D819E814E
S1131620FC018681882F90E08B3091050CF46DC00D
S11316308D3091052CF04597029708F066C037C0AD
S11316408D819E81FC018081882F90E0092E000C01
S1131650AA0BBB0BBC01CD010E94921F6B017C0144
S11316608D819E81FC018181882F90E0092E000CE0
S1131670AA0BBB0BBC01CD010E94921FDC01CB0164
S11316802DEC3CEC4CEC5DE3BC01CD010E946320ED
S1131690DC01CB019C01AD01C701B6010E94931E80
S11316A0DC01CB0189839A83AB83BC832EC08D81FB
S11316B09E81FC018081882F90E0382F22278D8124
S11316C09E81FC018181882F90E0822B932BCC0199
S11316D0A0E0B0E0BC01CD010E94901FDC01CB0171
S11316E089839A83AB83BC832DEC3CEC4CEC5DE3A7
S11316F069817A818B819C810E946320DC01CB010A
S113170089839A83AB83BC83000089819A81AB81EE
S1131710BC81BC01CD0127960FB6F894DEBF0FBE85
S1131720CDBFDF91CF91FF90EF90DF90CF900895E0
S1131730AF92BF92CF92DF92FF920F931F93CF93FA
S1131740DF93CDB7DEB7C455D1400FB6F894DEBFF2
S11317500FBECDBF9E012E5A3E4FF9019183808367
S1131760CE018C5A9E4FFC0160830E94AA22DC01A8
S1131770CB018D839E83AF83B887CE018C5A9E4F55
S1131780FC01908181E08927882329F1CE018E5ABA
S11317909E4FFC0180819181FC0181859285A38506
S11317A0B4852D813E814F81588559016A01A81A5B
S11317B0B90ACA0ADB0AD601C501803D9740A105D2
S11317C0B10548F4CE018E5A9E4FFC01808191816F
S11317D0FC01F1885FC2CE018E5A9E4FFC0120812C
S11317E031818D819E81AF81B885F901818792878E
S11317F0A387B487CE018E5A9E4FFC0180819181CC
S1131800FC011482CE018E5A9E4FFC01808191818D
S1131810FC012481CE018E5A9E4FFC01808191816E
S1131820FC012383CE018E5A9E4FFC01808191815D
S1131830FC012381CE018E5A9E4FFC01808191814F
S1131840FC012283CE018E5A9E4FFC01808191813E
S1131850FC012281CE018E5A9E4FFC018081918130
S1131860FC012183CE018E5A9E4FFC01808191811F
S1131870FC012181CE018E5A9E4FFC018081918111
S1131880FC012083CE018E5A9E4FFC018081918100
S1131890FC01858162E00E94C12461E070E080E087
S11318A090E00E94DB22CE018E5A9E4FFC01808183
S11318B09181FC01858161E00E94C124CE018E5A90
S11318C09E4FFC0180819181FC01858160E00E9432
S11318D0FD24CE018E5A9E4FFC0180819181FC0132
S11318E08681882F90E04597029728F48CE494E051
S11318F00E94142307C064E170E080E090E00E943D
S1131900DB220000CE018E5A9E4FFC018081918122
S1131910FC01858162E00E94C124CE018E5A9E4F53
S1131920FC0180819181FC018289882F90E00E94D2
S11319301423CE018F5A9E4F2CDCCE018E5A9E4F1B
S1131940FC018081918160E0B7D1DC01CB0121E011
S11319508F3F9F4FAF4FBF4F09F020E0222399F0F4
S1131960CE018E5A9E4FFC0180819181FC01118A27
S1131970CE018E5A9E4FFC0180819181FC01F18839
S113198000E010E072C0CE018E5A9E4FFC018081AF
S1131990918161E091D1DC01CB0121E08F3F9F4F28
S11319A0AF4FBF4F09F020E0222399F0CE018E5AA9
S11319B09E4FFC0180819181FC01118ACE018E5AD7
S11319C09E4FFC0180819181FC01F18800E010E0D0
S11319D04CC01A82198289819A81803591050CF054
S11319E042C0CE018E5A9E4FFC018081918160E0FD
S11319F063D1DC01CB0129813A81220F331F220FED
S1131A00331FAE014F5F5F4F240F351F205F3F4FE1
S1131A10F90180839183A283B38389819A818C01A4
S1131A200F5F1F4FCE018E5A9E4FFC018081918122
S1131A3061E042D1DC01CB019801220F331F220F58
S1131A40331FAE014F5F5F4F240F351F205F3F4FA1
S1131A50F90180839183A283B38389819A81029659
S1131A609A838983B8CF01E010E0CE018F5A9E4F4C
S1131A709FDB0130110509F00DC100001C821B829F
S1131A808B819C8188970CF0A7C08B819C81880FE7
S1131A90991F880F991F880F991F9E012F5F3F4F31
S1131AA0820F931F4096FC0180819181A281B381B2
S1131AB089879A87AB87BC878B819C81880F991F04
S1131AC00196880F991F880F991F9E012F5F3F4F22
S1131AD0820F931F4096FC0180819181A281B38182
S1131AE08D879E87AF87B88B89859A85AB85BC85A2
S1131AF08F3F9F4FAF4FBF4F49F08D859E85AF8578
S1131B00B8898F3F9F4FAF4FBF4F89F4CE018E5A94
S1131B109E4FFC0180819181FC01118ACE018E5A75
S1131B209E4FFC0180819181FC01F188B3C08B81BF
S1131B309C8199230CF4079695958795959587959F
S1131B40959587959E012E5A3E4FF901208131814A
S1131B50280F391FF9012081422F440F9E012E5A6C
S1131B603E4FF90120813181820F931FFC01408394
S1131B702D853E854F85588989859A85AB85BC8599
S1131B8082179307A407B50708F58B819C819923D5
S1131B900CF40796959587959595879595958795D2
S1131BA09E012E5A3E4FF90120813181280F391FA1
S1131BB0F9012081422F41609E012E5A3E4FF901C6
S1131BC020813181820F931FFC0140838B819C8192
S1131BD001969C838B8354CFCE018E5A9E4FFC0179
S1131BE080819181FC018481282F30E0CE018E5ABE
S1131BF09E4FFC0180819181FC018081482F50E03F
S1131C00CE018E5A9E4FFC0180819181FC0181811D
S1131C10882F90E0480F591FCE018E5A9E4FFC0129
S1131C2080819181FC018281882F90E0480F591FA7
S1131C30CE018E5A9E4FFC0180819181FC018381EB
S1131C40882F90E0840F951F99272817390791F45E
S1131C50CE018E5A9E4FFC018081918121E0FC01CE
S1131C60218BCE018E5A9E4FFC0180819181FC0113
S1131C70F18810C0CE018E5A9E4FFC018081918163
S1131C80FC01118ACE018E5A9E4FFC018081918104
S1131C90FC01F1888F2DCC5ADE4F0FB6F894DEBFCD
S1131CA00FBECDBFDF91CF911F910F91FF90DF90B9
S1131CB0CF90BF90AF900895CF93DF93CDB7DEB7A9
S1131CC02A970FB6F894DEBF0FBECDBF99878887D9
S1131CD06A871A8219828A85882329F088859985DA
S1131CE0FC01878101C080E08B8388859985FC0194
S1131CF08085882F90E0880F991F80579D4F9D8382
S1131D008C838C819D81FC0125913491CF013F838B
S1131D102E839D838C838E819F81FC012081888505
S1131D209985FC018781282381E09B81291709F08B
S1131D3080E08823F9F089819A819C012F5F3F4FCD
S1131D403A8329839C0140E050E088859985FC0111
S1131D5085859685A785B08961E0281739074A07E4
S1131D605B0708F460E0662309F4BFCF8FEF9FEFB1
S1131D70DC0105C089819A81CC01A0E0B0E0BC01FE
S1131D80CD012A960FB6F894DEBF0FBECDBFDF910A
S1131D90CF910895CF93DF931F921F92CDB7DEB7F3
S1131DA09A83898389819A81FC01108289819A812D
S1131DB0FC01138289819A81FC01148200000F9036
S1131DC00F90DF91CF910895CF93DF9300D01F92AE
S1131DD0CDB7DEB79A8389836B834C836C818B8107
S1131DE00E94C12400000F900F900F900F90DF917C
S1131DF0CF910895CF93DF9300D01F92CDB7DEB774
S1131E009A8389836B834C838C81682F8B810E9496
S1131E10FD2400000F900F900F900F90DF91CF9151
S1131E200895CF93DF9300D0CDB7DEB79A8389832B
S1131E306B838B810E942B250F900F900F90DF9165
S1131E40CF910895EF92FF920F931F93CF93DF9357
S1131E50CDB7DEB72A970FB6F894DEBF0FBECDBF5D
S1131E609A8389837C836B835E834D8338872F8336
S1131E700987EA8689819A8102968CDF2FE833E00C
S1131E8089819A81FC013183208389819A814B96CF
S1131E9009E010E07C010F3FFFEF1F0741F0C7018D
S1131EA079DF85E0E80EF11C01501109F4CF898136
S1131EB09A81895A9F4F2D813E81FC013183208371
S1131EC089819A81875A9F4F2F813885FC013183FC
S1131ED0208389819A81855A9F4F2985FC0120831B
S1131EE089819A81845A9F4F2A85FC0120832B8102
S1131EF03C8189819A81B9012ED089819A816AE0D5
S1131F0070E055D489819A8164EF71E079D4898134
S1131F109A818E599F4FFC011182108289819A8186
S1131F208F5A9F4FFC011082118212821382898181
S1131F309A818F599F4FFC01108200002A960FB698
S1131F40F894DEBF0FBECDBFDF91CF911F910F91EB
S1131F50FF90EF900895CF93DF9300D01F92CDB7F9
S1131F60DEB79A8389837C836B8389819A818B5AB8
S1131F709F4F2B813C81FC013183208300000F9013
S1131F800F900F900F90DF91CF910895CF93DF932F
S1131F901F921F92CDB7DEB79A83898389819A8174
S1131FA08F599F4F21E0FC01208389819A8124D09D
S1131FB0882371F089819A81FC01878D882341F0FF
S1131FC089819A81FC01868D813011F481E001C000
S1131FD080E0882329F089819A81FC01838D07C0E0
S1131FE089819A818F599F4FFC01108280E00F9064
S1131FF00F90DF91CF910895CF93DF9300D0CDB7A9
S1132000DEB79B838A8319820E94AA229B01AC01BA
S11320108A819B818F5A9F4FFC0180819181A2818B
S1132020B381281B390B4A0B5B0B8A819B81835A32
S11320309F4FFC0180819181CC01A0E0B0E061E080
S113204082179307A407B50708F060E06623A1F0A0
S11320508A819B8118D08A819B8158D189830E946F
S1132060AA22DC01CB012A813B812F5A3F4FF9017F
S113207080839183A283B38389810F900F900F9003
S1132080DF91CF910895CF93DF9300D01F921F92D9
S1132090CDB7DEB79D838C8319828C819D81855A4F
S11320A09F4FFC0190818981891700F58C819D8166
S11320B0FC0180819181FC01208131818C819D8191
S11320C0895A9F4FFC01408151818981882F90E07A
S11320D0840F951FFC0150818C819D8142E0652F06
S11320E0F901199589818F5F8983D7CF1A828C81F1
S11320F09D81845A9F4FFC0190818A81891708F041
S1132100FCC08C819D81FC0180819181FC01208136
S113211031818C819D81875A9F4FFC01408151817F
S11321208A81882F90E0840F951FFC0150818C8157
S11321309D8141E0652FF90119958C819D81FC01F8
S1132140808191810296FC01208131818C819D8165
S1132150875A9F4FFC01408151818A81882F90E0EA
S1132160840F951FFC0150818C819D8140E0652F77
S1132170F90119951B828C819D81855A9F4FFC0121
S113218090818B81891708F07BC08C819D81FC0133
S1132190808191810496FC01208131818C819D8113
S11321A0895A9F4FFC01408151818B81882F90E097
S11321B0840F951FFC0140818C819D81642FF9015E
S11321C01995892B61F58B81682F70E08B81882F9D
S11321D090E02C813D81880F991F820F931F0796F1
S11321E0FC01208131818A81482F50E081E090E018
S11321F0A0E0B0E004C0880F991FAA1FBB1F4A9536
S1132200D2F7282B392B4C815D81CB01880F991F84
S1132210840F951F0796FC01318320832DC08B8189
S1132220682F70E08B81882F90E02C813D81880F8E
S1132230991F820F931F0796FC01208131818A81A7
S1132240482F50E081E090E0A0E0B0E004C0880FA7
S1132250991FAA1FBB1F4A95D2F7809590952823F2
S113226039234C815D81CB01880F991F840F951F01
S11322700796FC01318320838B818F5F8B837BCF17
S11322808C819D81FC01808191810296FC012081D9
S113229031818C819D81875A9F4FFC0140815181FE
S11322A08A81882F90E0840F951FFC0150818C81D6
S11322B09D8141E0652FF90119958C819D81FC0177
S11322C080819181FC01208131818C819D81875A9B
S11322D09F4FFC01408151818A81882F90E0840FB7
S11322E0951FFC0150818C819D8140E0652FF9018F
S11322F019958A818F5F8A83FACE00000F900F9020
S11323000F900F900F90DF91CF910895CF93DF93AB
S1132310CDB7DEB72E970FB6F894DEBF0FBECDBF94
S11323209E878D8719821A828A818A3008F04DC06F
S11323308A81282F30E04D855E85C901880F991F59
S1132340880F991F820F931F840F951F4E96FC01CF
S113235080818823B1F58A81282F30E04D855E8500
S1132360C901880F991F880F991F820F931F840F2B
S1132370951F4B96FC0110828A81282F30E04D85F1
S11323805E85C901880F991F880F991F820F931FBB
S1132390840F951F4C962FEF3FEFFC013183208370
S11323A08A81282F30E04D855E85C901880F991FE9
S11323B0880F991F820F931F840F951F4F96FC015E
S11323C010828A818F5F8A83AFCF1B828D859E8521
S11323D0855A9F4FFC0190818B81891708F0DFC0DB
S11323E01C828D859E85845A9F4FFC0190818C812F
S11323F0891708F0D0C08B81882F90E02D853E8509
S1132400880F991F820F931F0796FC018081918189
S11324102C81222F30E002C0969587952A95E2F709
S11324208170992721E0892B09F420E02F838D8581
S11324309E858B5A9F4FFC01808191812B81622F55
S113244070E02D853E85245A3F4FF9012081222FCB
S113245030E0629FA001639F500D729F500D1124C4
S11324602C81222F30E0240F351F820F931FFC0193
S1132470808188878B81482F50E08D859E85845A82
S11324809F4FFC018081882F90E0489F9001499FD5
S1132490300D589F300D11248C81882F90E0820FCD
S11324A0931F9A87898729853A858D859E85B901E9
S11324B046D19C878B878B859C85992334F02B850B
S11324C08D859E854F81622F91D08B859C85019649
S11324D009F05DC08F81882309F459C01D828D8164
S11324E08A3008F054C08D81282F30E04D855E85F8
S11324F0C901880F991F880F991F820F931F840F9A
S1132500951F4B96FC0180818823E9F58D81282F46
S113251030E04D855E85C901880F991F880F991F8A
S1132520820F931F840F951F4B962885FC012083EF
S11325308D81282F30E04D855E85C901880F991F54
S1132540880F991F820F931F840F951F4C9629851E
S11325503A85FC01318320838D81282F30E04D851D
S11325605E85C901880F991F880F991F820F931FD9
S1132570840F951F4E96FC0110828D859E854F8198
S11325806D8134D004C08D818F5F8D83A8CF8C8101
S11325908F5F8C8326CF8B818F5F8B8317CF1E82B7
S11325A08E818A30C8F48E81282F30E04D855E8577
S11325B0C901880F991F880F991F820F931F840FD9
S11325C0951F4F96FC018081882311F081E0898357
S11325D08E818F5F8E83E4CF89812E960FB6F89417
S11325E0DEBF0FBECDBFDF91CF910895CF93DF93B0
S11325F000D01F92CDB7DEB79A8389836B834C8357
S11326008B81282F30E049815A81C901880F991F95
S1132610880F991F820F931F840F951F4F96FC01FB
S113262010828B81282F30E049815A81C901880F9B
S1132630991F880F991F820F931F840F951F4E9621
S1132640FC018081882F90E08130910529F182304E
S113265091051CF4892B49F06AC08230910509F474
S113266050C0039709F458C062C08C81882309F4D0
S113267059C089819A8141E06B81DDD00E94AA22F0
S1132680DC01CB0129813A81235B3F4FF90180832F
S11326909183A283B38346C00E94AA229B01AC010A
S11326A089819A81835B9F4FFC0180819181A28102
S11326B0B381281B390B4A0B5B0B89819A81815AA0
S11326C09F4FFC0180819181CC01A0E0B0E061E0EA
S11326D082179307A407B50708F060E0662331F07A
S11326E089819A8142E06B81A6D01EC09C8181E0E1
S11326F089278823C9F089819A8143E06B819BD023
S113270013C09C8181E08927882381F089819A8183
S113271043E06B8190D00AC089819A8140E06B814B
S11327208AD005C0000003C0000001C00000000002
S11327300F900F900F900F90DF91CF910895CF934A
S1132740DF9300D01F921F92CDB7DEB79B838A839D
S11327507D836C83198289818A30F8F48981282FDA
S113276030E04A815B81C901880F991F880F991F46
S1132770820F931F840F951F4C96FC012081318199
S11327808C819D812817390721F48981882F90E055
S113279006C089818F5F8983DECF8FEF9FEF0F9013
S11327A00F900F900F900F90DF91CF910895CF93DA
S11327B0DF9300D01F92CDB7DEB79A8389837C83E1
S11327C06B838B819C81892B51F489819A81835AF3
S11327D09F4F21E030E0FC013183208309C08981CF
S11327E09A81835A9F4F2B813C81FC013183208342
S11327F000000F900F900F900F90DF91CF910895EC
S1132800CF93DF9300D01F92CDB7DEB79A8389832D
S11328107C836B8389819A81815A9F4F2B813C8170
S1132820FC013183208300000F900F900F900F90D4
S1132830DF91CF910895CF93DF9300D01F92CDB74E
S1132840DEB79A8389836B834C838B81282F30E096
S113285049815A81C901880F991F880F991F820FD6
S1132860931F840F951F4E962C81FC0120838B812E
S1132870282F30E049815A81C901880F991F880F98
S1132880991F820F931F840F951F4F9621E0FC011F
S1132890208389819A818F599F4FFC0180818823ED
S11328A0D1F089819A818E599F4FFC018081918159
S11328B0892BA1F18B81882389F589819A818E598D
S11328C09F4FFC012081318189819A81FC01838D94
S11328D0F901199523C089819A818E599F4FFC0172
S11328E080819181892BD1F089819A818E599F4F62
S11328F0FC01408151818B81282F30E069817A81EC
S1132900C901880F991F880F991F820F931F860F83
S1132910971F4B96FC018081FA01199500000F90D6
S11329200F900F900F90DF91CF910895CF93DF9385
S11329301F921F92CDB7DEB79A83898325EA33E0CD
S113294089819A81FC013183208389819A81FC01E8
S11329501382128200000F900F90DF91CF9108959F
S1132960CF93DF931F921F92CDB7DEB79A838983EB
S113297080E090E00F900F90DF91CF910895CF9376
S1132980DF931F921F92CDB7DEB79A83898300002D
S11329900F900F90DF91CF9108958F92AF92CF92C5
S11329A0EF920F93CF93DF93CDB7DEB728970FB68F
S11329B0F894DEBF0FBECDBF9A8389836B834C83AB
S11329C02D830E83EF82C88689819A81AFDF29E93E
S11329D033E089819A81FC013183208389819A8142
S11329E01F921F921F921F928884AF80CE80ED8029
S11329F00C812FEF4B8161E013D00F900F900F905B
S1132A000F90000028960FB6F894DEBF0FBECDBF1E
S1132A10DF91CF910F91EF90CF90AF908F90089569
S1132A208F92AF92CF92EF920F93CF93DF93CDB764
S1132A30DEB72A970FB6F894DEBF0FBECDBF9A83D8
S1132A4089836B834C832D830E83EF82C886A9868A
S1132A508A8689819A812C81FC01248389819A81C7
S1132A602D81FC01258389819A812E81FC01268395
S1132A7089819A812F81FC01278389819A81288504
S1132A80FC01208789819A812985FC01218789811C
S1132A909A812A85FC01228789819A812D89FC01EA
S1132AA0238789819A812E89FC01248789819A81CF
S1132AB02F89FC01258789819A81288DFC0126872D
S1132AC08B81882329F089819A81FC01178605C0AE
S1132AD089819A8120E1FC01278789819A8120E0FC
S1132AE041E060E10FD000002A960FB6F894DEBFF3
S1132AF00FBECDBFDF91CF910F91EF90CF90AF90EC
S1132B008F9008950F931F93CF93DF93CDB7DEB7C4
S1132B1027970FB6F894DEBF0FBECDBF9C838B837F
S1132B206D834E832F838E81823050F08B819C8104
S1132B30FC018785282F28608B819C81FC012787D5
S1132B408B819C812E81FC01238B8D81882F90E0C9
S1132B50AC01405C5F4F8D81282F30E08B819C81DC
S1132B608A0140E450E060E070E0EFD08F81882378
S1132B7069F08E81813051F48B819C81FC018785C1
S1132B80282F24608B819C81FC0127878B819C8169
S1132B90FC01848161E00E94C1248B819C81FC0141
S1132BA085818F3F39F08B819C81FC01858161E0B7
S1132BB00E94C1248B819C81FC01868161E00E947A
S1132BC0C1241A8219828B819C81FC018785882FFC
S1132BD090E080719927892B19F088E090E002C079
S1132BE084E090E029813A812817390794F42B81F5
S1132BF03C8189819A81820F931F0796FC01808111
S1132C0061E00E94C12489819A8101969A83898313
S1132C10DACF80E593EC0E9414238B819C81FC0124
S1132C20848160E00E94FD248B819C81FC0186816B
S1132C3060E00E94FD248B819C81FC0185818F3F93
S1132C4039F08B819C81FC01858160E00E94FD2428
S1132C508B819C81FC018785882F90E08071992766
S1132C60892BE9F48B819C8163E0BAD184E991E1F9
S1132C700E9414238B819C8163E0B2D184E991E1A9
S1132C800E9414238B819C8163E0AAD186E990E0A1
S1132C900E9414238B819C8162E0A2D126C08B8187
S1132CA09C81FC018785282F20628B819C81622F67
S1132CB0F6D084E991E10E9414238B819C81FC016C
S1132CC08785282F20628B819C81622FE8D086E93A
S1132CD090E00E9414238B819C81FC018785282F1E
S1132CE020628B819C81622FDAD08B819C81FC01D4
S1132CF08785282F20628B819C81622FD0D08B8185
S1132D009C8124E0FC01208B8B819C81A6D08B814B
S1132D109C8151D08B819C8122E0FC01218B8B8191
S1132D209C81FC018189282F24608B819C81622FE6
S1132D30B6D0000027960FB6F894DEBF0FBECDBF05
S1132D40DF91CF911F910F9108950F931F93CF930C
S1132D50DF93CDB7DEB72A970FB6F894DEBF0FBE68
S1132D60CDBF9A8389837C836B835E834D8338874D
S1132D702F831A8709872B8189819A81FC01248BEF
S1132D802D8189819A81FC01258B2F8189819A81EA
S1132D90FC01268B298589819A81FC01278B0000FF
S1132DA02A960FB6F894DEBF0FBECDBFDF91CF9148
S1132DB01F910F910895CF93DF931F921F92CDB768
S1132DC0DEB79A83898389819A8161E068D080ED36
S1132DD097E00E94142300000F900F90DF91CF9191
S1132DE00895CF93DF9300D000D0CDB7DEB79C8396
S1132DF08B836D834E8384E090E09A8389838E81F4
S1132E00843010F083E08E838B819C81FC01938954
S1132E108E81891730F08B819C81FC0183898150DC
S1132E208E838E81882F90E02B813C81820F931FAB
S1132E304496FC0190818D81890F8068282F8B81B5
S1132E409C81622F2CD0000026960FB6F894DEBF2A
S1132E500FBECDBFDF91CF910895CF93DF931F9223
S1132E601F92CDB7DEB79A83898389819A81FC0149
S1132E708089282F246089819A81FC01208B898193
S1132E809A81FC018089282F286089819A81622F88
S1132E9006D000000F900F90DF91CF910895CF934B
S1132EA0DF9300D0CDB7DEB79A8389836B838981A2
S1132EB09A8140E06B811CD000000F900F900F901E
S1132EC0DF91CF910895CF93DF9300D0CDB7DEB7D4
S1132ED09A8389836B8389819A8141E06B8108D0CD
S1132EE081E090E00F900F900F90DF91CF910895C3
S1132EF0CF93DF9300D01F92CDB7DEB79A83898337
S1132F006B834C8389819A81FC0184816C810E944A
S1132F10FD2489819A81FC0185818F3F39F0898163
S1132F209A81FC01858160E00E94FD2489819A8157
S1132F30FC018785882F90E080719927892B29F0DF
S1132F4089819A816B8185D014C08B81882F90E010
S1132F509595879595958795959587959595879555
S1132F60282F89819A81622F3BD089819A816B8134
S1132F7037D000000F900F900F900F90DF91CF91FA
S1132F800895CF93DF931F921F92CDB7DEB79A8334
S1132F90898389819A81FC01868160E00E94FD24F5
S1132FA081E090E00E94142389819A81FC0186814A
S1132FB061E00E94FD2481E090E00E941423898155
S1132FC09A81FC01868160E00E94FD2484E690E001
S1132FD00E94142300000F900F90DF91CF91089569
S1132FE0CF93DF9300D01F921F92CDB7DEB79C839F
S1132FF08B836D831A82198289819A810497ECF4F8
S11330008D81882F90E0098002C0959587950A9458
S1133010E2F7482F41702B813C8189819A81820F8C
S1133020931F0796FC018081642F0E94FD248981EF
S11330309A8101969A838983DFCF8B819C81A1DF5A
S113304000000F900F900F900F900F90DF91CF9191
S11330500895CF93DF9300D01F921F92CDB7DEB7B0
S11330609C838B836D831A82198289819A81089744
S1133070ECF48D81882F90E0098002C095958795A6
S11330800A94E2F7482F41702B813C8189819A810F
S1133090820F931F0796FC018081642F0E94FD24F8
S11330A089819A8101969A838983DFCF8B819C8160
S11330B068DF00000F900F900F900F900F90DF913A
S11330C0CF910895CF93DF9300D01F921F92CDB775
S11330D0DEB789837B836A835D834C838981882FF0
S11330E090E08F509B4FFC018081881F8827881FA8
S11330F0882331F08A819B81FC011182108272C085
S11331008981282F30E0C901880F991F820F931FEE
S1133110880F991F880F991F9C018981882F90E03F
S11331208F509B4FFC018081082E000C990B280FB7
S1133130391F8091F504882F90E0281739074CF542
S11331408981282F30E0C901880F991F820F931FAE
S1133150880F991F880F991F9C018981882F90E0FF
S11331608F509B4FFC018081082E000C990B280F77
S1133170391FC901880F991F820F931F8F599B4FC5
S1133180FC01808186FB882780F9813011F481E07D
S113319001C080E0882331F18981282F30E0C90102
S11331A0880F991F820F931F880F991F880F991FEB
S11331B09C018981882F90E08F509B4FFC01808176
S11331C0082E000C990B280F391FC901880F991F6D
S11331D0820F931F8F599B4FFC0180818F7360E096
S11331E00E94FD248981882F90E09C012F503B4F41
S11331F0F90120812F5F8F509B4FFC01208389812F
S1133200282F30E0C901880F991F820F931F880F60
S1133210991F880F991F9C018981882F90E08F50F6
S11332209B4FFC018081082E000C990B280F391F3D
S11332308091F504882F90E0281739075CF4898180
S1133240882F90E08F509B4FFC0180818C3014F4C8
S113325081E001C080E0882309F47FC08A819B81DA
S1133260FC01408151818981282F30E0C901880FF8
S1133270991F820F931F880F991F880F991F9C0114
S11332808981882F90E08F509B4FFC018081082E0C
S1133290000C990B280F391FC901880F991F820F41
S11332A0931F8E599B4FFC01808191819A01280FB5
S11332B0391F8C819D81FC01318320838981282FD2
S11332C030E0C901880F991F820F931F880F991F3F
S11332D0880F991F9C018981882F90E08F509B4F04
S11332E0FC018081082E000C990B280F391FC9019D
S11332F0880F991F820F931F8F599B4FFC01808168
S113330086FB882780F9882309F451C08981282FF6
S113331030E0C901880F991F820F931F880F991FEE
S1133320880F991F9C018981882F90E08F509B4FB3
S1133330FC018081082E000C990B280F391FC9014C
S1133340880F991F820F931F8F599B4FFC01808117
S11333508F7361E00E94FD242AC08A819B81FC0155
S113336080819181049621E080349C4908F020E01A
S1133370222341F08C819D8120E43CE9FC013183CE
S113338020830DC08A819B81FC01808191819C01F5
S11333902C5F3F4F8C819D81FC0131832083898187
S11333A0882F90E08F509B4F2FEFFC01208300006B
S11333B00F900F900F900F900F90DF91CF91089581
S11333C01F920F9200905F000F92112400905B00F7
S11333D00F922F933F934F935F936F937F938F93AA
S11333E09F93AF93BF93EF93FF93CF93DF93CDB7A7
S11333F0DEB748E850E064E870E081E063DE000096
S1133400DF91CF91FF91EF91BF91AF919F918F91F8
S11334107F916F915F914F913F912F910F90009207
S11334205B000F9000925F000F901F9018951F9201
S11334300F9200905F000F92112400905B000F9296
S11334402F933F934F935F936F937F938F939F93A8
S1133450AF93BF93EF93FF93CF93DF93CDB7DEB7D3
S113346048E950E064E970E082E02CDE0000DF917E
S1133470CF91FF91EF91BF91AF919F918F917F91E8
S11334806F915F914F913F912F910F9000925B004C
S11334900F9000925F000F901F9018951F920F924B
S11334A000905F000F92112400905B000F922F9305
S11334B03F934F935F936F937F938F939F93AF93B8
S11334C0BF93EF93FF93CF93DF93CDB7DEB748EA73
S11334D050E064EA70E083E0F5DD0000DF91CF9115
S11334E0FF91EF91BF91AF919F918F917F916F91D8
S11334F05F914F913F912F910F9000925B000F903D
S113350000925F000F901F9018951F920F920090E9
S11335105F000F92112400905B000F922F933F9352
S11335204F935F936F937F938F939F93AF93BF93C7
S1133530EF93FF93CF93DF93CDB7DEB748E251E02B
S113354064E271E080E0BEDD0000DF91CF91FF9185
S1133550EF91BF91AF919F918F917F916F915F9107
S11335604F913F912F910F9000925B000F9000922A
S11335705F000F901F901895CF93DF931F92CDB7E4
S1133580DEB789838981813001F580E890E0FC0110
S1133590108281E890E022E0FC01208384E890E03E
S11335A0FC011182108286E390E026E330E0F90109
S11335B020812260FC0120838FE690E02FE630E03A
S11335C0F90120812260FC01208389818230C1F4C9
S11335D080E990E0FC01108281E990E022E0FC01A6
S11335E0208384E990E0FC011182108288E390E05A
S11335F022E0FC01208381E790E022E0FC012083AB
S113360089818330C1F480EA90E0FC01108281EA70
S113361090E022E0FC01208384EA90E0FC01118226
S1133620108289E390E022E0FC01208382E790E0AD
S113363022E0FC01208389818823C1F480E291E0A7
S1133640FC01108281E291E022E0FC01208384E20B
S113365091E0FC01118210828AE390E022E0FC01F7
S1133660208383E790E022E0FC01208300000F9098
S1133670DF91CF910895CF93DF931F921F92CDB71F
S1133680DEB78A83198289818C3030F58A81282FAC
S113369030E0C901880F991F820F931F880F991F6B
S11336A0880F991F9C018981882F90E0280F391F6A
S11336B0C901880F991F820F931F8F599B4FFC01DB
S11336C0808186FB882780F9813011F481E005C070
S11336D089818F5F8983D7CF80E00F900F90DF912E
S11336E0CF910895CF93DF931F921F92CDB7DEB78A
S11336F09A8389838091F5048033E8F42091F5045A
S113370081E0820F8093F50489819A81FC012083F2
S113371089819A81FC018081282F30E0C901880FBA
S1133720991F820F931F8E599B4F28EB3BE0FC019E
S11337303183208305C089819A812FEFFC01208386
S113374000000F900F90DF91CF910895CF93DF93F6
S113375000D01F92CDB7DEB79A8389837C836B83B5
S11337606B817C8189819A8120E639E040E252E0D4
S113377007D00F900F900F900F90DF91CF91089585
S1133780CF93DF93CDB7DEB729970FB6F894DEBF9A
S11337900FBECDBF9B838A837D836C835F834E83FF
S11337A0398728878A819B81FC018081803308F0D6
S11337B06BC08C8161E00E94C1248A819B81FC01E1
S11337C08081282F30E08C81482F4F73C901880FE6
S11337D0991F820F931F8F599B4F242F2F73FC0126
S11337E03081307C232BFC01208320E232E08E8167
S11337F09F81A901481B590BCA0199230CF4039614
S11338009595879595958795282F8A819B81FC01AD
S1133810218320E639E088859985A901481B590B45
S1133820CA0199230CF403969595879595958795E8
S1133830282F8A819B81FC0122838A819B81FC0140
S113384090818BEA989F812D112486958695869583
S11338508983898110DF982F81E08927882311F0DB
S113386089818ADE8A819B81FC018081282F30E056
S1133870C901880F991F820F931F8F599B4FFC0119
S113388020812064FC0120838A819B81FC0180814A
S113389029960FB6F894DEBF0FBECDBFDF91CF914E
S11338A008956F927F928F929F92AF92BF92CF9220
S11338B0DF92EF92FF920F931F93CF93DF9300D089
S11338C01F92CDB7DEB79A8389837C836B838B8108
S11338D09C81803292400CF05CC08B819C81992346
S11338E014F41C821B828B819C81853B910524F0FE
S11338F084EB90E09C838B8389819A81FC01828193
S1133900082E000C990B28E532E0A901481B590B3D
S1133910CA01880F991F880F991F092E000CAA0B42
S1133920BB0B29813A81F9012181022E000C330B52
S113393048E850E0BA01621B730B9B01220F331F4E
S1133940220F331F032E000C440B550B6B817C811B
S11339503B01770F880899086B2F6F936A2F6F9339
S1133960692F6F938F9359016A0114EBE12EF12CA7
S113397000E010E020E030E0A901C401B3010E949E
S113398053250F900F900F900F90DC01CB019C8377
S11339908B832B813C8189819A81B90114D00000E9
S11339A00F900F900F900F90DF91CF911F910F9177
S11339B0FF90EF90DF90CF90BF90AF909F908F904B
S11339C07F906F900895CF93DF9300D000D0CDB750
S11339D0DEB79C838B837E836D838B819C81FC010A
S11339E0808189838981803308F099C08B819C818F
S11339F0FC018181082E000C990B28E830E0A90114
S1133A00481B590BCA019C01220F331F220F331F7D
S1133A108D819E8182179307A4F48B819C81FC0184
S1133A208181082E000C990B28E830E0A901481B7D
S1133A30590BCA01880F991F880F991F9E838D8384
S1133A402AC08B819C81FC018281082E000C990B79
S1133A5028E532E0A901481B590BCA019C01220F39
S1133A60331F220F331F8D819E81281739079CF441
S1133A708B819C81FC018281082E000C990B28E526
S1133A8032E0A901481B590BCA01880F991F880FFE
S1133A90991F9E838D838D819E8102979E838D8342
S1133AA08D819E81092E000CAA0BBB0B880F991FD8
S1133AB0AA1FBB1F880F991FAA1FBB1F880F991F1E
S1133AC0AA1FBB1F880F991FAA1FBB1FBB231CF46F
S1133AD00796A11DB11D689412F8B595A795979501
S1133AE087951694D1F79E838D838FE590E0FC0132
S1133AF080818A83F8948981282F30E04D815E810A
S1133B00C901880F991F820F931F8E599B4FFC0187
S1133B10518340838FE590E02A81FC0120830000DB
S1133B2026960FB6F894DEBF0FBECDBFDF91CF91BE
S1133B300895CF93DF93CDB7DEB72E970FB6F894E1
S1133B40DEBF0FBECDBF9E878D878D859E85092ED6
S1133B50000CAA0BBB0BBC01CD01E4D1DC01CB01F1
S1133B609C01AD0160E070E080E894E440D1DC01A8
S1133B70CB0120E030E040E85FE3BC01CD01D2D0CE
S1133B80DC01CB0120E030E44CE156E4BC01CD0182
S1133B909AD2DC01CB01BC01CD0155D2DC01CB01B1
S1133BA089839A83AB83BC8329E537E44CEB53E3E5
S1133BB069817A818B819C8186D2DC01CB01298148
S1133BC03A814B815C81BC01CD017DD2DC01CB010A
S1133BD023E73FE745E759E3BC01CD01A4D0DC016D
S1133BE0CB0129813A814B815C81BC01CD016BD22F
S1133BF0DC01CB012BEE3FEF43E95AE3BC01CD01DD
S1133C0092D0DC01CB019C01AD0160E070E080E862
S1133C109FE3EDD0DC01CB018D839E83AF83B88716
S1133C2023E333E948E853E46D817E818F819885ED
S1133C3079D0DC01CB0189879A87AB87BC878985DA
S1133C409A85AB85BC85BC01CD012E960FB6F89440
S1133C50DEBF0FBECDBFDF91CF910895CF93DF9329
S1133C60CDB7DEB781E44DD564DFDC01CB01BC0107
S1133C70CD0125D1DC01CB019093C9038093C80306
S1133C8040E060E08BE494E00E946109DC01CB0138
S1133C90BC01CD0114D1DC01CB019093CB03809303
S1133CA0CA0360E08BE494E00E94EE0ADC01CB01DD
S1133CB0BC01CD0104D1DC01CB019093CD038093F1
S1133CC0CC030000DF91CF910895CF93DF93CDB75C
S1133CD0DEB780910A02882309F12091060230910F
S1133CE007028091080290910902281B390B8091E8
S1133CF0CC039091CD038217930744F41092CE0322
S1133D0064EB70E08EE594E0CCDD08C081E0809344
S1133D10CE0360E070E08EE594E0C3DD0000DF9147
S1133D20CF9108955058BB27AA270ED04DC13ED13C
S1133D3030F043D120F031F49F3F11F41EF433C12D
S1133D400EF4E095E7FB29C1E92F4FD180F3BA17B0
S1133D50620773078407950718F071F49EF567C12D
S1133D600EF4E0950B2EBA2FA02D0B01B901900192
S1133D700C01CA01A0011124FF27591B99F0593FD6
S1133D8050F4503E68F11A16F040A22F232F342F1E
S1133D904427585FF3CF469537952795A795F0406C
S1133DA05395C9F77EF41F16BA0B620B730B840B81
S1133DB0BAF09150A1F0FF0FBB1F661F771F881F39
S1133DC0C2F70EC0BA0F621F731F841F48F4879591
S1133DD077956795B795F7959E3F08F0B3CF939580
S1133DE0880F08F09927EE0F9795879508950CD0C2
S1133DF0EBC0E3D040F0DAD030F021F45F3F19F0AB
S1133E00CCC0511115C1CFC0F0D098F39923C9F398
S1133E105523B1F3951B550BBB27AA2762177307CC
S1133E20840738F09F5F5F4F220F331F441FAA1F80
S1133E30A9F333D00E2E3AF0E0E830D09150504040
S1133E40E695001CCAF729D0FE2F27D0660F771FEE
S1133E50881FBB1F261737074807AB07B0E809F0D0
S1133E60BB0B802DBF01FF2793585F4F2AF09E3F65
S1133E70510568F092C0DCC05F3FECF3983EDCF380
S1133E80869577956795B795F7959F5FC9F7880FDE
S1133E90911D9695879597F90895E1E0660F771F30
S1133EA0881FBB1F621773078407BA0720F0621BC1
S1133EB0730B840BBA0BEE1F88F7E095089504D0BA
S1133EC06894B111B5C0089598D088F09F5790F0C8
S1133ED0B92F9927B751A0F0D1F0660F771F881F2B
S1133EE0991F1AF0BA95C9F712C0B13081F09FD06A
S1133EF0B1E008959CC0672F782F8827B85F39F008
S1133F00B93FCCF3869577956795B395D9F73EF489
S1133F1090958095709561957F4F8F4F9F4F089531
S1133F20E89409C097FB3EF490958095709561954F
S1133F307F4F8F4F9F4F9923A9F0F92F96E9BB2705
S1133F409395F695879577956795B795F111F8CF81
S1133F50FAF4BB0F11F460FF1BC06F5F7F4F8F4FEC
S1133F609F4F16C0882311F096E911C0772321F0E2
S1133F709EE8872F762F05C0662371F096E8862F7A
S1133F8070E060E02AF09A95660F771F881FDAF7D1
S1133F90880F9695879597F9089597F99F6780E814
S1133FA070E060E008959FEF80EC089500240A9487
S1133FB01616170618060906089500240A94121600
S1133FC01306140605060895092E0394000C11F433
S1133FD0882352F0BB0F40F4BF2B11F460FF04C0E0
S1133FE06F5F7F4F8F4F9F4F089557FD9058440F39
S1133FF0551F59F05F3F71F04795880F97FB991F44
S113400061F09F3F79F08795089512161306140600
S1134010551FF2CF4695F1DF08C01616170618068D
S1134020991FF1CF86957105610508940895E89468
S1134030BB2766277727CB0197F908950EF0A6C012
S1134040B2CF6894AACFD9DFC8F39923D1F3C6F3CA
S1134050DF93CF931F930F93FF92C92FDD278823FC
S11340602AF02197660F771F881FDAF720E030E0E7
S113407040E85FEB9FE3883920F0803E30F02196E2
S11340808F7751DEECE1F1E003C04DDEE9E4F1E0CD
S11340908BD08B01BE01EC01FB2E6F577109759516
S11340A0771F880B990B3EDF28E132E741E35FE39A
S11340B016D0AF2D9801AE01FF900F911F91CF91B3
S11340C0DF9142DE81CF0BD07FCF70DF28F075DF28
S11340D018F0952309F061CF66CF1124A9CF85DFAD
S11340E0A0F3959FD1F3950F50E0551F629FF00107
S11340F0729FBB27F00DB11D639FAA27F00DB11D60
S1134100AA1F649F6627B00DA11D661F829F2227E8
S1134110B00DA11D621F739FB00DA11D621F839F6F
S1134120A00D611D221F749F3327A00D611D231F45
S1134130849F600D211D822F762F6A2F11249F5793
S113414050408AF0E1F088234AF0EE0FFF1FBB1FB6
S1134150661F771F881F91505040A9F79E3F510555
S113416070F01BCF65CF5F3FECF3983EDCF3869590
S113417077956795B795F795E7959F5FC1F7FE2B00
S1134180880F911D9695879597F908959F3F31F073
S1134190915020F4879577956795B795880F911D71
S11341A09695879597F90895DF93CF931F930F936F
S11341B0FF92EF92DF927B018C01689405C0DA2EA6
S11341C0EF018DDFFE01E894A5912591359145918C
S11341D05591AEF3EF01B8DDFE019701A801DA9421
S11341E079F7DF90EF90FF900F911F91CF91DF91BE
S11341F008950FD61F920F920FB60F9211240BB68B
S11342000F922F938F939F93EF93FF93E091060563
S1134210F09107058081E0910C05F0910D0582FD78
S113422012C0908180910F058F5F8F7320911005CC
S1134230821751F0E0910F05F0E0EA50FB4F958FA3
S113424080930F0501C08081FF91EF919F918F9121
S11342502F910F900BBE0F900FBE0F901F901895CB
S11342601F920F920FB60F9211240BB60F922F9339
S11342703F934F935F936F937F938F939F93AF93EA
S1134280BF93EF93FF9386EF94E0C5D4FF91EF9132
S1134290BF91AF919F918F917F916F915F914F915A
S11342A03F912F910F900BBE0F900FBE0F901F9058
S11342B0189586EF94E036D421E0892B09F420E0A8
S11342C0822F0895E6EFF4E01382128288EE93E0E1
S11342D0A0E0B0E084839583A683B78381EB93E069
S11342E09183808385EC90E09587848784EC90E0CB
S11342F09787868780EC90E0918B808B81EC90E0AF
S1134300938B828B82EC90E0958B848B86EC90E08F
S1134310978B868B118E128E138E148E08950895AA
S11343208ED1FDDF0E943908CFECD5E20E945E08F1
S11343302097E1F334D4FACFCF92DF92EF92FF9239
S11343400F931F93CF93DF936C017A018B01C0E02D
S1134350D0E0CE15DF0581F0D8016D918D01D60135
S1134360ED91FC910190F081E02DC6011995892B06
S113437011F02196EECF7E01C701DF91CF911F91FD
S11343800F91FF90EF90DF90CF900895DC01ED91B5
S1134390FC910190F081E02D19948F929F92AF923D
S11343A0BF92EF92FF920F931F93CF93DF93CDB7FA
S11343B0DEB7A1970FB6F894DEBF0FBECDBF7C0168
S11343C0FA01CB0119A2223008F42AE08E010F5D14
S11343D01F4F822E912CA12CB12CBF01A501940159
S11343E0B9D4F901CA01015011096A3010F4605DB1
S11343F001C0695CD8016C93232B242B252B69F70E
S1134400B801C7010E94A301A1960FB6F894DEBFBC
S11344100FBECDBFDF91CF911F910F91FF90EF9011
S1134420BF90AF909F908F900895CF92DF92EF92BC
S1134430FF920F931F93CF93DF932115310581F4DE
S1134440DC01ED91FC910190F081E02D642FDF916E
S1134450CF911F910F91FF90EF90DF90CF9019941F
S11344602A303105F1F477FF1BC06A017B01EC01AE
S11344706DE28CDF8C0144275527BA014C195D0984
S11344806E097F092AE0CE0188DF800F911FDF913A
S1134490CF911F910F91FF90EF90DF90CF900895EF
S11344A02AE0DF91CF911F910F91FF90EF90DF9061
S11344B0CF9073CF9A01AB01770F660B770BB5CF13
S11344C01F920F920FB60F9211242F933F938F9345
S11344D09F93AF93BF938091940590919505A0917C
S11344E09605B09197053091930523E0230F2D375E
S11344F020F40196A11DB11D05C026E8230F0296E4
S1134500A11DB11D20939305809394059093950567
S1134510A0939605B093970580919805909199057D
S1134520A0919A05B0919B050196A11DB11D8093A0
S1134530980590939905A0939A05B0939B05BF9114
S1134540AF919F918F913F912F910F900FBE0F903C
S11345501F9018952FB7F894609194057091950564
S113456080919605909197052FBF08953FB7F894D1
S11345708091980590919905A0919A05B0919B0519
S113458026B5A89B05C02F3F19F00196A11DB11DAA
S11345903FBFBA2FA92F982F8827820F911DA11DE5
S11345A0B11DBC01CD0142E0660F771F881F991F22
S11345B04A95D1F708958F929F92AF92BF92CF926E
S11345C0DF92EF92FF926B017C01D0DF4B015C0123
S11345D0C114D104E104F104F1F0ACD3C7DFDC0170
S11345E0CB0188199909AA09BB09883E9340A10502
S11345F0B10570F321E0C21AD108E108F10888EE90
S1134600880E83E0981EA11CB11CC114D104E104DE
S1134610F10421F7DDCFFF90EF90DF90CF90BF90B2
S1134620AF909F908F9008958230910538F0880F55
S1134630991F880F991F05970197F1F708957894AA
S113464084B5826084BD84B5816084BD85B5826093
S113465085BD85B5816085BDEEE6F0E08081816031
S11346608083E1E8F0E01082808182608083808131
S113467081608083E0E8F0E0808181608083E1EB09
S1134680F0E0808184608083E0EBF0E080818160F1
S11346908083E1E9F0E080818260808380818160B1
S11346A08083E0E9F0E0808181608083E1EAF0E0EA
S11346B0808182608083808181608083E0EAF0E091
S11346C0808181608083E1E2F1E080818260808387
S11346D0808181608083E0E2F1E080818160808379
S11346E0EAE7F0E080818460808380818260808357
S11346F08081816080838081806880831092C10082
S11347000895863308F0865390917B00282F2870F3
S1134710977F922B90937B002091230290E4299F12
S1134720900111248770822B80937C0080917A0001
S1134730806480937A0080917A0086FDFCCF80911A
S113474078002091790090E0922B08951F93CF93E5
S1134750DF93182FEB0161E014D1209711F460E08E
S113476004C0CF3FD10531F461E0812FDF91CF91B7
S11347701F9143C1E12FF0E0E254FE4FE4918E2FEC
S113478090E0FC013197E231F10508F09CC08827E4
S1134790E554FF4F8F4F1CC384B5806884BDC7BDEB
S11347A097C084B5806284BDC8BD92C080918000EA
S11347B0806880938000D0938900C093880088C06B
S11347C080918000806280938000D0938B00C0939E
S11347D08A007EC080918000886080938000D0939E
S11347E08D00C0938C0074C08091B0008068809369
S11347F0B000C093B3006CC08091B000806280931D
S1134800B000C093B40064C080919000806880932D
S11348109000D0939900C09398005AC08091900062
S1134820806280939000D0939B00C0939A0050C004
S113483080919000886080939000D0939D00C093F5
S11348409C0046C08091A00080688093A000809165
S1134850A0008F7B8093A000D093A900C093A800F0
S113486037C08091A00080628093A000D093AB00F9
S1134870C093AA002DC08091A00088608093A000FE
S1134880D093AD00C093AC0023C080912001806818
S113489080932001D0932901C093280119C08091ED
S11348A02001806280932001D0932B01C0932A01C0
S11348B00FC080912001886080932001D0932D0146
S11348C0C0932C0105C0C038D1050CF04DCF47CFA3
S11348D0DF91CF911F91089590E0FC013197E2316F
S11348E0F10508F04DC08827E353FF4F8F4F70C286
S11348F0809180008F7703C0809180008F7D8093AA
S11349008000089580918000877FF9CF84B58F77E8
S113491002C084B58F7D84BD08958091B0008F77E7
S113492003C08091B0008F7D8093B0000895809182
S113493090008F7707C0809190008F7D03C0809195
S11349409000877F8093900008958091A0008F77D6
S113495007C08091A0008F7D03C08091A000877F55
S11349608093A0000895809120018F7707C08091E3
S113497020018F7D03C080912001877F80932001D7
S11349800895CF93DF9390E0FC01EC5FFD4F2491F9
S1134990FC01E65BFD4F8491882361F190E0880F70
S11349A0991FFC01EC53FD4FC591D491FC01E655D0
S11349B0FD4FA591B491611109C09FB7F894888106
S11349C0209582238883EC912E230BC0623061F4FE
S11349D09FB7F8948881322F309583238883EC9194
S11349E02E2B2C939FBF06C08FB7F894E8812E2BF3
S11349F028838FBFDF91CF9108951F93CF93DF93C7
S1134A00282F30E0F901E254FE4F8491F901EC5F64
S1134A10FD4FD491F901E65BFD4FC491CC23B9F06D
S1134A20162F811159DFEC2FF0E0EE0FFF1FE65532
S1134A30FD4FA591B4919FB7F894111104C08C91C6
S1134A40D095D82302C0EC91DE2BDC939FBFDF917D
S1134A50CF911F910895CF93DF93282F30E0F90170
S1134A60E254FE4F8491F901EC5FFD4FD491F901BA
S1134A70E65BFD4FC491CC2389F081112DDFEC2F2F
S1134A80F0E0EE0FFF1FE057FD4FA591B491EC91BC
S1134A90ED2381E090E021F480E002C080E090E02A
S1134AA0DF91CF9108954F925F926F927F92AF9270
S1134AB0BF92CF92DF92EF92FF920F931F93CF9307
S1134AC0DF93CDB7DEB729013A019B01AC0124196C
S1134AD03509460957098A899B89AC89BD89BC0176
S1134AE0CD016A197B098C099D0925D1A80197017B
S1134AF024193509460957094FD1CA01B9016A0D6C
S1134B007B1D8C1D9D1DDF91CF911F910F91FF90F7
S1134B10EF90DF90CF90BF90AF907F906F905F90B9
S1134B204F900895FC01918D228D892F90E0805C37
S1134B309F4F821B91098F7399270895FC01918DD2
S1134B40828D981731F0828DE80FF11D858D90E0EC
S1134B5008958FEF9FEF0895FC01918D828D981732
S1134B6061F0828DDF01A80FB11D5D968C91928D4D
S1134B709F5F9F73928F90E008958FEF9FEF08954A
S1134B80FC01538D448D252F30E0842F90E0821B4F
S1134B90930B541710F0CF9608950197089589E563
S1134BA091E2892B39F080E090E0892B19F081DBC8
S1134BB0811125C080E090E0892B41F080E090E0F5
S1134BC0892B21F00E94000081111CC080E090E03C
S1134BD0892B41F080E090E0892B21F00E940000B5
S1134BE0811113C080E090E0892BA1F080E090E077
S1134BF0892B81F00E94000081110AC008950E944F
S1134C000000D8CF0E940000E1CF0E940000EACF4C
S1134C100C9400000895FC01848DDF01A80FB11DE0
S1134C20A35ABF4F2C91848D90E001968F739927DE
S1134C30848FA689B7892C93A089B1898C918370BC
S1134C4080648C93938D848D981306C00288F389B5
S1134C50E02D80818F7D80830895EF92FF920F93E2
S1134C601F93CF93DF93EC0181E0888F9B8D8C8D14
S1134C70981305C0E889F989808185FD25C0F62E41
S1134C800B8D10E00F5F1F4F0F731127E02E8C8DDB
S1134C90E8120BC00FB607FCFACFE889F9898081C6
S1134CA085FFF5CFCE01B7DFF2CF8B8DFE01E80F84
S1134CB0F11DE35AFF4FF0829FB7F8940B8FEA89F6
S1134CC0FB89808180620AC09FB7F894EE89FF89CE
S1134CD06083E889F98980818370806480839FBFC1
S1134CE081E090E0DF91CF911F910F91FF90EF90C1
S1134CF00895CF93DF93EC01888D8823C1F0EA896E
S1134D00FB89808185FD05C0A889B9898C9186FDC0
S1134D100EC00FB607FCF5CF808185FFF2CFA889BE
S1134D20B9898C9185FFEDCFCE0175DFE8CFDF9196
S1134D30CF9108950895DB018F939F9351D0BF9134
S1134D40AF91A29F800D911DA39F900DB29F900DD6
S1134D5011240895A1E21A2EAA1BBB1BFD010DC04C
S1134D60AA1FBB1FEE1FFF1FA217B307E407F50717
S1134D7020F0A21BB30BE40BF50B661F771F881FF3
S1134D80991F1A9469F760957095809590959B0189
S1134D90AC01BD01CF010895052E97FB16F40094D4
S1134DA00FD057FD05D0D6DF07FC02D046F408C06B
S1134DB050954095309521953F4F4F4F5F4F089543
S1134DC090958095709561957F4F8F4F9F4F089573
S1134DD0EE0FFF1F881F8BBF0790F691E02D1994EB
S1134DE009D0A59F900DB49F900DA49F800D911D97
S1134DF011240895A29FB001B39FC001A39F700D19
S1134E00811D1124911DB29F700D811D1124911DCE
S1134E10089581E090E0F89409C0FC01019000201D
S1134E20E9F7809590958E0F9F1F0895F894FFCF12
S1134E3018001600030028000A00013132334134FF
S1134E40353642373839432A3023441D1C1B1A197E
S1134E50181716013C3E43686F7365204F707469E0
S1134E606F6E3C3E00413C48656174004C69676864
S1134E7074733E4200413C46616E0054656D70732C
S1134E803E4200433C57696E646F77004175746F0E
S1134E90204D6F6465206973206F6E2100413C547E
S1134EA02E4F6666003C3E46616E20436F6E747200
S1134EB06F6C733C3E00413C542E4175746F00533B
S1134EC0706565643E420053706565643A00250070
S1134ED0413C4465632E00496E632E3E42003C3ED5
S1134EE054656D7065726174757265733C3E004102
S1134EF03C53657400436865636B3E42003C2D3E41
S1134F0043686F736520526F6F6D3C2D3E00413CCA
S1134F1044696E696E67004B6964733E4200536571
S1134F20742074656D703A0044696E696E673A2046
S1134F30004B6964733A2020200048756D692E3E49
S1134F404200413C436C6F73652077696E646F77F0
S1134F5000413C4F70656E2077696E646F77004244
S1134F603C542E4175746F0048756D692E3E4300A4
S1134F7048756D69646974793A00413C53657420DD
S1134F80416C6C6F77656400416C2E48756D696483
S1134F906974793A00556E6B6E6F776E2053746145
S1134FA06765210054727920225265736574222149
S1134FB0212100060002000300040000000000E4B8
S1134FC00EFA0E110F0000000063179C21B014BFED
S1134FD01400000000F9209C21B014BF140000004C
S1134FE0002D269C21C02579269225AC259E2500DE
S9030000FC
