:100000005EC100008DC100008BC1000089C10000ED
:1000100087C1000085C1000083C1000081C10000CC
:100020007FC100007DC100007BC1000079C10000DC
:1000300077C1000075C1000073C1000071C10000EC
:100040006FC100000C9412186BC1000069C1000060
:1000500067C1000065C1000063C100000C94881DE9
:100060005FC100000C94221C0C94581C59C1000064
:1000700057C1000055C1000053C1000051C100002C
:100080000C9449184DC100004BC1000049C100004B
:1000900047C1000045C1000043C1000041C100004C
:1000A0003FC100003DC100000C94801839C1000020
:1000B00037C1000035C1000033C100000C94B718EF
:1000C0002FC100002DC100002BC1000029C100007C
:1000D00027C1000025C1000023C1000021C100008C
:1000E0001FC10000E301050227023E0260029202E6
:1000F000B402D60208033A0371039303C503EC0369
:100100009104A404E004F7041B055205730594054B
:10011000AF055E06CA05E7051A062B0608000000B3
:10012000BE922449123EABAAAA2ABECDCCCC4C3EEC
:1001300000000080BEABAAAAAA3E00000000BF00DB
:100140000000803F0000000000084178D3BB4387D7
:10015000D1133D190E3CC3BD4282AD2B3E68EC82EB
:1001600076BED98FE1A93E4C80EFFFBE01C4FF7F70
:100170003F0000000000E81EEB1EDA1EDE1EE41E3B
:10018000221FEF1EF31EF91EFD1E011F071F0B1F6E
:100190000F1F221F151F191F1D1F00000A0B020928
:1001A0000C0D0E0807030401000000000000000011
:1001B000000000000000000000000000000000003F
:1001C00000000000000012111000000000000000FC
:1001D000000000000000000000000000000000001F
:1001E0000102102020080810204010204080020149
:1001F000020108040201010204081020408080402E
:10020000201008040201800402018040201008042C
:1002100002010804020101020408102040800102CA
:100220000408102040800505050507050808080892
:10023000020202020A0A080804040404010101017E
:100240000101010103030303030303030407070779
:100250000C0C0C0C0C0C0C0C02020202060606061E
:10026000060606060B0B0B0B0B0B0B0B00002000FE
:100270002300260029002C002F003200000100007E
:1002800003010601090100002200250028002B00BF
:100290002E003100340002010000050108010B01AD
:1002A00000002100240027002A002D003000330028
:1002B00001010000040107010A01F0068A1C112453
:1002C0001FBECFEFD1E2DEBFCDBF00E00CBF13E019
:1002D000A0E0B2E0EEEEF1E400E00BBF02C0079058
:1002E0000D92A63BB107D9F725E0A6EBB3E001C01C
:1002F0001D92AE38B207E1F711E0CFE5D1E000E0A2
:1003000006C021970109802FFE010E94E020CD3513
:10031000D10780E00807A9F70E94B81C0C94F520CB
:100320006FCE0F931F93CF93DF9300D01F92CDB763
:10033000DEB79A8389837C836B838B819C81892B35
:1003400019F480E090E015C089819A81FC018081D8
:1003500091810296FC01008111818B819C810E9418
:10036000EC20AC012B813C8189819A81B901F80193
:1003700019950F900F900F900F90DF91CF911F91D3
:100380000F910895CF93DF9300D01F92CDB7DEB7C2
:100390009A8389837C836B8389819A81092E000CDF
:1003A000AA0BBB0B40E050E02DE030E0841B950B26
:1003B0002817390708F442C2FC018827EE58FF4F7E
:1003C0008F4F0C94E02040E060E084EC93E00E94CA
:1003D000241563E272E084EC93E0A3DF41E060E087
:1003E00084EC93E00E94241564E372E084EC93E0D3
:1003F00098DF41E068E084EC93E00E9424156BE311
:1004000072E084EC93E08DDF30C240E060E084EC89
:1004100093E00E94241564E472E084EC93E081DFB1
:1004200040E069E084EC93E00E9424156AE472E005
:1004300084EC93E076DF41E060E084EC93E00E949E
:10044000241562E572E084EC93E06BDF0EC240E0BD
:1004500060E084EC93E00E9424156BE572E084EC8C
:1004600093E05FDF41E060E084EC93E00E942415BC
:100470006CE672E084EC93E054DFF7C140E060E0AA
:1004800084EC93E00E94241564E772E084EC93E02E
:1004900048DF41E060E084EC93E00E94241565E8C9
:1004A00072E084EC93E03DDF41E069E084EC93E0AE
:1004B0000E9424156EE872E084EC93E032DFD5C12F
:1004C00040E060E084EC93E00E94241566E972E06D
:1004D00084EC93E026DF80910002909101024AE0D3
:1004E00050E0BC0184EC93E00E94821D6DE972E053
:1004F00084EC93E016DF41E060E084EC93E00E943E
:1005000024156FE972E084EC93E00BDF41E06AE0D0
:1005100084EC93E00E94241566EA72E084EC93E098
:1005200000DFA3C140E060E084EC93E00E9424156A
:100530006DEA72E084EC93E0F4DE41E060E084EC8C
:1005400093E00E9424156EEB72E084EC93E0E9DE08
:1005500041E069E084EC93E00E94241564EC72E0D1
:1005600084EC93E0DEDE81C140E060E084EC93E067
:100570000E9424156CEC72E084EC93E0D2DE41E042
:1005800060E084EC93E00E9424156DED72E084EC51
:1005900093E0C7DE41E06AE084EC93E00E9424151A
:1005A00066EE72E084EC93E0BCDE5FC140E060E0A8
:1005B00084EC93E00E9424156DEE72E084EC93E0ED
:1005C000B0DE80910302909104024AE050E0BC0149
:1005D00084EC93E00E94821D6FED84EC93E00E9416
:1005E000961541E060E084EC93E00E9424156FE9E9
:1005F00072E084EC93E095DE41E06AE084EC93E005
:100600000E94241566EA72E084EC93E08ADE2DC134
:1006100040E060E084EC93E00E9424156DEE72E00F
:1006200084EC93E07EDE80910502909106024AE020
:1006300050E0BC0184EC93E00E94821D6FED84ECDD
:1006400093E00E94961541E060E084EC93E00E9404
:1006500024156FE972E084EC93E063DE41E06AE028
:1006600084EC93E00E94241566EA72E084EC93E047
:1006700058DEFBC040E060E084EC93E00E9424156B
:1006800067EF72E084EC93E04CDE8091BD039091C3
:10069000BE034AE050E0BC0184EC93E00E94821D5E
:1006A0006FED84EC93E00E94961541E060E084ECED
:1006B00093E00E94241560E073E084EC93E031DE67
:1006C0008091BF039091C0034AE050E0BC0184ECEC
:1006D00093E00E94821D6FED84EC93E00E949615DA
:1006E000C4C040E060E084EC93E00E9424156BE518
:1006F00072E084EC93E015DE41E060E084EC93E08E
:100700000E9424156CE672E084EC93E00ADE41E07E
:1007100069E084EC93E00E94241569E073E084ECC6
:1007200093E0FFDDA2C040E060E084EC93E00E9433
:1007300024158091C303882331F061E173E084ECD8
:1007400093E0EFDD0BC09091C30381E089278823FC
:1007500029F060E273E084EC93E0E3DD41E060E0E7
:1007600084EC93E00E9424156EE273E084EC93E045
:10077000D8DD41E069E084EC93E00E94241567E352
:1007800073E084EC93E0CDDD70C040E060E084EC89
:1007900093E00E9424156FE373E084EC93E0C1DDE5
:1007A0008091C1039091C2034AE050E0BC0184EC07
:1007B00093E00E94821D6DE972E084EC93E0B1DD6C
:1007C00041E060E084EC93E00E94241569E473E06A
:1007D00084EC93E0A6DD49C040E060E084EC93E067
:1007E0000E94241567E573E084EC93E09ADD809124
:1007F0000702909108024AE050E0BC0184EC93E0CB
:100800000E94821D6DE972E084EC93E08ADD41E094
:1008100060E084EC93E00E9424156FE972E084ECC0
:1008200093E07FDD41E06AE084EC93E00E942415D0
:1008300066EA72E084EC93E074DD17C040E060E0AB
:1008400084EC93E00E94241564E673E084EC93E06A
:1008500068DD41E060E084EC93E00E94241563E7EA
:1008600073E084EC93E05DDD000000000F900F90DA
:100870000F900F90DF91CF910895CF93DF931F9248
:10088000CDB7DEB789838981882309F430C2898195
:10089000833269F484EC93E00E940E151092BB033E
:1008A0001092BA031092B9031092B80320C2898142
:1008B0008A3269F484EC93E00E940E158091BA03A9
:1008C0009091BB039093B9038093B80310C28981C0
:1008D000813451F08981823439F08981833421F067
:1008E0008981843409F003C284EC93E00E940E15E0
:1008F0008091B8039091B903092E000CAA0BBB0B91
:1009000040E050E02DE030E0841B950B28173907BC
:1009100008F4D2C1FC018827E058FF4F8F4F0C9498
:10092000E0208981813439F481E090E09093B9032B
:100930008093B803C5C18981823409F0C1C1109286
:10094000B9031092B803BCC189818134C1F480918C
:100950000202882339F082E090E09093B9038093FB
:10096000B80306C083E090E09093B9038093B80386
:1009700081E090E09093BB038093BA03A3C1898187
:10098000823469F485E090E09093B9038093B803D2
:1009900081E090E09093BB038093BA0393C1898177
:1009A000833409F08FC18AE090E09093B90380937B
:1009B000B80381E090E09093BB038093BA0382C1B7
:1009C0008981813409F080C11092020283E090E0B5
:1009D0009093B9038093B80381E090E09093BB03B8
:1009E0008093BA0310920102109200026DC18981B6
:1009F000813481F481E08093020282E090E0909360
:100A0000B9038093B80381E090E09093BB03809397
:100A1000BA035CC18981823409F058C184E090E056
:100A20009093B9038093B80383E090E09093BB0365
:100A30008093BA034BC189818134A1F48091000273
:100A4000909101020597909301028093000280919A
:100A50000002909101029923F4F410920102109285
:100A6000000219C089818234B1F480910002909112
:100A7000010205969093010280930002809100028A
:100A8000909101028536910534F084E690E09093D0
:100A900001028093000283E090E09093BB03809377
:100AA000BA0325C18981813469F486E090E090938E
:100AB000B9038093B80385E090E09093BB038093E3
:100AC000BA0306C18981823409F002C189E090E04D
:100AD0009093B9038093B80385E090E09093BB03B3
:100AE0008093BA03F5C08981813469F487E090E08E
:100AF0009093B9038093B80386E090E09093BB0392
:100B00008093BA03E7C08981823409F0E3C088E0AA
:100B100090E09093B9038093B80386E090E09093BF
:100B2000BB038093BA03D6C08981813451F480918C
:100B300003029091040201979093040280930302B0
:100B4000CBC08981823409F0C7C0809103029091A3
:100B5000040201969093040280930302BDC0898130
:100B6000813451F48091050290910602019790938F
:100B7000060280930502B2C08981823409F0AEC0BA
:100B8000809105029091060201969093060280934F
:100B90000502A4C08981813449F4109209028BE0D6
:100BA00090E09093B9038093B8039AC0898182340E
:100BB00009F096C08CE090E09093B9038093B8035D
:100BC0008AE090E09093BB038093BA0389C0898147
:100BD000813491F48091C303882319F01092C303E8
:100BE00081C09091C30381E08927882309F47AC0EA
:100BF00081E08093C30376C08981823451F48AE016
:100C000090E09093B9038093B80381E08093090248
:100C100069C08981833409F065C08CE090E09093CD
:100C2000B9038093B8038BE090E09093BB0380936B
:100C3000BA0358C08981813409F056C08DE090E034
:100C40009093B9038093B8038CE090E09093BB033A
:100C50008093BA0349C089818134A1F4809107024D
:100C60009091080205979093080280930702809163
:100C70000702909108029923CCF510920802109275
:100C8000070234C08981823489F5809107029091EE
:100C9000080205969093080280930702809107024C
:100CA00090910802853691050CF184E690E09093CE
:100CB0000802809307021AC0000019C0000017C084
:100CC000000015C0000013C0000011C000000FC0DC
:100CD00000000DC000000BC0000009C0000007C0EC
:100CE000000005C0000003C0000001C0000020910A
:100CF000B6033091B7038091B8039091B903B9015D
:100D000041DB00000F90DF91CF910895CF93DF93E7
:100D1000CDB7DEB720E042E060E184EC93E00E94D2
:100D2000B51367E380E494E0D5D00000DF91CF9164
:100D30000895CF93DF93CDB7DEB70E9483198CED72
:100D400093E057D78093BC038091BC0396DD10924B
:100D5000BC030000DF91CF910895CF92EF920F93E3
:100D6000CF93DF9300D01F92CDB7DEB79A838983EC
:100D70007C836B8389819A81019739F58B819C8172
:100D8000019619F50F2EFDE0CF2EF02D0F2EFCE071
:100D9000EF2EF02D0BE02AE049E068E084EC93E0D0
:100DA0000E9400136894EE24E2F804E02EE132E0A1
:100DB0004AE152E06AE072E08CED93E076D626E0FC
:100DC0004BE062E080E494E035D000000F900F909B
:100DD0000F900F90DF91CF910F91EF90CF900895EA
:100DE000CF93DF93CDB7DEB76FEF7FEF81E090E079
:100DF000B4DFDF91CF910895CF93DF931F921F92BD
:100E0000CDB7DEB79A838983F89400000F900F90D6
:100E1000DF91CF910895CF93DF931F921F92CDB7AB
:100E2000DEB79A838983789400000F900F90DF914A
:100E3000CF910895CF93DF93CDB7DEB72B970FB641
:100E4000F894DEBF0FBECDBF98878F8369874A872E
:100E50002B878F8198852985FC0125838F81988533
:100E60002A85FC0126838985882F90E080529E4F39
:100E70009A83898389819A81FC0184918B838F81F4
:100E800098852B81FC0127838985882F90E08A5DD6
:100E90009D4F9D838C838C819D81FC0184918E83E9
:100EA0008F8198852E81FC0120872F81388580E8ED
:100EB0009EE3A0E0B0E0F90185879687A787B08B15
:100EC00000002B960FB6F894DEBF0FBECDBFDF91AA
:100ED000CF910895CF93DF9300D0CDB7DEB79A833B
:100EE00089836B8389819A81FC01858162E00E94FC
:100EF000231F0E94D21DDC01CB01805D9740A10918
:100F0000B10929813A81F90181879287A387B48742
:100F100089819A812B81FC01228B00000F900F9018
:100F20000F90DF91CF910895CF93DF93CDB7DEB7C8
:100F300028970FB6F894DEBF0FBECDBF9E838D837A
:100F40006F83488780E090E0A0ECBFE789839A83B5
:100F5000AB83BC838D819E8168851DD2882309F473
:100F600034C18D819E81FC018681882F90E08C3078
:100F7000910509F472C08D3091051CF40B9731F086
:100F800024C14597029708F020C1C7C08D819E817A
:100F9000FC018281882F90E0A0E0B0E0BC01CD018F
:100FA0000E94B81ADC01CB0189839A83AB83BC838E
:100FB0008D819E81FC018381882384F429813A817B
:100FC0004B815C8160E070E080E89FEB0E94BA1981
:100FD000DC01CB0189839A83AB83BC838D819E81A5
:100FE000FC018381882F90E08F709927092E000CD7
:100FF000AA0BBB0BBC01CD010E94BA1ADC01CB01CC
:101000002DEC3CEC4CEC5DE3BC01CD010E948B1B54
:10101000DC01CB019C01AD0169817A818B819C81CE
:101020000E94BB19DC01CB0189839A83AB83BC830B
:101030008F81882309F4C4C089819A81AB81BC81E6
:101040002D813E81AC01BD01C901CED0DC01CB01B7
:1010500089839A83AB83BC83B3C08D819E81FC015D
:101060008281882F90E0A0E0B0E0BC01CD010E9419
:10107000B81ADC01CB0189839A83AB83BC838D8151
:101080009E81FC018381882F90E08F709927092E23
:10109000000CAA0BBB0BBC01CD010E94BA1ADC01EB
:1010A000CB012DEC3CEC4CEC5DE3BC01CD010E948E
:1010B0008B1BDC01CB019C01AD0169817A818B81A5
:1010C0009C810E94BB19DC01CB0189839A83AB838D
:1010D000BC838D819E81FC01828188234CF48981AF
:1010E0009A81AB81BC81B05889839A83AB83BC83DE
:1010F0008F81882309F466C089819A81AB81BC8184
:101100002D813E81AC01BD01C9016ED0DC01CB0156
:1011100089839A83AB83BC8355C08D819E81FC01FA
:101120008281882F90E08F779927382F22278D8111
:101130009E81FC018381882F90E0822B932BCC0130
:10114000A0E0B0E0BC01CD010E94B81ADC01CB01E7
:1011500089839A83AB83BC832DEC3CEC4CEC5DE340
:1011600069817A818B819C810E948B1BDC01CB0180
:1011700089839A83AB83BC838D819E81FC018281AC
:1011800088234CF489819A81AB81BC81B0588983D2
:101190009A83AB83BC838F818823B1F089819A8144
:1011A000AB81BC812D813E81AC01BD01C9011CD048
:1011B000DC01CB0189839A83AB83BC83000004C02C
:1011C000000003C0000001C0000089819A81AB814A
:1011D000BC81BC01CD0128960FB6F894DEBF0FBECE
:1011E000CDBFDF91CF910895CF93DF9300D000D092
:1011F000CDB7DEB79A8389834B835C836D837E830F
:1012000026E636E646EE5FE36B817C818D819E812A
:101210000E948B1BDC01CB0120E030E040E052E477
:10122000BC01CD010E94BB19DC01CB01BC01CD0189
:1012300026960FB6F894DEBF0FBECDBFDF91CF91DB
:101240000895CF92DF92EF92FF92CF93DF93CDB7C5
:10125000DEB727970FB6F894DEBF0FBECDBF9E83D3
:101260008D836F8380E090E0A0ECBFE789839A8351
:10127000AB83BC838D819E816F818DD0882309F4DF
:1012800077C08D819E81FC018681882F90E08B3014
:1012900091050CF46DC08D3091052CF045970297A7
:1012A00008F066C037C08D819E81FC018081882F47
:1012B00090E0092E000CAA0BBB0BBC01CD010E94D3
:1012C000BA1A6B017C018D819E81FC018181882F7E
:1012D00090E0092E000CAA0BBB0BBC01CD010E94B3
:1012E000BA1ADC01CB012DEC3CEC4CEC5DE3BC010B
:1012F000CD010E948B1BDC01CB019C01AD01C7011C
:10130000B6010E94BB19DC01CB0189839A83AB83B0
:10131000BC832EC08D819E81FC018081882F90E04E
:10132000382F22278D819E81FC018181882F90E0BA
:10133000822B932BCC01A0E0B0E0BC01CD010E9438
:10134000B81ADC01CB0189839A83AB83BC832DEC73
:101350003CEC4CEC5DE369817A818B819C810E943D
:101360008B1BDC01CB0189839A83AB83BC83000098
:1013700089819A81AB81BC81BC01CD0127960FB6D2
:10138000F894DEBF0FBECDBFDF91CF91FF90EF90FD
:10139000DF90CF900895AF92BF92CF92DF92FF92ED
:1013A0000F931F93CF93DF93CDB7DEB7C455D140D2
:1013B0000FB6F894DEBF0FBECDBF9E012E5A3E4F32
:1013C000F90191838083CE018C5A9E4FFC0160838A
:1013D0000E94D21DDC01CB018D839E83AF83B88731
:1013E000CE018C5A9E4FFC01908181E08927882391
:1013F00029F1CE018E5A9E4FFC0180819181FC0122
:1014000081859285A385B4852D813E814F81588544
:1014100059016A01A81AB90ACA0ADB0AD601C5012C
:10142000803D9740A105B10548F4CE018E5A9E4FEC
:10143000FC0180819181FC01F1885FC2CE018E5A4E
:101440009E4FFC01208131818D819E81AF81B885C5
:10145000F90181879287A387B487CE018E5A9E4F68
:10146000FC0180819181FC011482CE018E5A9E4F35
:10147000FC0180819181FC012481CE018E5A9E4F16
:10148000FC0180819181FC012383CE018E5A9E4F05
:10149000FC0180819181FC012381CE018E5A9E4FF7
:1014A000FC0180819181FC012283CE018E5A9E4FE6
:1014B000FC0180819181FC012281CE018E5A9E4FD8
:1014C000FC0180819181FC012183CE018E5A9E4FC7
:1014D000FC0180819181FC012181CE018E5A9E4FB9
:1014E000FC0180819181FC012083CE018E5A9E4FA8
:1014F000FC0180819181FC01858162E00E94231FB3
:1015000061E070E080E090E00E94031ECE018E5A00
:101510009E4FFC0180819181FC01858161E00E94E8
:10152000231FCE018E5A9E4FFC0180819181FC01C8
:10153000858160E00E945F1FCE018E5A9E4FFC01A4
:1015400080819181FC018681882F90E045970297E8
:1015500028F48CE494E00E943C1E07C064E170E033
:1015600080E090E00E94031E0000CE018E5A9E4F44
:10157000FC0180819181FC01858162E00E94231F32
:10158000CE018E5A9E4FFC0180819181FC0182899F
:10159000882F90E00E943C1ECE018F5A9E4F2CDC7B
:1015A000CE018E5A9E4FFC018081918160E0B7D1BF
:1015B000DC01CB0121E08F3F9F4FAF4FBF4F09F0C0
:1015C00020E0222399F0CE018E5A9E4FFC018081AB
:1015D0009181FC01118ACE018E5A9E4FFC018081BF
:1015E0009181FC01F18800E010E072C0CE018E5ABA
:1015F0009E4FFC018081918161E091D1DC01CB01A2
:1016000021E08F3F9F4FAF4FBF4F09F020E02223D3
:1016100099F0CE018E5A9E4FFC0180819181FC0190
:10162000118ACE018E5A9E4FFC0180819181FC016E
:10163000F18800E010E04CC01A82198289819A81F9
:10164000803591050CF042C0CE018E5A9E4FFC01B0
:101650008081918160E063D1DC01CB0129813A81F5
:10166000220F331F220F331FAE014F5F5F4F240F36
:10167000351F205F3F4FF90180839183A283B3839D
:1016800089819A818C010F5F1F4FCE018E5A9E4F28
:10169000FC018081918161E042D1DC01CB019801A4
:1016A000220F331F220F331FAE014F5F5F4F240FF6
:1016B000351F205F3F4FF90180839183A283B3835D
:1016C00089819A8102969A838983B8CF01E010E0DC
:1016D000CE018F5A9E4F9FDB0130110509F00DC1DD
:1016E00000001C821B828B819C8188970CF0A7C014
:1016F0008B819C81880F991F880F991F880F991FD4
:101700009E012F5F3F4F820F931F4096FC01808107
:101710009181A281B38189879A87AB87BC878B81AE
:101720009C81880F991F0196880F991F880F991F18
:101730009E012F5F3F4F820F931F4096FC018081D7
:101740009181A281B3818D879E87AF87B88B898570
:101750009A85AB85BC858F3F9F4FAF4FBF4F49F0F8
:101760008D859E85AF85B8898F3F9F4FAF4FBF4F07
:1017700089F4CE018E5A9E4FFC0180819181FC013B
:10178000118ACE018E5A9E4FFC0180819181FC010D
:10179000F188B3C08B819C8199230CF407969595B1
:1017A000879595958795959587959E012E5A3E4FDD
:1017B000F90120813181280F391FF9012081422F41
:1017C000440F9E012E5A3E4FF90120813181820F34
:1017D000931FFC0140832D853E854F85588989855F
:1017E0009A85AB85BC8582179307A407B50708F5D2
:1017F0008B819C8199230CF40796959587959595F7
:101800008795959587959E012E5A3E4FF901208127
:101810003181280F391FF9012081422F41609E013B
:101820002E5A3E4FF90120813181820F931FFC0116
:1018300040838B819C8101969C838B8354CFCE0106
:101840008E5A9E4FFC0180819181FC018481282F5A
:1018500030E0CE018E5A9E4FFC0180819181FC01C7
:101860008081482F50E0CE018E5A9E4FFC0180812E
:101870009181FC018181882F90E0480F591FCE0192
:101880008E5A9E4FFC0180819181FC018281882FBC
:1018900090E0480F591FCE018E5A9E4FFC01808167
:1018A0009181FC018381882F90E0840F951F9927F7
:1018B0002817390791F4CE018E5A9E4FFC01808182
:1018C000918121E0FC01218BCE018E5A9E4FFC01BB
:1018D00080819181FC01F18810C0CE018E5A9E4F0B
:1018E000FC0180819181FC01118ACE018E5A9E4FAC
:1018F000FC0180819181FC01F1888F2DCC5ADE4F53
:101900000FB6F894DEBF0FBECDBFDF91CF911F9110
:101910000F91FF90DF90CF90BF90AF900895CF933D
:10192000DF93CDB7DEB72A970FB6F894DEBF0FBEB0
:10193000CDBF998788876A871A8219828A8588230A
:1019400029F088859985FC01878101C080E08B831F
:1019500088859985FC018085882F90E0880F991FE4
:1019600084599D4F9D838C838C819D81FC012591A1
:101970003491CF013F832E839D838C838E819F8101
:10198000FC01208188859985FC018781282381E0DD
:101990009B81291709F080E08823F9F089819A81D9
:1019A0009C012F5F3F4F3A8329839C0140E050E028
:1019B00088859985FC0185859685A785B08961E034
:1019C000281739074A075B0708F460E0662309F423
:1019D000BFCF8FEF9FEFDC0105C089819A81CC01D9
:1019E000A0E0B0E0BC01CD012A960FB6F894DEBFAE
:1019F0000FBECDBFDF91CF910895CF93DF931F929C
:101A00001F92CDB7DEB79A83898389819A81FC01C1
:101A1000108289819A81FC01138289819A81FC015B
:101A2000148200000F900F90DF91CF910895CF9313
:101A3000DF9300D01F92CDB7DEB79A8389836B8383
:101A40004C836C818B810E94231F00000F900F90AC
:101A50000F900F90DF91CF910895CF93DF9300D037
:101A60001F92CDB7DEB79A8389836B834C838C81B9
:101A7000682F8B810E945F1F00000F900F900F90C6
:101A80000F90DF91CF910895CF93DF9300D0CDB722
:101A9000DEB79A8389836B838B810E948D1F0F90A1
:101AA0000F900F90DF91CF910895EF92FF920F93D7
:101AB0001F93CF93DF93CDB7DEB72A970FB6F89475
:101AC000DEBF0FBECDBF9A8389837C836B835E8329
:101AD0004D8338872F830987EA8689819A81029608
:101AE0008CDF26E833E089819A81FC0131832083F1
:101AF00089819A814B9609E010E07C010F3FFFEF4E
:101B00001F0741F0C70179DF85E0E80EF11C0150A5
:101B10001109F4CF89819A81895A9F4F2D813E8185
:101B2000FC013183208389819A81875A9F4F2F81BD
:101B30003885FC013183208389819A81855A9F4FA2
:101B40002985FC01208389819A81845A9F4F2A85A7
:101B5000FC0120832B813C8189819A81B9012ED09F
:101B600089819A816AE070E055D489819A8164EF15
:101B700071E079D489819A818E599F4FFC0111823D
:101B8000108289819A818F5A9F4FFC0110821182A5
:101B90001282138289819A818F599F4FFC01108292
:101BA00000002A960FB6F894DEBF0FBECDBFDF91BE
:101BB000CF911F910F91FF90EF900895CF93DF93F6
:101BC00000D01F92CDB7DEB79A8389837C836B8365
:101BD00089819A818B5A9F4F2B813C81FC013183F3
:101BE000208300000F900F900F900F90DF91CF9106
:101BF0000895CF93DF931F921F92CDB7DEB79A83DC
:101C0000898389819A818F599F4F21E0FC0120832C
:101C100089819A8124D0882371F089819A81FC017D
:101C2000878D882341F089819A81FC01868D8130DE
:101C300011F481E001C080E0882329F089819A8134
:101C4000FC01838D07C089819A818F599F4FFC01C8
:101C5000108280E00F900F90DF91CF910895CF9385
:101C6000DF9300D0CDB7DEB79B838A8319820E94B1
:101C7000D21D9B01AC018A819B818F5A9F4FFC0131
:101C800080819181A281B381281B390B4A0B5B0BA8
:101C90008A819B81835A9F4FFC0180819181CC0175
:101CA000A0E0B0E061E082179307A407B50708F051
:101CB00060E06623A1F08A819B8118D08A819B8194
:101CC00058D189830E94D21DDC01CB012A813B813E
:101CD0002F5A3F4FF90180839183A283B383898177
:101CE0000F900F900F90DF91CF910895CF93DF93D6
:101CF00000D01F921F92CDB7DEB79D838C831982CF
:101D00008C819D81855A9F4FFC0190818981891723
:101D100000F58C819D81FC0180819181FC012081F5
:101D200031818C819D81895A9F4FFC014081518175
:101D30008981882F90E0840F951FFC0150818C8150
:101D40009D8142E0652FF901199589818F5F898313
:101D5000D7CF1A828C819D81845A9F4FFC0190813C
:101D60008A81891708F0FCC08C819D81FC018081EB
:101D70009181FC01208131818C819D81875A9F4F07
:101D8000FC01408151818A81882F90E0840F951F4A
:101D9000FC0150818C819D8141E0652FF9011995ED
:101DA0008C819D81FC01808191810296FC012081C2
:101DB00031818C819D81875A9F4FFC0140815181E7
:101DC0008A81882F90E0840F951FFC0150818C81BF
:101DD0009D8140E0652FF90119951B828C819D81C1
:101DE000855A9F4FFC0190818B81891708F07BC039
:101DF0008C819D81FC01808191810496FC01208170
:101E000031818C819D81895A9F4FFC014081518194
:101E10008B81882F90E0840F951FFC0140818C817D
:101E20009D81642FF9011995892B61F58B81682FAC
:101E300070E08B81882F90E02C813D81880F991F65
:101E4000820F931F0796FC01208131818A81482FE0
:101E500050E081E090E0A0E0B0E004C0880F991F5E
:101E6000AA1FBB1F4A95D2F7282B392B4C815D81C5
:101E7000CB01880F991F840F951F0796FC013183B2
:101E800020832DC08B81682F70E08B81882F90E09C
:101E90002C813D81880F991F820F931F0796FC01AB
:101EA000208131818A81482F50E081E090E0A0E0DC
:101EB000B0E004C0880F991FAA1FBB1F4A95D2F734
:101EC00080959095282339234C815D81CB01880F23
:101ED000991F840F951F0796FC01318320838B8106
:101EE0008F5F8B837BCF8C819D81FC018081918171
:101EF0000296FC01208131818C819D81875A9F4F00
:101F0000FC01408151818A81882F90E0840F951FC8
:101F1000FC0150818C819D8141E0652FF90119956B
:101F20008C819D81FC0180819181FC012081318126
:101F30008C819D81875A9F4FFC01408151818A810C
:101F4000882F90E0840F951FFC0150818C819D812A
:101F500040E0652FF90119958A818F5F8A83FACE57
:101F600000000F900F900F900F900F90DF91CF9186
:101F70000895CF93DF93CDB7DEB72E970FB6F894C1
:101F8000DEBF0FBECDBF9E878D8719821A828A81E0
:101F90008A3008F04DC08A81282F30E04D855E855B
:101FA000C901880F991F880F991F820F931F840FF3
:101FB000951F4E96FC0180818823B1F58A81282FD8
:101FC00030E04D855E85C901880F991F880F991FE4
:101FD000820F931F840F951F4B96FC0110828A81FC
:101FE000282F30E04D855E85C901880F991F880F25
:101FF000991F820F931F840F951F4C962FEF3FEF71
:10200000FC01318320838A81282F30E04D855E8555
:10201000C901880F991F880F991F820F931F840F82
:10202000951F4F96FC0110828A818F5F8A83AFCF04
:102030001B828D859E85855A9F4FFC0190818B81E7
:10204000891708F0DFC01C828D859E85845A9F4FBA
:10205000FC0190818C81891708F0D0C08B81882F7A
:1020600090E02D853E85880F991F820F931F07965C
:10207000FC01808191812C81222F30E002C0969555
:1020800087952A95E2F78170992721E0892B09F439
:1020900020E02F838D859E858B5A9F4FFC01808188
:1020A00091812B81622F70E02D853E85245A3F4F10
:1020B000F9012081222F30E0629FA001639F500D23
:1020C000729F500D11242C81222F30E0240F351FD8
:1020D000820F931FFC01808188878B81482F50E0FD
:1020E0008D859E85845A9F4FFC018081882F90E0CA
:1020F000489F9001499F300D589F300D11248C81CD
:10210000882F90E0820F931F9A87898729853A85C7
:102110008D859E85B90146D19C878B878B859C8553
:10212000992334F02B858D859E854F81622F91D028
:102130008B859C85019609F05DC08F81882309F409
:1021400059C01D828D818A3008F054C08D81282F9E
:1021500030E04D855E85C901880F991F880F991F52
:10216000820F931F840F951F4B96FC01808188235B
:10217000E9F58D81282F30E04D855E85C901880FF6
:10218000991F880F991F820F931F840F951F4B96DD
:102190002885FC0120838D81282F30E04D855E85C8
:1021A000C901880F991F880F991F820F931F840FF1
:1021B000951F4C9629853A85FC01318320838D81BA
:1021C000282F30E04D855E85C901880F991F880F43
:1021D000991F820F931F840F951F4E96FC0110824A
:1021E0008D859E854F816D8134D004C08D818F5F38
:1021F0008D83A8CF8C818F5F8C8326CF8B818F5F5F
:102200008B8317CF1E828E818A30C8F48E81282F4F
:1022100030E04D855E85C901880F991F880F991F91
:10222000820F931F840F951F4F96FC018081882396
:1022300011F081E089838E818F5F8E83E4CF898165
:102240002E960FB6F894DEBF0FBECDBFDF91CF91B3
:102250000895CF93DF9300D01F92CDB7DEB79A8356
:1022600089836B834C838B81282F30E049815A818D
:10227000C901880F991F880F991F820F931F840F20
:10228000951F4F96FC0110828B81282F30E04981E9
:102290005A81C901880F991F880F991F820F931FB8
:1022A000840F951F4E96FC018081882F90E081302D
:1022B000910529F1823091051CF4892B49F06AC0FF
:1022C0008230910509F450C0039709F458C062C0E8
:1022D0008C81882309F459C089819A8141E06B81FE
:1022E000DDD00E94D21DDC01CB0129813A81235B24
:1022F0003F4FF90180839183A283B38346C00E943C
:10230000D21D9B01AC0189819A81835B9F4FFC01A7
:1023100080819181A281B381281B390B4A0B5B0B11
:1023200089819A81815A9F4FFC0180819181CC01E2
:10233000A0E0B0E061E082179307A407B50708F0BA
:1023400060E0662331F089819A8142E06B81A6D0FA
:102350001EC09C8181E089278823C9F089819A81E8
:1023600043E06B819BD013C09C8181E08927882347
:1023700081F089819A8143E06B8190D00AC0898184
:102380009A8140E06B818AD005C0000003C0000044
:1023900001C0000000000F900F900F900F90DF9190
:1023A000CF910895CF93DF9300D01F921F92CDB7A6
:1023B000DEB79B838A837D836C83198289818A300F
:1023C000F8F48981282F30E04A815B81C901880FA8
:1023D000991F880F991F820F931F840F951F4C968A
:1023E000FC01208131818C819D812817390721F4DE
:1023F0008981882F90E006C089818F5F8983DECF35
:102400008FEF9FEF0F900F900F900F900F90DF9135
:10241000CF910895CF93DF9300D01F92CDB7DEB751
:102420009A8389837C836B838B819C81892B51F474
:1024300089819A81835A9F4F21E030E0FC013183EA
:10244000208309C089819A81835A9F4F2B813C81C7
:10245000FC013183208300000F900F900F900F90AC
:10246000DF91CF910895CF93DF9300D01F92CDB726
:10247000DEB79A8389837C836B8389819A81815AB1
:102480009F4F2B813C81FC013183208300000F9002
:102490000F900F900F90DF91CF910895CF93DF931E
:1024A00000D01F92CDB7DEB79A8389836B834C83AC
:1024B0008B81282F30E049815A81C901880F991FEB
:1024C000880F991F820F931F840F951F4E962C81A2
:1024D000FC0120838B81282F30E049815A81C9017A
:1024E000880F991F880F991F820F931F840F951FC4
:1024F0004F9621E0FC01208389819A818F599F4F5B
:10250000FC0180818823D1F089819A818E599F4F67
:10251000FC0180819181892BA1F18B81882389F530
:1025200089819A818E599F4FFC0120813181898157
:102530009A81FC01838DF901199523C089819A81C3
:102540008E599F4FFC0180819181892BD1F0898127
:102550009A818E599F4FFC01408151818B81282F98
:1025600030E069817A81C901880F991F880F991F0E
:10257000820F931F860F971F4B96FC018081FA01F3
:10258000199500000F900F900F900F90DF91CF9151
:102590000895CF93DF931F921F92CDB7DEB79A8332
:1025A00089832CE933E089819A81FC01318320837E
:1025B00089819A81FC011382128200000F900F9092
:1025C000DF91CF910895CF93DF931F921F92CDB7E4
:1025D000DEB79A83898380E090E00F900F90DF91BF
:1025E000CF910895CF93DF931F921F92CDB7DEB79F
:1025F0009A83898300000F900F90DF91CF91089507
:102600008F92AF92CF92EF920F93CF93DF93CDB78C
:10261000DEB728970FB6F894DEBF0FBECDBF9A8302
:1026200089836B834C832D830E83EF82C8868981D7
:102630009A81AFDF20E933E089819A81FC013183FF
:10264000208389819A811F921F921F921F928884F2
:10265000AF80CE80ED800C812FEF4B8161E013D0F5
:102660000F900F900F900F90000028960FB6F894DF
:10267000DEBF0FBECDBFDF91CF910F91EF90CF9016
:10268000AF908F9008958F92AF92CF92EF920F9369
:10269000CF93DF93CDB7DEB72A970FB6F894DEBF9E
:1026A0000FBECDBF9A8389836B834C832D830E83AA
:1026B000EF82C886A9868A8689819A812C81FC014D
:1026C000248389819A812D81FC01258389819A81C6
:1026D0002E81FC01268389819A812F81FC01278329
:1026E00089819A812885FC01208789819A812985A1
:1026F000FC01218789819A812A85FC0122878981B1
:102700009A812D89FC01238789819A812E89FC0178
:10271000248789819A812F89FC01258789819A8163
:10272000288DFC0126878B81882329F089819A8155
:10273000FC01178605C089819A8120E1FC01278769
:1027400089819A8120E041E060E10FD000002A9663
:102750000FB6F894DEBF0FBECDBFDF91CF910F91C2
:10276000EF90CF90AF908F9008950F931F93CF93DA
:10277000DF93CDB7DEB727970FB6F894DEBF0FBE55
:10278000CDBF9C838B836D834E832F838E8182305C
:1027900050F08B819C81FC018785282F28608B81DC
:1027A0009C81FC0127878B819C812E81FC01238BDE
:1027B0008D81882F90E0AC01405C5F4F8D81282F88
:1027C00030E08B819C818A0140E450E060E070E061
:1027D000EFD08F81882369F08E81813051F48B8115
:1027E0009C81FC018785282F24608B819C81FC01C2
:1027F00027878B819C81FC01848161E00E94231FDB
:102800008B819C81FC0185818F3F39F08B819C817C
:10281000FC01858161E00E94231F8B819C81FC016A
:10282000868161E00E94231F1A8219828B819C811C
:10283000FC018785882F90E080719927892B19F0FA
:1028400088E090E002C084E090E029813A81281776
:10285000390794F42B813C8189819A81820F931FDF
:102860000796FC01808161E00E94231F89819A8183
:1028700001969A838983DACF80E593EC0E943C1E0F
:102880008B819C81FC01848160E00E945F1F8B81B1
:102890009C81FC01868160E00E945F1F8B819C818E
:1028A000FC0185818F3F39F08B819C81FC01858102
:1028B00060E00E945F1F8B819C81FC018785882FCF
:1028C00090E080719927892BE9F48B819C8163E0EA
:1028D000BAD184E991E10E943C1E8B819C8163E026
:1028E000B2D184E991E10E943C1E8B819C8163E01E
:1028F000AAD186E990E00E943C1E8B819C8162E017
:10290000A2D126C08B819C81FC018785282F206263
:102910008B819C81622FF6D084E991E10E943C1E5C
:102920008B819C81FC018785282F20628B819C8173
:10293000622FE8D086E990E00E943C1E8B819C814A
:10294000FC018785282F20628B819C81622FDAD041
:102950008B819C81FC018785282F20628B819C8143
:10296000622FD0D08B819C8124E0FC01208B8B8155
:102970009C81A6D08B819C8151D08B819C8122E04F
:10298000FC01218B8B819C81FC018189282F246093
:102990008B819C81622FB6D0000027960FB6F894E9
:1029A000DEBF0FBECDBFDF91CF911F910F91089574
:1029B0000F931F93CF93DF93CDB7DEB72A970FB650
:1029C000F894DEBF0FBECDBF9A8389837C836B836F
:1029D0005E834D8338872F831A8709872B818981EE
:1029E0009A81FC01248B2D8189819A81FC01258BA0
:1029F0002F8189819A81FC01268B298589819A8181
:102A0000FC01278B00002A960FB6F894DEBF0FBE9C
:102A1000CDBFDF91CF911F910F910895CF93DF9399
:102A20001F921F92CDB7DEB79A83898389819A81DD
:102A300061E068D080ED97E00E943C1E00000F909E
:102A40000F90DF91CF910895CF93DF9300D000D006
:102A5000CDB7DEB79C838B836D834E8384E090E09B
:102A60009A8389838E81843010F083E08E838B81FA
:102A70009C81FC0193898E81891730F08B819C8128
:102A8000FC01838981508E838E81882F90E02B8179
:102A90003C81820F931F4496FC0190818D81890FA8
:102AA0008068282F8B819C81622F2CD00000269675
:102AB0000FB6F894DEBF0FBECDBFDF91CF91089562
:102AC000CF93DF931F921F92CDB7DEB79A8389838E
:102AD00089819A81FC018089282F246089819A81CB
:102AE000FC01208B89819A81FC018089282F286034
:102AF00089819A81622F06D000000F900F90DF919C
:102B0000CF910895CF93DF9300D0CDB7DEB79A83EE
:102B100089836B8389819A8140E06B811CD000009E
:102B20000F900F900F90DF91CF910895CF93DF9387
:102B300000D0CDB7DEB79A8389836B8389819A8170
:102B400041E06B8108D081E090E00F900F900F90F2
:102B5000DF91CF910895CF93DF9300D01F92CDB72F
:102B6000DEB79A8389836B834C8389819A81FC01C8
:102B700084816C810E945F1F89819A81FC0185811B
:102B80008F3F39F089819A81FC01858160E00E9444
:102B90005F1F89819A81FC018785882F90E0807171
:102BA0009927892B29F089819A816B8185D014C05E
:102BB0008B81882F90E0959587959595879595952C
:102BC000879595958795282F89819A81622F3BD08B
:102BD00089819A816B8137D000000F900F900F9000
:102BE0000F90DF91CF910895CF93DF931F921F92A3
:102BF000CDB7DEB79A83898389819A81FC0186816A
:102C000060E00E945F1F81E090E00E943C1E89818D
:102C10009A81FC01868161E00E945F1F81E090E063
:102C20000E943C1E89819A81FC01868160E00E949D
:102C30005F1F84E690E00E943C1E00000F900F9002
:102C4000DF91CF910895CF93DF9300D01F921F9211
:102C5000CDB7DEB79C838B836D831A8219828981FD
:102C60009A810497ECF48D81882F90E0098002C04E
:102C7000959587950A94E2F7482F41702B813C8106
:102C800089819A81820F931F0796FC018081642FAE
:102C90000E945F1F89819A8101969A838983DFCF81
:102CA0008B819C81A1DF00000F900F900F900F90FF
:102CB0000F90DF91CF910895CF93DF9300D01F92B3
:102CC0001F92CDB7DEB79C838B836D831A821982E6
:102CD00089819A810897ECF48D81882F90E0098092
:102CE00002C0959587950A94E2F7482F41702B8191
:102CF0003C8189819A81820F931F0796FC01808114
:102D0000642F0E945F1F89819A8101969A8389832B
:102D1000DFCF8B819C8168DF00000F900F900F90B8
:102D20000F900F90DF91CF910895CF93DF9300D054
:102D30001F921F92CDB7DEB789837B836A835D8341
:102D40004C838981882F90E08D519B4FFC018081BD
:102D5000881F8827881F882331F08A819B81FC0186
:102D60001182108272C08981282F30E0C901880F3A
:102D7000991F820F931F880F991F880F991F9C011D
:102D80008981882F90E08D519B4FFC018081082E16
:102D9000000C990B280F391F8091E704882F90E0D1
:102DA000281739074CF58981282F30E0C901880F91
:102DB000991F820F931F880F991F880F991F9C01DD
:102DC0008981882F90E08D519B4FFC018081082ED6
:102DD000000C990B280F391FC901880F991F820F0A
:102DE000931F8D5A9B4FFC01808186FB882780F9B9
:102DF000813011F481E001C080E0882331F18981C4
:102E0000282F30E0C901880F991F820F931F880F68
:102E1000991F880F991F9C018981882F90E08D51FF
:102E20009B4FFC018081082E000C990B280F391F45
:102E3000C901880F991F820F931F8D5A9B4FFC0168
:102E400080818F7360E00E945F1F8981882F90E0EE
:102E50009C012D513B4FF90120812F5F8D519B4FDC
:102E6000FC0120838981282F30E0C901880F991F38
:102E7000820F931F880F991F880F991F9C018981CA
:102E8000882F90E08D519B4FFC018081082E000C13
:102E9000990B280F391F8091E704882F90E028179D
:102EA00039075CF48981882F90E08D519B4FFC019C
:102EB00080818C3014F481E001C080E0882309F423
:102EC0007EC08A819B81FC01408151818981282FAC
:102ED00030E0C901880F991F820F931F880F991F37
:102EE000880F991F9C018981882F90E08D519B4FFD
:102EF000FC018081082E000C990B280F391FC90195
:102F0000880F991F820F931F8C5A9B4FFC01808161
:102F100091819A01280F391F8C819D81FC01318399
:102F200020838981282F30E0C901880F991F820FE3
:102F3000931F880F991F880F991F9C018981882FE3
:102F400090E08D519B4FFC018081082E000C990B65
:102F5000280F391FC901880F991F820F931F8D5A9F
:102F60009B4FFC01808186FB882780F9882309F428
:102F700050C08981282F30E0C901880F991F820F26
:102F8000931F880F991F880F991F9C018981882F93
:102F900090E08D519B4FFC018081082E000C990B15
:102FA000280F391FC901880F991F820F931F8D5A4F
:102FB0009B4FFC0180818F7361E081D72AC08A8199
:102FC0009B81FC0180819181049621E080349C49A1
:102FD00008F020E0222341F08C819D8120E43CE92F
:102FE000FC01318320830DC08A819B81FC0180819B
:102FF00091819C012C5F3F4F8C819D81FC0131832D
:1030000020838981882F90E08D519B4F2FEFFC0109
:10301000208300000F900F900F900F900F90DF9182
:10302000CF9108951F920F9200905F000F9211248C
:1030300000905B000F922F933F934F935F936F939A
:103040007F938F939F93AF93BF93EF93FF93CF9310
:10305000DF93CDB7DEB748E850E064E870E081E088
:1030600064DE0000DF91CF91FF91EF91BF91AF91AE
:103070009F918F917F916F915F914F913F912F9190
:103080000F9000925B000F9000925F000F901F90D6
:1030900018951F920F9200905F000F9211240090DC
:1030A0005B000F922F933F934F935F936F937F93A8
:1030B0008F939F93AF93BF93EF93FF93CF93DF9340
:1030C000CDB7DEB748E950E064E970E082E02DDE7C
:1030D0000000DF91CF91FF91EF91BF91AF919F9150
:1030E0008F917F916F915F914F913F912F910F90B1
:1030F00000925B000F9000925F000F901F90189558
:103100001F920F9200905F000F92112400905B00BD
:103110000F922F933F934F935F936F937F938F9370
:103120009F93AF93BF93EF93FF93CF93DF93CDB76D
:10313000DEB748EA50E064EA70E083E0F6DD0000C4
:10314000DF91CF91FF91EF91BF91AF919F918F91BF
:103150007F916F915F914F913F912F910F900092CE
:103160005B000F9000925F000F901F9018951F92C8
:103170000F9200905F000F92112400905B000F925D
:103180002F933F934F935F936F937F938F939F936F
:10319000AF93BF93EF93FF93CF93DF93CDB7DEB79A
:1031A00048E251E064E271E080E0BFDD0000DF91C1
:1031B000CF91FF91EF91BF91AF919F918F917F91AF
:1031C0006F915F914F913F912F910F9000925B0013
:1031D0000F9000925F000F901F901895CF93DF9390
:1031E000CDB7DEB72E970FB6F894DEBF0FBECDBFBA
:1031F0009E878D878D859E85092E000CAA0BBB0BA3
:10320000BC01CD01B7D1DC01CB019C01AD0160E077
:1032100070E080E894E413D1DC01CB0120E030E0E1
:1032200040E85FE3BC01CD01A5D0DC01CB0120E08B
:1032300030E44CE156E4BC01CD016DD2DC01CB01A0
:10324000BC01CD0128D2DC01CB0189839A83AB83F9
:10325000BC8329E537E44CEB53E369817A818B81A8
:103260009C8159D2DC01CB0129813A814B815C815F
:10327000BC01CD0150D2DC01CB0123E73FE745E79C
:1032800059E3BC01CD0177D0DC01CB0129813A8122
:103290004B815C81BC01CD013ED2DC01CB012BEE28
:1032A0003FEF43E95AE3BC01CD0165D0DC01CB011E
:1032B0009C01AD0160E070E080E89FE3C0D0DC01DC
:1032C000CB018D839E83AF83B88723E333E948E83E
:1032D00053E46D817E818F8198854CD0DC01CB01D8
:1032E00089879A87AB87BC8789859A85AB85BC859A
:1032F000BC01CD012E960FB6F894DEBF0FBECDBF38
:10330000DF91CF910895CF93DF93CDB7DEB781E4FE
:1033100020D564DFDC01CB01BC01CD01F8D0DC019C
:10332000CB019093BE038093BD0340E060E080E456
:1033300094E00E949407DC01CB01BC01CD01E7D0F1
:10334000DC01CB019093C0038093BF0360E080E475
:1033500094E00E942109DC01CB01BC01CD01D7D052
:10336000DC01CB019093C2038093C1030000DF9185
:10337000CF9108955058BB27AA270ED04DC13ED1FA
:1033800030F043D120F031F49F3F11F41EF433C1EB
:103390000EF4E095E7FB29C1E92F4FD180F3BA176E
:1033A000620773078407950718F071F49EF567C1EB
:1033B0000EF4E0950B2EBA2FA02D0B01B901900150
:1033C0000C01CA01A0011124FF27591B99F0593F94
:1033D00050F4503E68F11A16F040A22F232F342FDC
:1033E0004427585FF3CF469537952795A795F0402A
:1033F0005395C9F77EF41F16BA0B620B730B840B3F
:10340000BAF09150A1F0FF0FBB1F661F771F881FF6
:10341000C2F70EC0BA0F621F731F841F48F487954E
:1034200077956795B795F7959E3F08F0B3CF93953D
:10343000880F08F09927EE0F9795879508950CD07F
:10344000EBC0E3D040F0DAD030F021F45F3F19F068
:10345000CCC0511115C1CFC0F0D098F39923C9F356
:103460005523B1F3951B550BBB27AA27621773078A
:10347000840738F09F5F5F4F220F331F441FAA1F3E
:10348000A9F333D00E2E3AF0E0E830D091505040FE
:10349000E695001CCAF729D0FE2F27D0660F771FAC
:1034A000881FBB1F261737074807AB07B0E809F08E
:1034B000BB0B802DBF01FF2793585F4F2AF09E3F23
:1034C000510568F092C0DCC05F3FECF3983EDCF33E
:1034D000869577956795B795F7959F5FC9F7880F9C
:1034E000911D9695879597F90895E1E0660F771FEE
:1034F000881FBB1F621773078407BA0720F0621B7F
:10350000730B840BBA0BEE1F88F7E095089504D077
:103510006894B111B5C0089598D088F09F5790F085
:10352000B92F9927B751A0F0D1F0660F771F881FE8
:10353000991F1AF0BA95C9F712C0B13081F09FD027
:10354000B1E008959CC0672F782F8827B85F39F0C5
:10355000B93FCCF3869577956795B395D9F73EF447
:1035600090958095709561957F4F8F4F9F4F0895EF
:10357000E89409C097FB3EF490958095709561950D
:103580007F4F8F4F9F4F9923A9F0F92F96E9BB27C3
:103590009395F695879577956795B795F111F8CF3F
:1035A000FAF4BB0F11F460FF1BC06F5F7F4F8F4FAA
:1035B0009F4F16C0882311F096E911C0772321F0A0
:1035C0009EE8872F762F05C0662371F096E8862F38
:1035D00070E060E02AF09A95660F771F881FDAF78F
:1035E000880F9695879597F9089597F99F6780E8D2
:1035F00070E060E008959FEF80EC089500240A9445
:103600001616170618060906089500240A941216BD
:103610001306140605060895092E0394000C11F4F0
:10362000882352F0BB0F40F4BF2B11F460FF04C09D
:103630006F5F7F4F8F4F9F4F089557FD9058440FF6
:10364000551F59F05F3F71F04795880F97FB991F01
:1036500061F09F3F79F087950895121613061406BE
:10366000551FF2CF4695F1DF08C01616170618064B
:10367000991FF1CF86957105610508940895E89426
:10368000BB2766277727CB0197F908950EF0A6C0D0
:10369000B2CF6894AACFD9DFC8F39923D1F3C6F388
:1036A000DF93CF931F930F93FF92C92FDD278823BA
:1036B0002AF02197660F771F881FDAF720E030E0A5
:1036C00040E85FEB9FE3883920F0803E30F02196A0
:1036D0008F7751DEECE1F1E003C04DDEE9E4F1E08B
:1036E0008BD08B01BE01EC01FB2E6F5771097595D4
:1036F000771F880B990B3EDF28E132E741E35FE358
:1037000016D0AF2D9801AE01FF900F911F91CF9170
:10371000DF9142DE81CF0BD07FCF70DF28F075DFE5
:1037200018F0952309F061CF66CF1124A9CF85DF6A
:10373000A0F3959FD1F3950F50E0551F629FF001C4
:10374000729FBB27F00DB11D639FAA27F00DB11D1D
:10375000AA1F649F6627B00DA11D661F829F2227A6
:10376000B00DA11D621F739FB00DA11D621F839F2D
:10377000A00D611D221F749F3327A00D611D231F03
:10378000849F600D211D822F762F6A2F11249F5751
:1037900050408AF0E1F088234AF0EE0FFF1FBB1F74
:1037A000661F771F881F91505040A9F79E3F510513
:1037B00070F01BCF65CF5F3FECF3983EDCF386954E
:1037C00077956795B795F795E7959F5FC1F7FE2BBE
:1037D000880F911D9695879597F908959F3F31F031
:1037E000915020F4879577956795B795880F911D2F
:1037F0009695879597F90895DF93CF931F930F932D
:10380000FF92EF92DF927B018C01689405C0DA2E63
:10381000EF018DDFFE01E894A59125913591459149
:103820005591AEF3EF01B8DDFE019701A801DA94DE
:1038300079F7DF90EF90FF900F911F91CF91DF917B
:103840000895C6D41F920F920FB60F9211240BB693
:103850000F922F938F939F93EF93FF93E091F80430
:10386000F091F9048081E091FE04F091FF0482FD63
:1038700012C09081809101058F5F8F7320910205A6
:10388000821751F0E0910105F0E0E851FB4F958F70
:103890008093010501C08081FF91EF919F918F91ED
:1038A0002F910F900BBE0F900FBE0F901F90189589
:1038B0001F920F920FB60F9211240BB60F922F93F7
:1038C0003F934F935F936F937F938F939F93AF93A8
:1038D000BF93EF93FF9388EE94E0C0D3FF91EF91F5
:1038E000BF91AF919F918F917F916F915F914F9118
:1038F0003F912F910F900BBE0F900FBE0F901F9016
:10390000189588EE94E031D321E0892B09F420E06A
:10391000822F0895E8EEF4E01382128288EE93E09D
:10392000A0E0B0E084839583A683B78388EA93E020
:103930009183808385EC90E09587848784EC90E088
:103940009787868780EC90E0918B808B81EC90E06C
:10395000938B828B82EC90E0958B848B86EC90E04D
:10396000978B868B118E128E138E148E0895089568
:103970008ED1FDDF0E948606C2EFDFE10E9499062C
:103980002097E1F32FD3FACFCF92DF92EF92FF92FD
:103990000F931F93CF93DF936C017A018B01C0E0EB
:1039A000D0E0CE15DF0581F0D8016D918D01D601F3
:1039B000ED91FC910190F081E02DC6011995892BC4
:1039C00011F02196EECF7E01C701DF91CF911F91BB
:1039D0000F91FF90EF90DF90CF900895DC01ED9173
:1039E000FC910190F081E02D19948F929F92AF92FB
:1039F000BF92EF92FF920F931F93CF93DF93CDB7B8
:103A0000DEB7A1970FB6F894DEBF0FBECDBF7C0125
:103A1000FA01CB0119A2223008F42AE08E010F5DD1
:103A20001F4F822E912CA12CB12CBF01A501940116
:103A3000A5D3F901CA01015011096A3010F4605D83
:103A400001C0695CD8016C93232B242B252B69F7CB
:103A5000B801C7010E949101A1960FB6F894DEBF8C
:103A60000FBECDBFDF91CF911F910F91FF90EF90CF
:103A7000BF90AF909F908F900895CF92DF92EF927A
:103A8000FF920F931F93CF93DF932115310581F49C
:103A9000DC01ED91FC910190F081E02D642FDF912C
:103AA000CF911F910F91FF90EF90DF90CF901994DD
:103AB0002A303105F1F477FF1BC06A017B01EC016C
:103AC0006DE28CDF8C0144275527BA014C195D0942
:103AD0006E097F092AE0CE0188DF800F911FDF91F8
:103AE000CF911F910F91FF90EF90DF90CF900895AD
:103AF0002AE0DF91CF911F910F91FF90EF90DF901F
:103B0000CF9073CF9A01AB01770F660B770BB5CFD0
:103B10001F920F920FB60F9211242F933F938F9302
:103B20009F93AF93BF938091860590918705A09155
:103B30008805B09189053091850523E0230F2D3745
:103B400020F40196A11DB11D05C026E8230F0296A1
:103B5000A11DB11D2093850580938605909387054F
:103B6000A0938805B093890580918A0590918B0573
:103B7000A0918C05B0918D050196A11DB11D80937A
:103B80008A0590938B05A0938C05B0938D05BF910A
:103B9000AF919F918F913F912F910F900FBE0F90FA
:103BA0001F9018952FB7F89460918605709187053E
:103BB00080918805909189052FBF08953FB7F894AB
:103BC00080918A0590918B05A0918C05B0918D050F
:103BD00026B5A89B05C02F3F19F00196A11DB11D68
:103BE0003FBFBA2FA92F982F8827820F911DA11DA3
:103BF000B11DBC01CD0142E0660F771F881F991FE0
:103C00004A95D1F708958F929F92AF92BF92CF922B
:103C1000DF92EF92FF926B017C01D0DF4B015C01E0
:103C2000C114D104E104F104F1F0A7D2C7DFDC0133
:103C3000CB0188199909AA09BB09883E9340A105BF
:103C4000B10570F321E0C21AD108E108F10888EE4D
:103C5000880E83E0981EA11CB11CC114D104E1049C
:103C6000F10421F7DDCFFF90EF90DF90CF90BF9070
:103C7000AF909F908F9008958230910538F0880F13
:103C8000991F880F991F05970197F1F70895789468
:103C900084B5826084BD84B5816084BD85B5826051
:103CA00085BD85B5816085BDEEE6F0E080818160EF
:103CB0008083E1E8F0E010828081826080838081EF
:103CC00081608083E0E8F0E0808181608083E1EBC7
:103CD000F0E0808184608083E0EBF0E080818160AF
:103CE0008083E1E9F0E0808182608083808181606F
:103CF0008083E0E9F0E0808181608083E1EAF0E0A8
:103D0000808182608083808181608083E0EAF0E04E
:103D1000808181608083E1E2F1E080818260808344
:103D2000808181608083E0E2F1E080818160808336
:103D3000EAE7F0E080818460808380818260808314
:103D40008081816080838081806880831092C1003F
:103D50000895863308F0865390917B00282F2870B1
:103D6000977F922B90937B002091220290E4299FD1
:103D7000900111248770822B80937C0080917A00BF
:103D8000806480937A0080917A0086FDFCCF8091D8
:103D900078002091790090E0922B089590E0FC014A
:103DA0003197E231F10508F04DC08827E554FF4F07
:103DB0008F4F06C2809180008F7703C08091800072
:103DC0008F7D80938000089580918000877FF9CF58
:103DD00084B58F7702C084B58F7D84BD08958091AE
:103DE000B0008F7703C08091B0008F7D8093B000CA
:103DF0000895809190008F7707C0809190008F7D0B
:103E000003C080919000877F8093900008958091F7
:103E1000A0008F7707C08091A0008F7D03C08091A4
:103E2000A000877F8093A0000895809120018F7764
:103E300007C0809120018F7D03C080912001877F82
:103E4000809320010895CF93DF9390E0FC01E0522E
:103E5000FE4F2491FC01EA5DFD4F8491882361F1BE
:103E600090E0880F991FFC01E056FD4FC591D49159
:103E7000FC01EA57FD4FA591B491611109C09FB7AC
:103E8000F8948881209582238883EC912E230BC09F
:103E9000623061F49FB7F8948881322F3095832384
:103EA0008883EC912E2B2C939FBF06C08FB7F8947C
:103EB000E8812E2B28838FBFDF91CF9108951F9328
:103EC000CF93DF93282F30E0F901E656FE4F84911F
:103ED000F901E052FE4FD491F901EA5DFD4FC49122
:103EE000CC23B9F0162F811159DFEC2FF0E0EE0F43
:103EF000FF1FEA57FD4FA591B4919FB7F894111198
:103F000004C08C91D095D82302C0EC91DE2BDC93B9
:103F10009FBFDF91CF911F910895CF93DF93282FFB
:103F200030E0F901E656FE4F8491F901E052FE4F70
:103F3000D491F901EA5DFD4FC491CC2389F0811140
:103F40002DDFEC2FF0E0EE0FFF1FE459FD4FA591A0
:103F5000B491EC91ED2381E090E021F480E002C087
:103F600080E090E0DF91CF910895FC01918D228D4A
:103F7000892F90E0805C9F4F821B91098F73992756
:103F80000895FC01918D828D981731F0828DE80F94
:103F9000F11D858D90E008958FEF9FEF0895FC014E
:103FA000918D828D981761F0828DDF01A80FB11D70
:103FB0005D968C91928D9F5F9F73928F90E0089594
:103FC0008FEF9FEF0895FC01538D448D252F30E036
:103FD000842F90E0821B930B541710F0CF96089516
:103FE0000197089581E89CE1892B39F080E090E009
:103FF000892B19F086DC811125C080E090E0892BA7
:1040000041F080E090E0892B21F00E9400008111B6
:104010001CC080E090E0892B41F080E090E0892B8B
:1040200021F00E940000811113C080E090E0892BF4
:10403000A1F080E090E0892B81F00E9400008111C6
:104040000AC008950E940000D8CF0E940000E1CF6E
:104050000E940000EACF0C9400000895FC01848DBA
:10406000DF01A80FB11DA35ABF4F2C91848D90E0A2
:1040700001968F739927848FA689B7892C93A0897D
:10408000B1898C91837080648C93938D848D981307
:1040900006C00288F389E02D80818F7D808308959A
:1040A000EF92FF920F931F93CF93DF93EC0181E088
:1040B000888F9B8D8C8D981305C0E889F989808144
:1040C00085FD25C0F62E0B8D10E00F5F1F4F0F737F
:1040D0001127E02E8C8DE8120BC00FB607FCFACF2B
:1040E000E889F989808185FFF5CFCE01B7DFF2CF6E
:1040F0008B8DFE01E80FF11DE35AFF4FF0829FB751
:10410000F8940B8FEA89FB89808180620AC09FB78F
:10411000F894EE89FF896083E889F989808183704A
:10412000806480839FBF81E090E0DF91CF911F91F9
:104130000F91FF90EF900895CF93DF93EC01888D5E
:104140008823C1F0EA89FB89808185FD05C0A889A3
:10415000B9898C9186FD0EC00FB607FCF5CF808122
:1041600085FFF2CFA889B9898C9185FFEDCFCE016B
:1041700075DFE8CFDF91CF9108950895A1E21A2E5F
:10418000AA1BBB1BFD010DC0AA1FBB1FEE1FFF1FFB
:10419000A217B307E407F50720F0A21BB30BE40B4B
:1041A000F50B661F771F881F991F1A9469F7609592
:1041B0007095809590959B01AC01BD01CF0108954C
:1041C000EE0FFF1F881F8BBF0790F691E02D19940B
:1041D00081E090E0F89409C0FC0101900020E9F72B
:0E41E000809590958E0F9F1F0895F894FFCF45
:1041EE0032000116001400320001313233413435F1
:1041FE003642373839432A3023441D1C1B1A1918EE
:10420E001716013C3E43686F7365204F7074696FDB
:10421E006E3C3E00413C48656174004C69676874B1
:10422E00733E4200413C46616E0054656D70733EB4
:10423E004200433C57696E646F77004175746F207E
:10424E004D6F6465206973206F6E2100413C542EC2
:10425E004F6666003C3E46616E20436F6E74726F11
:10426E006C733C3E00413C542E4175746F0053708C
:10427E006565643E420053706565643A00250041F1
:10428E003C4465632E00496E632E3E42003C3E5414
:10429E00656D7065726174757265733C3E00413C6C
:1042AE0053657400436865636B3E42003C2D3E438C
:1042BE00686F736520526F6F6D3C2D3E00413C441C
:1042CE00696E696E67004B6964733E420053657494
:1042DE002074656D703A0044696E696E673A20000D
:1042EE004B6964733A2020200048756D692E3E425A
:1042FE0000413C436C6F73652077696E646F770085
:10430E00413C4F70656E2077696E646F7700423C5A
:10431E00542E4175746F0048756D692E3E430048EA
:10432E00756D69646974793A00413C536574204136
:10433E006C6C6F77656400416C2E48756D696469AD
:10434E0074793A00556E6B6E6F776E205374616799
:10435E0065210054727920225265736574222121E1
:10436E00210000000000170D2D0D440D000000006F
:10437E009615C41CE312F21200000000211CC41C8E
:10438E00E312F212000000005020C41CE31F9C2018
:06439E00B51FCF1FC11F77
:00000001FF
