:100000004DC100007CC100007AC1000078C1000031
:1000100076C1000074C1000072C1000070C1000010
:100020006EC100006CC100006AC1000068C1000020
:1000300066C1000064C1000062C1000060C1000030
:100040005EC10000B3C500005AC1000058C10000E5
:1000500056C1000054C1000052C100000C949D0A1A
:100060004EC100000C9439090C946F0948C100007E
:1000700046C1000044C1000042C1000040C1000070
:10008000C1C500003CC100003AC1000038C10000F9
:1000900036C1000034C1000032C1000030C1000090
:1000A0002EC100002CC10000D9C5000028C10000ED
:1000B00026C1000024C1000022C10000FBC50000D1
:1000C0001EC100001CC100001AC1000018C10000C0
:1000D00016C1000014C1000012C1000010C10000D0
:1000E0000EC10000A501BF01C902E301FD01150217
:1000F0002F0249028B02C902D90208000000BE92F9
:100100002449123EABAAAA2ABECDCCCC4C3E00005C
:100110000080BEABAAAAAA3E00000000BF000000FB
:10012000803F0000000000084178D3BB4387D11313
:100130003D190E3CC3BD4282AD2B3E68EC8276BEBB
:10014000D98FE1A93E4C80EFFFBE01C4FF7F3F0085
:1001500000000000930B960B850B890B8F0BCD0BCA
:100160009A0B9E0BA40BA80BAC0BB20BB60BBA0BE5
:10017000CD0BC00BC40BC80B00000A0B02090C0D01
:100180000E0807030401000000000000000000004A
:10019000000000000000000000000000000000005F
:1001A000000000001211100000000000000000001C
:1001B000000000000000000000000000000001023C
:1001C0001020200808102040102040800201020169
:1001D0000804020101020408102040808040201021
:1001E000080402018004020180402010080402017A
:1001F00008040201010204081020408001020408E2
:1002000010204080050505050705080808080202BA
:1002100002020A0A080804040404010101010101A0
:1002200001010303030303030303040707070C0C83
:100230000C0C0C0C0C0C020202020606060606064A
:1002400006060B0B0B0B0B0B0B0B00002000230007
:10025000260029002C002F003200000100000301BD
:100260000601090100002200250028002B002E00B5
:100270003100340002010000050108010B010000FB
:100280002100240027002A002D0030003300010146
:100290000000040107010A011D03A10911241FBE6A
:1002A000CFEFD1E2DEBFCDBF00E00CBF13E0A0E096
:1002B000B2E0E8E2FBE100E00BBF02C007900D9264
:1002C000A238B107D9F725E0A2E8B3E001C01D923A
:1002D000AD33B207E1F711E0CEE4D1E000E006C0B3
:1002E00021970109802FFE010E948A0DCC34D1078D
:1002F00080E00807A9F70E94CF090C94920D80CEE8
:100300006115710579F0FB0101900020E9F7319743
:10031000AF01461B570BDC01ED91FC910280F3818C
:10032000E02D199480E090E00895CF93DF93EB01E6
:100330008B30910508F05FC1FC0140E060E0882748
:10034000EE58FF4F8F4F0C948A0D86EE93E09ED2AD
:100350006FE172E086EE93E0D3DF41E060E086EE8D
:1003600093E094D260E372E086EE93E0C9DF41E06F
:1003700068E086EE93E08AD267E372E04DC186EED4
:1003800093E084D260E472E086EE93E0B9DF40E06F
:1003900069E086EE93E07AD266E472E086EE93E05E
:1003A000AFDF41E060E086EE93E070D26EE472E091
:1003B00086EE93E0A5DF41E06AE086EE93E066D248
:1003C00067E572E029C186EE93E060D26EE772E0E5
:1003D00086EE93E095DF41E060E086EE93E056D252
:1003E0006FE872E086EE93E08BDF41E069E086EE35
:1003F00093E04CD268E972E00FC186EE93E046D2FA
:1004000060EA72E086EE93E07BDF60911C027091FF
:100410001D024AE050E086EE93E00E94970A67EAE8
:1004200072E086EE93E06CDF5AC086EE93E02ED247
:100430006EEB72E086EE93E063DF41E060E086EE13
:1004400093E024D26FEC72E086EE93E059DF41E056
:1004500069E086EE93E01AD265ED72E0DDC086EECB
:1004600093E014D26DED72E086EE93E049DF41E057
:1004700060E086EE93E00AD26EEE72E086EE93E0E4
:100480003FDF41E06AE086EE93E000D267EF72E082
:10049000C3C086EE93E0FAD16EEF72E086EE93E091
:1004A0002FDFC130D10529F460911A0270911B022F
:1004B00006C0229759F460911802709119024AE01F
:1004C00050E086EE93E00E94970A05C063E073E077
:1004D00086EE93E015DF6FED86EE93E09CD240E070
:1004E0006AE086EE93E0D2D169EA72E086EE93E0AC
:1004F00007DF41E060E086EE93E0C8D160EB72E098
:1005000086EE93E0FDDE41E06AE086EE93E0BED148
:1005100067EB72E081C086EE93E0B8D166E073E0ED
:1005200086EE93E0EDDE60910004709101044AE0F4
:1005300050E086EE93E0FBD76FED86EE93E06BD252
:1005400040E06AE086EE93E0A1D169EA72E086EECF
:1005500093E0D6DE41E060E086EE93E097D16EE076
:1005600073E086EE93E0CCDE6091FE037091FF03B2
:100570004AE050E086EE93E0DAD76FED86EE93E046
:100580004AD241E06BE086EE93E080D166E173E011
:1005900043C086EE93E07AD16EE572E086EE93E09A
:1005A000AFDE41E060E086EE93E070D16FE672E08E
:1005B00017C086EE93E06AD16CE173E086EE93E0BB
:1005C0009FDE41E060E086EE93E060D1C130D1056E
:1005D00019F46DE273E004C0229729F465E373E037
:1005E00086EE93E08DDE41E06AE086EE93E04ED148
:1005F00067E772E011C040E060E086EE93E046D12C
:100600006CE373E086EE93E07BDE41E060E086EE33
:1006100093E03CD16BE473E086EE93E0DF91CF9101
:100620006FCE20E042E060E186EE93E048C160E0FA
:1006300070E088E090E079DEACC3CF92EF920F9348
:100640008DE0C82E9CE0E92E0BE02AE049E068E04E
:1006500086EE93E0C1D124E0E22E04E020E032E017
:1006600044E052E068E072E082E893E014D00F9139
:10067000EF90CF900895FC011082138214820895A8
:10068000862F0C94380C862F642F0C940A0C862F1E
:10069000642F0C94CE0B4F925F926F927F928F9249
:1006A0009F92AF92BF92CF92DF92EF920F93CF9330
:1006B000DF93EC016B014A0159010296DCDF8EE504
:1006C00093E0998388832E018BE1480E511C3E01F3
:1006D0008DE4680E711CC201CEDF85E0480E511C0E
:1006E00046145704C1F7FE01E95AFF4F91828082F8
:1006F0003296B182A082329600833196E08237979B
:10070000D182C08238968AE090E0918380833296CD
:1007100084EF91E0918380833396118210827197E8
:100720001082118212821382CF59DF4F1882DF911B
:10073000CF910F91EF90DF90CF90BF90AF909F90AF
:100740008F907F906F905F904F90089580E090E041
:1007500008950895CF93DF93EC0160E08E810E94AD
:100760000A0C81E090E033D761E08E810E940A0C90
:1007700081E090E02CD760E08E810E940A0C84E634
:1007800090E0DF91CF9123C7CF92DF92EF92FF925B
:100790000F931F93CF93DF936C017C0187E0E80EEA
:1007A000F11CC0E0D0E0062F10E0B8010C2E02C012
:1007B000759567950A94E2F76170F70181917F0161
:1007C0000E940A0C2196C430D10579F7C601DF9149
:1007D000CF911F910F91FF90EF90DF90CF90BACF04
:1007E000CF92DF92EF92FF920F931F93CF93DF93FD
:1007F0006C017C0187E0E80EF11CC0E0D0E0062F20
:1008000010E0B8010C2E02C0759567950A94E2F7C6
:100810006170F70181917F01FDD72196C830D10524
:1008200081F7C601DF91CF911F910F91FF90EF905B
:10083000DF90CF908FCF1F93CF93DF93EC01162FD4
:10084000642F8C81E7D78D818F3F11F060E0E2D774
:100850008F85612F84FF05C0CE01DF91CF911F915D
:10086000BFCF70E084E0759567958A95E1F7CE017A
:100870008BDF612FCE01DF91CF911F9185CF40E0BB
:10088000DACF61E0FCDF80ED97E0A1C6FC014430E7
:1008900008F043E08389481710F04FEF480FDF015D
:1008A000A40FB11D54969C91690F6068CF01E7CFEA
:1008B000FC016089262F2460208B6C60E0CFEF92D2
:1008C000FF920F931F93CF93DF93EC01423018F008
:1008D0008F8588608F874B8B1C8A80E48D8B6E8B15
:1008E00070E0605C7F4F6F8B222329F0413019F458
:1008F0008F8584608F8761E08C8150D78D818F3F99
:1009000011F061E04BD761E08E8148D77E0187E02E
:10091000E80EF11C00E010E08F8584FD03C084E048
:1009200090E002C088E090E00817190744F461E005
:10093000F70181917F0132D70F5F1F4FEDCF80E527
:1009400093EC45D660E08C8165D760E08E8162D7FC
:100950008D818F3F11F060E05DD76F8564FD16C01B
:1009600063E0CE0111DF84E991E131D663E0CE018D
:100970000BDF84E991E12BD663E0CE0105DF86E948
:1009800090E025D662E0CE01FFDE11C06062CE01AC
:1009900076DF84E991E11BD66F856062CE016FDF5F
:1009A00086E990E014D66F856062CE0168DF6F85BE
:1009B0006062CE0164DF84E0888BCE0179DFCE01F6
:1009C00060DF82E0898B66E0CE01DF91CF911F91DD
:1009D0000F91FF90EF9053CFCF92EF920F93FC01C6
:1009E0001382128288E693E09183808364838FEF81
:1009F0008583468327830087E186C2861386148613
:100A000015861686178620E041E060E1CF010F9140
:100A1000EF90CF9054CF41E00EDF81E090E0089559
:100A2000CF92DF92EF92FF920F931F93CF93DF93BA
:100A30007B016A01082F10E0E801CD5FDB4F888160
:100A400087FF04C0FB011182108224C08CE0809FCC
:100A50009001819F300D11248881A901480F511DFB
:100A600087FD5A958091020490E04817590794F445
:100A70008881A901480F511D87FD5A95CA01FA01C5
:100A8000EE0FFF1F8E0F9F1FFC01E95FFB4F808160
:100A900086FD19C088818F5F88838CE0809F9001DC
:100AA000819F300D11248881A901480F511D87FDB8
:100AB0005A958091020490E048175907B4F4888150
:100AC0008C303CF112C08881280F311D87FD3A958A
:100AD000F901EE0FFF1F2E0F3F1FF901E95FFB4FDA
:100AE000808160E08F7396D6D5CFF70180819181A8
:100AF000049680349C4918F480E49CE904C0F70112
:100B0000808191810496F601918380838FEF8883A1
:100B100044C0F701408151818881B901680F711D7E
:100B200087FD7A95CB01FB01EE0FFF1F8E0F9F1FF4
:100B3000FC01E95FFB4F81819281840F951FF601D3
:100B4000918380838881A901480F511D87FD5A95A3
:100B5000CA01FA01EE0FFF1F8E0F9F1FFC01E95F14
:100B6000FB4F808186FF19C08881280F311D87FDCA
:100B70003A95F901EE0FFF1F2E0F3F1FF901E95FB4
:100B8000FB4F808161E08F73DF91CF911F910F91B7
:100B9000FF90EF90DF90CF903DC6DF91CF911F91F6
:100BA0000F91FF90EF90DF90CF9008951F920F92DA
:100BB0000FB60F9211240BB60F922F933F934F93C2
:100BC0005F936F937F938F939F93AF93BF93EF93B5
:100BD000FF9348E850E064E870E081E021DFFF9196
:100BE000EF91BF91AF919F918F917F916F915F91A5
:100BF0004F913F912F910F900BBE0F900FBE0F9012
:100C00001F9018951F920F920FB60F9211240BB6DA
:100C10000F922F933F934F935F936F937F938F9395
:100C20009F93AF93BF93EF93FF9348E950E064E93C
:100C300070E082E0F5DEFF91EF91BF91AF919F915F
:100C40008F917F916F915F914F913F912F910F9075
:100C50000BBE0F900FBE0F901F9018951F920F9212
:100C60000FB60F9211240BB60F922F933F934F9311
:100C70005F936F937F938F939F93AF93BF93EF9304
:100C8000FF9348EA50E064EA70E083E0C9DEFF9138
:100C9000EF91BF91AF919F918F917F916F915F91F4
:100CA0004F913F912F910F900BBE0F900FBE0F9061
:100CB0001F9018951F920F920FB60F9211240BB62A
:100CC0000F922F933F934F935F936F937F938F93E5
:100CD0009F93AF93BF93EF93FF9348E251E064E299
:100CE00071E080E09DDEFF91EF91BF91AF919F9108
:100CF0008F917F916F915F914F913F912F910F90C5
:100D00000BBE0F900FBE0F901F901895CF92DF92E1
:100D1000EF92FF92BC01990F880B990B43D19B0175
:100D2000AC0160E070E080E894E4A1D020E030E025
:100D300040E85FE337D020E030E44CE156E403D2F2
:100D4000C2D16B017C0129E537E44CEB53E3FBD1C5
:100D5000A7019601F8D123E73FE745E759E323D000
:100D6000A7019601F0D12BEE3FEF43E95AE31BD0E8
:100D70009B01AC0160E070E080E89FE378D023E362
:100D800033E948E853E40ED0FF90EF90DF90CF9026
:100D9000089581E489D4BADFD2D07093FF036093C1
:100DA000FE0308955058BB27AA270ED04DC13ED14F
:100DB00030F043D120F031F49F3F11F41EF433C1E1
:100DC0000EF4E095E7FB29C1E92F4FD180F3BA1764
:100DD000620773078407950718F071F49EF567C1E1
:100DE0000EF4E0950B2EBA2FA02D0B01B901900146
:100DF0000C01CA01A0011124FF27591B99F0593F8A
:100E000050F4503E68F11A16F040A22F232F342FD1
:100E10004427585FF3CF469537952795A795F0401F
:100E20005395C9F77EF41F16BA0B620B730B840B34
:100E3000BAF09150A1F0FF0FBB1F661F771F881FEC
:100E4000C2F70EC0BA0F621F731F841F48F4879544
:100E500077956795B795F7959E3F08F0B3CF939533
:100E6000880F08F09927EE0F9795879508950CD075
:100E7000EBC0E3D040F0DAD030F021F45F3F19F05E
:100E8000CCC0511115C1CFC0F0D098F39923C9F34C
:100E90005523B1F3951B550BBB27AA276217730780
:100EA000840738F09F5F5F4F220F331F441FAA1F34
:100EB000A9F333D00E2E3AF0E0E830D091505040F4
:100EC000E695001CCAF729D0FE2F27D0660F771FA2
:100ED000881FBB1F261737074807AB07B0E809F084
:100EE000BB0B802DBF01FF2793585F4F2AF09E3F19
:100EF000510568F092C0DCC05F3FECF3983EDCF334
:100F0000869577956795B795F7959F5FC9F7880F91
:100F1000911D9695879597F90895E1E0660F771FE3
:100F2000881FBB1F621773078407BA0720F0621B74
:100F3000730B840BBA0BEE1F88F7E095089504D06D
:100F40006894B111B5C0089598D088F09F5790F07B
:100F5000B92F9927B751A0F0D1F0660F771F881FDE
:100F6000991F1AF0BA95C9F712C0B13081F09FD01D
:100F7000B1E008959CC0672F782F8827B85F39F0BB
:100F8000B93FCCF3869577956795B395D9F73EF43D
:100F900090958095709561957F4F8F4F9F4F0895E5
:100FA000E89409C097FB3EF4909580957095619503
:100FB0007F4F8F4F9F4F9923A9F0F92F96E9BB27B9
:100FC0009395F695879577956795B795F111F8CF35
:100FD000FAF4BB0F11F460FF1BC06F5F7F4F8F4FA0
:100FE0009F4F16C0882311F096E911C0772321F096
:100FF0009EE8872F762F05C0662371F096E8862F2E
:1010000070E060E02AF09A95660F771F881FDAF784
:10101000880F9695879597F9089597F99F6780E8C7
:1010200070E060E008959FEF80EC089500240A943A
:101030001616170618060906089500240A941216B3
:101040001306140605060895092E0394000C11F4E6
:10105000882352F0BB0F40F4BF2B11F460FF04C093
:101060006F5F7F4F8F4F9F4F089557FD9058440FEC
:10107000551F59F05F3F71F04795880F97FB991FF7
:1010800061F09F3F79F087950895121613061406B4
:10109000551FF2CF4695F1DF08C016161706180641
:1010A000991FF1CF86957105610508940895E8941C
:1010B000BB2766277727CB0197F908950EF0A6C0C6
:1010C000B2CF6894AACFD9DFC8F39923D1F3C6F37E
:1010D000DF93CF931F930F93FF92C92FDD278823B0
:1010E0002AF02197660F771F881FDAF720E030E09B
:1010F00040E85FEB9FE3883920F0803E30F0219696
:101100008F7751DEEAEFF0E003C04DDEE7E2F1E079
:101110008BD08B01BE01EC01FB2E6F5771097595C9
:10112000771F880B990B3EDF28E132E741E35FE34D
:1011300016D0AF2D9801AE01FF900F911F91CF9166
:10114000DF9142DE81CF0BD07FCF70DF28F075DFDB
:1011500018F0952309F061CF66CF1124A9CF85DF60
:10116000A0F3959FD1F3950F50E0551F629FF001BA
:10117000729FBB27F00DB11D639FAA27F00DB11D13
:10118000AA1F649F6627B00DA11D661F829F22279C
:10119000B00DA11D621F739FB00DA11D621F839F23
:1011A000A00D611D221F749F3327A00D611D231FF9
:1011B000849F600D211D822F762F6A2F11249F5747
:1011C00050408AF0E1F088234AF0EE0FFF1FBB1F6A
:1011D000661F771F881F91505040A9F79E3F510509
:1011E00070F01BCF65CF5F3FECF3983EDCF3869544
:1011F00077956795B795F795E7959F5FC1F7FE2BB4
:10120000880F911D9695879597F908959F3F31F026
:10121000915020F4879577956795B795880F911D24
:101220009695879597F90895DF93CF931F930F9322
:10123000FF92EF92DF927B018C01689405C0DA2E59
:10124000EF018DDFFE01E894A5912591359145913F
:101250005591AEF3EF01B8DDFE019701A801DA94D4
:1012600079F7DF90EF90FF900F911F91CF91DF9171
:1012700008951F920F920FB60F9211240BB60F9282
:101280002F938F939F93EF93FF93E091A704F09197
:10129000A8048081E091AD04F091AE0482FD12C0FB
:1012A00090818091B0048F5F8F732091B104821779
:1012B00051F0E091B004F0E0E956FB4F958F809338
:1012C000B00401C08081FF91EF919F918F912F9188
:1012D0000F900BBE0F900FBE0F901F9018951F928E
:1012E0000F920FB60F9211240BB60F922F933F93CC
:1012F0004F935F936F937F938F939F93AF93BF931E
:10130000EF93FF9387E994E054D3FF91EF91BF915E
:10131000AF919F918F917F916F915F914F913F918D
:101320002F910F900BBE0F900FBE0F901F9018952E
:1013300087E994E0C5D221E0892B09F420E0822FCF
:101340000895E7E9F4E01382128288EE93E0A0E0CA
:10135000B0E084839583A683B78384E793E0918389
:10136000808385EC90E09587848784EC90E0978774
:10137000868780EC90E0918B808B81EC90E0938B62
:10138000828B82EC90E0958B848B86EC90E0978B3F
:10139000868B118E128E138E148E0895089522D18D
:1013A000FDDF3FD9CDE9DCE042D92097E9F3C5D292
:1013B000FBCFCF92DF92EF92FF920F931F93CF93C9
:1013C000DF936C017A018B01C0E0D0E0CE15DF0520
:1013D00081F0D8016D918D01D601ED91FC910190C4
:1013E000F081E02DC6011995892B11F02196EECFE1
:1013F0007E01C701DF91CF911F910F91FF90EF9078
:10140000DF90CF900895DC01ED91FC910190F08187
:10141000E02D19948F929F92AF92BF92EF92FF921C
:101420000F931F93CF93DF93CDB7DEB7A1970FB67E
:10143000F894DEBF0FBECDBF7C01FA01CB0119A22B
:10144000223008F42AE08E010F5D1F4F822E912C6E
:10145000A12CB12CBF01A50194013AD3F901CA0115
:10146000015011096A3010F4605D01C0695CD80157
:101470006C93232B242B252B69F7B801C7010E94FD
:101480008001A1960FB6F894DEBF0FBECDBFDF91ED
:10149000CF911F910F91FF90EF90BF90AF909F90D1
:1014A0008F900895CF92DF92EF92FF920F931F9348
:1014B000CF93DF932115310581F4DC01ED91FC918F
:1014C0000190F081E02D642FDF91CF911F910F915A
:1014D000FF90EF90DF90CF9019942A303105F1F40E
:1014E00077FF1BC06A017B01EC016DE28CDF8C0190
:1014F00044275527BA014C195D096E097F092AE076
:10150000CE0188DF800F911FDF91CF911F910F9146
:10151000FF90EF90DF90CF9008952AE0DF91CF9178
:101520001F910F91FF90EF90DF90CF9073CF9A01B2
:10153000AB01770F660B770BB5CF1F920F920FB6EB
:101540000F9211242F933F938F939F93AF93BF9349
:101550008091350590913605A0913705B0913805F9
:101560003091340523E0230F2D3720F40196A11D7F
:10157000B11D05C026E8230F0296A11DB11D2093C1
:1015800034058093350590933605A0933705B093C5
:1015900038058091390590913A05A0913B05B091AD
:1015A0003C050196A11DB11D8093390590933A0524
:1015B000A0933B05B0933C05BF91AF919F918F9154
:1015C0003F912F910F900FBE0F901F901895823072
:1015D000910538F0880F991F880F991F059701977B
:1015E000F1F70895789484B5826084BD84B58160F4
:1015F00084BD85B5826085BD85B5816085BDEEE61B
:10160000F0E0808181608083E1E8F0E010828081F9
:1016100082608083808181608083E0E8F0E0808167
:1016200081608083E1EBF0E0808184608083E0EB87
:10163000F0E0808181608083E1E9F0E08081826078
:101640008083808181608083E0E9F0E08081816037
:101650008083E1EAF0E08081826080838081816024
:101660008083E0EAF0E0808181608083E1E2F1E064
:10167000808182608083808181608083E0E2F1E00C
:10168000808181608083EAE7F0E0808184608083EC
:101690008081826080838081816080838081806896
:1016A00080831092C1000895863308F0865390918C
:1016B0007B00282F2870977F922B90937B0020919E
:1016C0001E0290E4299F900111248770822B809341
:1016D0007C0080917A00806480937A0080917A0007
:1016E00086FDFCCF809178002091790090E0922BCC
:1016F000089590E0FC013197E231F10508F04DC00A
:101700008827E655FF4F8F4F05C2809180008F7765
:1017100003C0809180008F7D809380000895809128
:101720008000877FF9CF84B58F7702C084B58F7D25
:1017300084BD08958091B0008F7703C08091B00080
:101740008F7D8093B0000895809190008F7707C0BF
:10175000809190008F7D03C080919000877F80935F
:10176000900008958091A0008F7707C08091A0001D
:101770008F7D03C08091A000877F8093A000089593
:10178000809120018F7707C0809120018F7D03C059
:1017900080912001877F809320010895CF93DF936C
:1017A00090E0FC01E254FE4F2491FC01EC5FFD4F00
:1017B0008491882361F190E0880F991FFC01E25821
:1017C000FD4FC591D491FC01EC59FD4FA591B49109
:1017D000611109C09FB7F89488812095822388837E
:1017E000EC912E230BC0623061F49FB7F89488818E
:1017F000322F309583238883EC912E2B2C939FBF1F
:1018000006C08FB7F894E8812E2B28838FBFDF9115
:10181000CF9108951F93CF93DF93282F30E0F901E4
:10182000E858FE4F8491F901E254FE4FD491F9013A
:10183000EC5FFD4FC491CC23B9F0162F811159DF15
:10184000EC2FF0E0EE0FFF1FEC59FD4FA591B49186
:101850009FB7F894111104C08C91D095D82302C081
:10186000EC91DE2BDC939FBFDF91CF911F91089508
:10187000CF93DF93282F30E0F901E858FE4F849191
:10188000F901E254FE4FD491F901EC5FFD4FC49190
:10189000CC2389F081112DDFEC2FF0E0EE0FFF1F3C
:1018A000E65BFD4FA591B491EC91ED2381E090E0D2
:1018B00021F480E002C080E090E0DF91CF910895B4
:1018C000FC01918D228D892F90E0805C9F4F821BBF
:1018D00091098F7399270895FC01918D828D981736
:1018E00031F0828DE80FF11D858D90E008958FEF26
:1018F0009FEF0895FC01918D828D981761F0828D84
:10190000DF01A80FB11D5D968C91928D9F5F9F7333
:10191000928F90E008958FEF9FEF0895FC01538D13
:10192000448D252F30E0842F90E0821B930B5417B9
:1019300010F0CF9608950197089588E999E0892BD2
:1019400039F080E090E0892B19F0F2DC811125C09C
:1019500080E090E0892B41F080E090E0892B21F03D
:101960000E94000081111CC080E090E0892B41F0B2
:1019700080E090E0892B21F00E940000811113C0CB
:1019800080E090E0892BA1F080E090E0892B81F04D
:101990000E94000081110AC008950E940000D8CF63
:1019A0000E940000E1CF0E940000EACF0C940000EA
:1019B0000895FC01848DDF01A80FB11DA35ABF4F0C
:1019C0002C91848D90E001968F739927848FA6893E
:1019D000B7892C93A089B1898C91837080648C9392
:1019E000938D848D981306C00288F389E02D808141
:1019F0008F7D80830895EF92FF920F931F93CF9373
:101A0000DF93EC0181E0888F9B8D8C8D981305C04E
:101A1000E889F989808185FD25C0F62E0B8D10E0BF
:101A20000F5F1F4F0F731127E02E8C8DE8120BC034
:101A30000FB607FCFACFE889F989808185FFF5CFD9
:101A4000CE01B7DFF2CF8B8DFE01E80FF11DE35A17
:101A5000FF4FF0829FB7F8940B8FEA89FB89808152
:101A600080620AC09FB7F894EE89FF896083E88995
:101A7000F98980818370806480839FBF81E090E0DA
:101A8000DF91CF911F910F91FF90EF900895CF9329
:101A9000DF93EC01888D8823C1F0EA89FB8980817E
:101AA00085FD05C0A889B9898C9186FD0EC00FB649
:101AB00007FCF5CF808185FFF2CFA889B9898C9189
:101AC00085FFEDCFCE0175DFE8CFDF91CF9108958F
:101AD000A1E21A2EAA1BBB1BFD010DC0AA1FBB1F32
:101AE000EE1FFF1FA217B307E407F50720F0A21BA4
:101AF000B30BE40BF50B661F771F881F991F1A9411
:101B000069F760957095809590959B01AC01BD013A
:101B1000CF010895EE0FFF1F881F8BBF0790F6912E
:081B2000E02D1994F894FFCFA9
:101B2800191817161D1C1B1A313233413435364229
:101B3800373839432A302344140016003200013C58
:101B48003E43686F7365204F7074696F6E3C3E004A
:101B5800413C48656174004C69676874733E420093
:101B6800413C46616E0054656D70733E4200433CD3
:101B780057696E646F77004261636B3E440041753C
:101B8800746F204D6F6465206973206F6E2100416A
:101B98003C542E4F6666004261636B3E42003C3EF9
:101BA80046616E20436F6E74726F6C733C3E0041E9
:101BB8003C542E4175746F0053706565643E420055
:101BC80053706565643A002500446F6E653E4100B8
:101BD800423C4465632E00496E632E3E43003C3E02
:101BE80054656D7065726174757265733C3E004131
:101BF8003C53657400436865636B3E42003C2D3E70
:101C080043686F736520526F6F6D3C2D3E00413CF9
:101C180044696E696E67004B6964733E42005365A0
:101C2800743A003F3F0044696E696E673A004B6939
:101C380064733A2020005365743E42003C3E576965
:101C48006E646F7720436F6E742E3C3E00413C43B8
:101C58006C6F736500413C4F70656E00556E6B6E1E
:101C68006F776E2053746167652100547279202262
:101C7800526573657422212121000000000047038A
:101C880043034003000000000B05D909A603A9037C
:101C980000000000FB0CD9098E0C470D600C7A0C73
:021CA8006C0CC2
:00000001FF
