S0130000426172654D696E696D756D2E73726563BB
S11300004FC100007EC100007CC100007AC1000025
S113001078C1000076C1000074C1000072C1000004
S113002070C100006EC100006CC100006AC1000014
S113003068C1000066C1000064C1000062C1000024
S113004060C100000C942F085CC100005AC100007C
S113005058C1000056C1000054C100000C940B0D9F
S113006050C100000C94A50B0C94DB0B4AC100009A
S113007048C1000046C1000044C1000042C1000064
S11300800C945B083EC100003CC100003AC1000072
S113009038C1000036C1000034C1000032C1000084
S11300A030C100002EC100000C9487082AC1000052
S11300B028C1000026C1000024C100000C94B3082C
S11300C020C100001EC100001CC100001AC10000B4
S11300D018C1000016C1000014C1000012C10000C4
S11300E010C10000A701C1019302DB01F501020266
S11300F01C0236025D029302A302C402E30208005A
S11301000000BE922449123EABAAAA2ABECDCCCC92
S11301104C3E00000080BEABAAAAAA3E000000002C
S1130120BF000000803F0000000000084178D3BBFE
S11301304387D1133D190E3CC3BD4282AD2B3E68AB
S1130140EC8276BED98FE1A93E4C80EFFFBE01C49C
S1130150FF7F3F00000000006B0E6E0E5D0E610E0F
S1130160670EA50E720E760E7C0E800E840E8A0E1D
S11301708E0E920EA50E980E9C0EA00E00000A0B79
S113018002090C0D0E080703040100000000000022
S1130190000000000000000000000000000000005B
S11301A00000000000000000121110000000000018
S11301B0000000000000000000000000000000003B
S11301C00000010210202008081020401020408068
S11301D00201020108040201010204081020408007
S11301E08040201008040201800402018040201095
S11301F008040201080402010102040810204080DE
S113020001020408102040800505050507050808BB
S11302100808020202020A0A08080404040401018C
S113022001010101010103030303030303030407A1
S113023007070C0C0C0C0C0C0C0C02020202060638
S11302400606060606060B0B0B0B0B0B0B0B00002E
S113025020002300260029002C002F00320000017A
S11302600000030106010901000022002500280006
S11302702B002E00310034000201000005010801AA
S11302800B0100002100240027002A002D0030006B
S1130290330001010000040107010A0132030D0CBF
S11302A011241FBECFEFD1E2DEBFCDBF00E00CBFF3
S11302B013E0A0E0B2E0EAEDF0E200E00BBF02C020
S11302C007900D92AC39B107D9F725E0ACE9B3E05A
S11302D001C01D92AD36B207E1F711E0C0E5D1E0EF
S11302E000E006C021970109802FFE010E946310DF
S11302F0CE34D10780E00807A9F70E943B0C0C9488
S11303006B107ECE6115710579F0FB010190002020
S1130310E9F73197AF01461B570BDC01ED91FC91D6
S11303200280F381E02D199480E090E00895CF934A
S1130330DF93EB018D30910508F06EC1FC0140E0C4
S113034060E08827EE58FF4F8F4F0C94631083E1D1
S113035094E0F5D461E272E083E194E0D3DF41E01C
S113036060E083E194E0EBD462E372E083E194E043
S1130370C9DF41E068E083E194E0E1D469E372E03D
S11303805CC183E194E0DBD462E472E083E194E055
S1130390B9DF40E069E083E194E0D1D468E472E03D
S11303A083E194E0AFDF41E060E083E194E0C7D40F
S11303B060E572E042C183E194E0C1D462E772E097
S11303C083E194E09FDF41E060E083E194E0B7D40F
S11303D063E872E083E194E095DF41E069E083E162
S11303E094E0ADD46CE872E028C183E194E0A7D432
S11303F064E972E083E194E085DF60911E0270910C
S11304001F02EDC083E194E09AD46BEA72E083E1C9
S113041094E078DF41E060E083E194E090D46CEB19
S113042072E083E194E06EDF41E069E083E194E00F
S113043086D462EC72E001C183E194E080D46AEC7A
S113044072E083E194E05EDF41E060E083E194E008
S113045076D46BED72E083E194E054DF41E06AE02E
S113046083E194E06CD464EE72E0E7C083E194E04D
S113047066D46BEE72E083E194E044DFC130D105D1
S113048029F460911C0270911D0206C0229759F450
S113049060911A0270911B024AE050E083E194E0FB
S11304A00E94050D05C065EF72E083E194E02ADF48
S11304B06FED83E194E008D59DC083E194E03FD4DF
S11304C068EF72E083E194E01DDF60913004709185
S11304D031044AE050E083E194E00E94050D6FEDA1
S11304E083E194E0F1D441E060E083E194E027D437
S11304F060E073E083E194E005DF60912E04709185
S11305002F044AE050E083E194E00E94050D6FED72
S113051083E194E0D9D441E06BE083E194E00FD42B
S113052068E073E08AC083E194E009D469E572E08D
S113053083E194E0E7DE41E060E083E194E0FFD30F
S11305406AE672E07AC083E194E0F9D380912B04E7
S1130550882319F06EE073E002C06DE173E083E17B
S113056094E0D0DE41E060E083E194E0E8D36BE224
S113057073E083E194E0C6DE41E06AE083E194E065
S1130580DED364E373E059C083E194E0D8D36CE430
S113059073E083E194E0B6DE60912C0470912D0445
S11305A04AE050E083E194E00E94050D6BE972E0BB
S11305B083E194E0A7DE41E060E083E194E0BFD30F
S11305C06BE373E03AC083E194E0B9D369E473E088
S11305D083E194E097DE60911802709119024AE079
S11305E050E083E194E00E94050D6BE972E083E141
S11305F094E088DE41E060E083E194E0A0D36DE91B
S113060072E083E194E07EDE41E06AE083E194E01D
S113061096D364EA72E011C040E060E083E194E0C4
S11306208ED366E573E083E194E06CDE41E060E044
S113063083E194E084D365E673E083E194E0DF91A1
S1130640CF9160CE20E042E060E183E194E090D37A
S113065067E38CE993E04AC060E070E08BE090E0EF
S113066066DEF0C5CF92EF920F938DE0C82E9CE02A
S1130670E92E0BE02AE049E068E083E194E005D448
S113068024E0E22E04E020E032E044E052E068E0BE
S113069072E08FEA93E055D226E04BE062E08CE909
S11306A093E00F91EF90CF9000C0DC0115966C930E
S11306B0159716964C93169770E0FB01EE53FE4F78
S11306C0E4911796EC931797FB01E85FFD4F649153
S11306D018966C93189740E85EE360E070E01D960E
S11306E04D935D936D937C93509708951F93CF938F
S11306F0DF93EC01162F62E08D810E94A60E0E940A
S1130700550DDC01CB01805D9740A109B1098987B2
S11307109A87AB87BC871A8BDF91CF911F9108957D
S1130720CF92DF92EF92FF921F93CF93DF93EC016E
S11307301F81662311F0912F01C090E0288530E0DD
S1130740220F331F225B3D4FA0E0B0E0F901459139
S11307505491FA0180818123AD0160E070E0981327
S11307600FC01196CD84DE84EF84F8884C155D05A6
S11307706E057F0558F33FEF2FEF8FEF9FEF03C018
S11307803A2F252FCB01632F722FDF91CF911F9129
S1130790FF90EF90DF90CF9008958F929F92AF9249
S11307A0BF92CF92DF92EF92FF920F931F93CF935A
S11307B0DF93CDB7DEB7C054D1400FB6F894DEBF97
S11307C00FBECDBF8C01F62E0E94550DF11016C040
S11307D0F801C184D284E384F4849B01AC012C1914
S11307E03D094E095F0969017A0130EDC31637E00E
S11307F0D306E104F10410F48189B6C0F8016187DD
S113080072878387948714821382128211821082E2
S113081062E085810E94A60E61E070E080E090E0D5
S11308200E94860D61E0F80185810E94A60E60E0B9
S1130830F80185810E94E20EF8018681855182309B
S113084028F48CE494E00E94BF0D06C064E170E0DB
S113085080E090E00E94860D62E0F80185810E94AC
S1130860A60EF801828990E00E94BF0DF89460E022
S1130870C80156DF6F3F7F4F8F4F9F4F21F4F80120
S1130880118A789442C061E0C8014ADF6F3F7F4F0C
S11308908F4F9F4FA1F39E012F5F3F4F79015E0160
S11308A03FEBA31A3EEFB30A670160E0C80138DFEB
S11308B0F601608371838283938361E0C80130DF32
S11308C0F6016483758386839783F8E0CF0ED11C89
S11308D0CA14DB0451F7789420E030E0F7018080FB
S11308E09180A280B3804481558166817781FFEF36
S11308F08F169F06AF06BF0631F04F3F8FEF5807A4
S11309006807780721F4F801118A80E02DC0F90105
S113091083E0F595E7958A95E1F7E00FF11F808173
S1130920880F84169506A606B70608F481608083AE
S11309302F5F3F4FF8E0EF0EF11C2832310571F6BE
S1130940F801248130E04081818190E0840F911D81
S11309504281840F911D4381840F911D992728178B
S1130960390789F681E0818BC05CDE4F0FB6F894BD
S1130970DEBF0FBECDBFDF91CF911F910F91FF90CE
S1130980EF90DF90CF90BF90AF909F908F9008959D
S1130990CF92DF92EF92FF920F931F93CF93DF9347
S11309A08C01C62F642FF9DE882309F46BC0F8018B
S11309B086818C3009F43EC018F48B30B9F062C0E3
S11309C08551823008F05EC0F801D2816D2F6F77B7
S11309D070E0762F66278381682B80E090E04CD509
S11309E02DEC3CEC4CEC5DE31AD63DC0F801628181
S11309F070E080E090E040D56B017C01F801D38188
S1130A00D7FF09C09B01AC0160E070E080E89FEB78
S1130A1035D46B017C016D2F6F7070E080E090E045
S1130A202DD52DEC3CEC4CEC5DE3F9D5A7019601FA
S1130A3026D41BC0F801D28163816F7070E080E01E
S1130A4090E01CD52DEC3CEC4CEC5DE3E8D56B015F
S1130A507C016D2F70E080E090E00ED59B01AC012D
S1130A60C701B6010CD4D7FD9058CC2379F026E603
S1130A7036E646EE5FE3D3D520E030E040E052E4D2
S1130A80FED304C060E070E080EC9FE7DF91CF917B
S1130A901F910F91FF90EF90DF90CF900895CF9228
S1130AA0DF92EF92FF92CF93DF93EC0176DE8823FF
S1130AB069F18E818B3050F18D3088F08551823010
S1130AC028F56881798176276727762780E090E08A
S1130AD0D3D42DEC3CEC4CEC5DE3A1D51BC0698177
S1130AE070E080E090E0CAD42DEC3CEC4CEC5DE38B
S1130AF096D56B017C01688170E080E090E0BED403
S1130B009B01AC01C701B601BAD304C060E070E038
S1130B1080EC9FE7DF91CF91FF90EF90DF90CF9033
S1130B200895FC011082138214820895862F0C9478
S1130B30100F862F642F0C94E20E862F642F0C94D2
S1130B40A60E4F925F926F927F928F929F92AF9276
S1130B50BF92CF92DF92EF920F93CF93DF93EC018A
S1130B606B014A0159010296DCDF88E793E099831F
S1130B7088832E018BE1480E511C3E018DE4680EE2
S1130B80711CC201CEDF85E0480E511C4614570487
S1130B90C1F7FE01E95AFF4F918280823296B182F9
S1130BA0A082329600833196E0823797D182C08248
S1130BB038968AE090E091838083329684EF91E0C6
S1130BC091838083339611821082719710821182EF
S1130BD012821382CF59DF4F1882DF91CF910F9188
S1130BE0EF90DF90CF90BF90AF909F908F907F90C9
S1130BF06F905F904F90089580E090E0089508957D
S1130C00CF93DF93EC0160E08E810E94E20E81E0DD
S1130C1090E0B5D761E08E810E94E20E81E090E021
S1130C20AED760E08E810E94E20E84E690E0DF9110
S1130C30CF91A5C7CF92DF92EF92FF920F931F93AC
S1130C40CF93DF936C017C0187E0E80EF11CC0E0D8
S1130C50D0E0062F10E0B8010C2E02C07595679500
S1130C600A94E2F76170F70181917F010E94E20E1C
S1130C702196C430D10579F7C601DF91CF911F9138
S1130C800F91FF90EF90DF90CF90BACFCF92DF9289
S1130C90EF92FF920F931F93CF93DF936C017C012C
S1130CA087E0E80EF11CC0E0D0E0062F10E0B801A8
S1130CB00C2E02C0759567950A94E2F76170F701EE
S1130CC081917F010E94E20E2196C830D10579F707
S1130CD0C601DF91CF911F910F91FF90EF90DF90AC
S1130CE0CF908ECF1F93CF93DF93EC01162F642FF9
S1130CF08C810E94E20E8D818F3F19F060E00E948A
S1130D00E20E8F85612F84FF05C0CE01DF91CF9164
S1130D101F91BCCF70E084E0759567958A95E1F7E3
S1130D20CE0188DF612FCE01DF91CF911F9182CF59
S1130D3040E0D8CF61E0FCDF80ED97E020C7FC0104
S1130D40443008F043E08389481710F04FEF480F10
S1130D50DF01A40FB11D54969C91690F6068CF0107
S1130D60E7CFFC016089262F2460208B6C60E0CFE4
S1130D70EF92FF920F931F93CF93DF93EC014230D6
S1130D8018F08F8588608F874B8B1C8A80E48D8B4D
S1130D906E8B70E0605C7F4F6F8B222329F04130B3
S1130DA019F48F8584608F8761E08C81CFD78D8122
S1130DB08F3F11F061E0CAD761E08E81C7D77E0111
S1130DC087E0E80EF11C00E010E08F8584FD03C08D
S1130DD084E090E002C088E090E00817190744F42A
S1130DE061E0F70181917F01B1D70F5F1F4FEDCF14
S1130DF080E593ECC4D660E08C81E4D760E08E811A
S1130E00E1D78D818F3F11F060E0DCD76F8564FD01
S1130E1016C063E0CE010EDF84E991E1B0D663E051
S1130E20CE0108DF84E991E1AAD663E0CE0102DFB6
S1130E3086E990E0A4D662E0CE01FCDE11C06062D7
S1130E40CE0176DF84E991E19AD66F856062CE01A6
S1130E506FDF86E990E093D66F856062CE0168DF2C
S1130E606F856062CE0164DF84E0888BCE0179DF18
S1130E70CE0160DF82E0898B66E0CE01DF91CF9105
S1130E801F910F91FF90EF9053CFCF92EF920F935A
S1130E90FC011382128282E893E09183808364834D
S1130EA08FEF8583468327830087E186C286138676
S1130EB0148615861686178620E041E060E1CF018E
S1130EC00F91EF90CF9054CF41E00CDF81E090E0A0
S1130ED00895CF92DF92EF92FF920F931F93CF93D7
S1130EE0DF937B016A01082F10E0E801CD5CDB4F42
S1130EF0888187FF04C0FB011182108224C08CE02A
S1130F00809F9001819F300D11248881A901480F91
S1130F10511D87FD5A958091320490E04817590776
S1130F2094F48881A901480F511D87FD5A95CA017F
S1130F30FA01EE0FFF1F8E0F9F1FFC01E95CFB4FB0
S1130F40808186FD19C088818F5F88838CE0809FB3
S1130F509001819F300D11248881A901480F511DF2
S1130F6087FD5A958091320490E048175907B4F4EC
S1130F7088818C303CF112C08881280F311D87FD97
S1130F803A95F901EE0FFF1F2E0F3F1FF901E95C9F
S1130F90FB4F808160E08F7315D7D5CFF701808137
S1130FA09181049680349C4918F480E49CE904C03F
S1130FB0F701808191810496F601918380838FEFFC
S1130FC0888344C0F701408151818881B901680F49
S1130FD0711D87FD7A95CB01FB01EE0FFF1F8E0F6C
S1130FE09F1FFC01E95CFB4F81819281840F951F57
S1130FF0F601918380838881A901480F511D87FDE3
S11310005A95CA01FA01EE0FFF1F8E0F9F1FFC01B4
S1131010E95CFB4F808186FF19C08881280F311D50
S113102087FD3A95F901EE0FFF1F2E0F3F1FF901BF
S1131030E95CFB4F808161E08F73DF91CF911F9159
S11310400F91FF90EF90DF90CF90BCC6DF91CF91CE
S11310501F910F91FF90EF90DF90CF9008951F9212
S11310600F920FB60F9211240BB60F922F933F934A
S11310704F935F936F937F938F939F93AF93BF939C
S1131080EF93FF9348E850E064E870E081E021DFEB
S1131090FF91EF91BF91AF919F918F917F916F914C
S11310A05F914F913F912F910F900BBE0F900FBE08
S11310B00F901F9018951F920F920FB60F92112444
S11310C00BB60F922F933F934F935F936F937F933E
S11310D08F939F93AF93BF93EF93FF9348E950E0AF
S11310E064E970E082E0F5DEFF91EF91BF91AF918A
S11310F09F918F917F916F915F914F913F912F912C
S11311000F900BBE0F900FBE0F901F9018951F925B
S11311100F920FB60F9211240BB60F922F933F9399
S11311204F935F936F937F938F939F93AF93BF93EB
S1131130EF93FF9348EA50E064EA70E083E0C9DE8D
S1131140FF91EF91BF91AF919F918F917F916F919B
S11311505F914F913F912F910F900BBE0F900FBE57
S11311600F901F9018951F920F920FB60F92112493
S11311700BB60F922F933F934F935F936F937F938D
S11311808F939F93AF93BF93EF93FF9348E251E004
S113119064E271E080E09DDEFF91EF91BF91AF9139
S11311A09F918F917F916F915F914F913F912F917B
S11311B00F900BBE0F900FBE0F901F901895CF92FB
S11311C0DF92EF92FF92BC01990F880B990B56D1D5
S11311D09B01AC0160E070E080E894E4B4D020E0CE
S11311E030E040E85FE34AD020E030E44CE156E4EC
S11311F016D2D5D16B017C0129E537E44CEB53E3DE
S11312000ED2A70196010BD223E73FE745E759E346
S113121036D0A701960103D22BEE3FEF43E95AE300
S11312202ED09B01AC0160E070E080E89FE38BD09E
S113123023E333E948E853E421D0FF90EF90DF90B3
S1131240CF90089581E408D5BADFE5D070933104D6
S11312506093300440E060E08CE993E099DBDBD0FC
S113126070932F0460932E0460E08CE993E017DC04
S1131270D2D070932D0460932C0408955058BB274A
S1131280AA270ED04DC13ED130F043D120F031F425
S11312909F3F11F41EF433C10EF4E095E7FB29C11E
S11312A0E92F4FD180F3BA176207730784079507B4
S11312B018F071F49EF567C10EF4E0950B2EBA2F69
S11312C0A02D0B01B90190010C01CA01A001112448
S11312D0FF27591B99F0593F50F4503E68F11A16F4
S11312E0F040A22F232F342F4427585FF3CF469585
S11312F037952795A795F0405395C9F77EF41F16A7
S1131300BA0B620B730B840BBAF09150A1F0FF0F70
S1131310BB1F661F771F881FC2F70EC0BA0F621F5C
S1131320731F841F48F4879577956795B795F7954C
S11313309E3F08F0B3CF9395880F08F09927EE0FDE
S11313409795879508950CD0EBC0E3D040F0DAD0A0
S113135030F021F45F3F19F0CCC0511115C1CFC05A
S1131360F0D098F39923C9F35523B1F3951B550B8A
S1131370BB27AA2762177307840738F09F5F5F4F64
S1131380220F331F441FAA1FA9F333D00E2E3AF0A5
S1131390E0E830D091505040E695001CCAF729D0BF
S11313A0FE2F27D0660F771F881FBB1F261737070E
S11313B04807AB07B0E809F0BB0B802DBF01FF273E
S11313C093585F4F2AF09E3F510568F092C0DCC0ED
S11313D05F3FECF3983EDCF3869577956795B79578
S11313E0F7959F5FC9F7880F911D9695879597F993
S11313F00895E1E0660F771F881FBB1F621773070C
S11314008407BA0720F0621B730B840BBA0BEE1F20
S113141088F7E095089504D06894B111B5C0089593
S113142098D088F09F5790F0B92F9927B751A0F022
S1131430D1F0660F771F881F991F1AF0BA95C9F764
S113144012C0B13081F09FD0B1E008959CC0672FE5
S1131450782F8827B85F39F0B93FCCF38695779514
S11314606795B395D9F73EF49095809570956195FD
S11314707F4F8F4F9F4F0895E89409C097FB3EF428
S113148090958095709561957F4F8F4F9F4F9923CD
S1131490A9F0F92F96E9BB279395F695879577954B
S11314A06795B795F111F8CFFAF4BB0F11F460FF0B
S11314B01BC06F5F7F4F8F4F9F4F16C0882311F063
S11314C096E911C0772321F09EE8872F762F05C077
S11314D0662371F096E8862F70E060E02AF09A9512
S11314E0660F771F881FDAF7880F9695879597F907
S11314F0089597F99F6780E870E060E008959FEF92
S113150080EC089500240A94161617061806090696
S1131510089500240A941216130614060506089565
S1131520092E0394000C11F4882352F0BB0F40F4ED
S1131530BF2B11F460FF04C06F5F7F4F8F4F9F4F2D
S1131540089557FD9058440F551F59F05F3F71F0AF
S11315504795880F97FB991F61F09F3F79F0879516
S11315600895121613061406551FF2CF4695F1DF9F
S113157008C0161617061806991FF1CF869571052F
S1131580610508940895E894BB2766277727CB0163
S113159097F908950EF0A6C0B2CF6894AACFD9DF08
S11315A0C8F39923D1F3C6F3DF93CF931F930F931B
S11315B0FF92C92FDD2788232AF02197660F771F12
S11315C0881FDAF720E030E040E85FEB9FE38839DA
S11315D020F0803E30F021968F7751DEEEEFF0E080
S11315E003C04DDEEBE2F1E08BD08B01BE01EC01D8
S11315F0FB2E6F5771097595771F880B990B3EDF8A
S113160028E132E741E35FE316D0AF2D9801AE0144
S1131610FF900F911F91CF91DF9142DE81CF0BD0CC
S11316207FCF70DF28F075DF18F0952309F061CFC4
S113163066CF1124A9CF85DFA0F3959FD1F3950F31
S113164050E0551F629FF001729FBB27F00DB11D42
S1131650639FAA27F00DB11DAA1F649F6627B00DD2
S1131660A11D661F829F2227B00DA11D621F739FBB
S1131670B00DA11D621F839FA00D611D221F749FC9
S11316803327A00D611D231F849F600D211D822F10
S1131690762F6A2F11249F5750408AF0E1F0882357
S11316A04AF0EE0FFF1FBB1F661F771F881F915064
S11316B05040A9F79E3F510570F01BCF65CF5F3FA7
S11316C0ECF3983EDCF3869577956795B795F79597
S11316D0E7959F5FC1F7FE2B880F911D969587951F
S11316E097F908959F3F31F0915020F487957795AD
S11316F06795B795880F911D9695879597F90895E5
S1131700DF93CF931F930F93FF92EF92DF927B01AE
S11317108C01689405C0DA2EEF018DDFFE01E89498
S1131720A5912591359145915591AEF3EF01B8DD21
S1131730FE019701A801DA9479F7DF90EF90FF900A
S11317400F911F91CF91DF9108951F920F920FB6C1
S11317500F9211240BB60F922F938F939F93EF93B5
S1131760FF93E091D704F091D8048081E091DD04E7
S1131770F091DE0482FD12C090818091E0048F5FBD
S11317808F732091E104821751F0E091E004F0E0BE
S1131790E953FB4F958F8093E00401C08081FF9152
S11317A0EF919F918F912F910F900BBE0F900FBED1
S11317B00F901F9018951F920F920FB60F9211243D
S11317C00BB60F922F933F934F935F936F937F9337
S11317D08F939F93AF93BF93EF93FF9387EC94E022
S11317E0C0D3FF91EF91BF91AF919F918F917F9162
S11317F06F915F914F913F912F910F900BBE0F907E
S11318000FBE0F901F90189587EC94E031D321E020
S1131810892B09F420E0822F0895E7ECF4E0138289
S1131820128288EE93E0A0E0B0E084839583A683DF
S1131830B7838EE893E09183808385EC90E095876D
S1131840848784EC90E09787868780EC90E0918B86
S1131850808B81EC90E0938B828B82EC90E0958B73
S1131860848B86EC90E0978B868B118E128E138E70
S1131870148E089508958ED1FDDF0E942203C5E7DA
S1131880DFE00E942C032097E1F32FD3FACFCF920D
S1131890DF92EF92FF920F931F93CF93DF936C012C
S11318A07A018B01C0E0D0E0CE15DF0581F0D801CC
S11318B06D918D01D601ED91FC910190F081E02DA7
S11318C0C6011995892B11F02196EECF7E01C7012F
S11318D0DF91CF911F910F91FF90EF90DF90CF9008
S11318E00895DC01ED91FC910190F081E02D1994B3
S11318F08F929F92AF92BF92EF92FF920F931F939A
S1131900CF93DF93CDB7DEB7A1970FB6F894DEBFC0
S11319100FBECDBF7C01FA01CB0119A2223008F41D
S11319202AE08E010F5D1F4F822E912CA12CB12C29
S1131930BF01A5019401A5D3F901CA010150110900
S11319406A3010F4605D01C0695CD8016C93232B8C
S1131950242B252B69F7B801C7010E948201A196A7
S11319600FB6F894DEBF0FBECDBFDF91CF911F91AC
S11319700F91FF90EF90BF90AF909F908F9008953C
S1131980CF92DF92EF92FF920F931F93CF93DF9347
S11319902115310581F4DC01ED91FC910190F08178
S11319A0E02D642FDF91CF911F910F91FF90EF9065
S11319B0DF90CF9019942A303105F1F477FF1BC0E2
S11319C06A017B01EC016DE28CDF8C014427552711
S11319D0BA014C195D096E097F092AE0CE0188DF3E
S11319E0800F911FDF91CF911F910F91FF90EF9086
S11319F0DF90CF9008952AE0DF91CF911F910F914E
S1131A00FF90EF90DF90CF9073CF9A01AB01770FE7
S1131A10660B770BB5CF1F920F920FB60F9211245E
S1131A202F933F938F939F93AF93BF9380916505BB
S1131A3090916605A0916705B091680530916405A1
S1131A4023E0230F2D3720F40196A11DB11D05C0FD
S1131A5026E8230F0296A11DB11D209364058093EF
S1131A60650590936605A0936705B093680580911A
S1131A70690590916A05A0916B05B0916C0501967A
S1131A80A11DB11D8093690590936A05A0936B0510
S1131A90B0936C05BF91AF919F918F913F912F911E
S1131AA00F900FBE0F901F9018952FB7F894609168
S1131AB065057091660580916705909168052FBF53
S1131AC008953FB7F8948091690590916A05A091B3
S1131AD06B05B0916C0526B5A89B05C02F3F19F086
S1131AE00196A11DB11D3FBFBA2FA92F982F88279A
S1131AF0820F911DA11DB11DBC01CD0142E0660FF5
S1131B00771F881F991F4A95D1F708958F929F9246
S1131B10AF92BF92CF92DF92EF92FF926B017C0162
S1131B20D0DF4B015C01C114D104E104F104F1F0F4
S1131B30A7D2C7DFDC01CB0188199909AA09BB091F
S1131B40883E9340A105B10570F321E0C21AD10883
S1131B50E108F10888EE880E83E0981EA11CB11CF0
S1131B60C114D104E104F10421F7DDCFFF90EF901B
S1131B70DF90CF90BF90AF909F908F900895823068
S1131B80910538F0880F991F880F991F05970197C1
S1131B90F1F70895789484B5826084BD84B581603A
S1131BA084BD85B5826085BD85B5816085BDEEE661
S1131BB0F0E0808181608083E1E8F0E01082808140
S1131BC082608083808181608083E0E8F0E08081AE
S1131BD081608083E1EBF0E0808184608083E0EBCE
S1131BE0F0E0808181608083E1E9F0E080818260BF
S1131BF08083808181608083E0E9F0E0808181607E
S1131C008083E1EAF0E0808182608083808181606A
S1131C108083E0EAF0E0808181608083E1E2F1E0AA
S1131C20808182608083808181608083E0E2F1E052
S1131C30808181608083EAE7F0E080818460808332
S1131C4080818260808380818160808380818068DC
S1131C5080831092C1000895863308F086539091D2
S1131C607B00282F2870977F922B90937B002091E4
S1131C70200290E4299F900111248770822B809385
S1131C807C0080917A00806480937A0080917A004D
S1131C9086FDFCCF809178002091790090E0922B12
S1131CA0089590E0FC013197E231F10508F04DC050
S1131CB08827E455FF4F8F4F06C2809180008F77AD
S1131CC003C0809180008F7D80938000089580916F
S1131CD08000877FF9CF84B58F7702C084B58F7D6C
S1131CE084BD08958091B0008F7703C08091B000C7
S1131CF08F7D8093B0000895809190008F7707C006
S1131D00809190008F7D03C080919000877F8093A5
S1131D10900008958091A0008F7707C08091A00063
S1131D208F7D03C08091A000877F8093A0000895D9
S1131D30809120018F7707C0809120018F7D03C09F
S1131D4080912001877F809320010895CF93DF93B2
S1131D5090E0FC01EE53FE4F2491FC01E85FFD4F3F
S1131D608491882361F190E0880F991FFC01EE575C
S1131D70FD4FC591D491FC01E859FD4FA591B49153
S1131D80611109C09FB7F8948881209582238883C4
S1131D90EC912E230BC0623061F49FB7F8948881D4
S1131DA0322F309583238883EC912E2B2C939FBF65
S1131DB006C08FB7F894E8812E2B28838FBFDF915C
S1131DC0CF9108951F93CF93DF93282F30E0F9012B
S1131DD0E458FE4F8491F901EE53FE4FD491F9017A
S1131DE0E85FFD4FC491CC23B9F0162F811159DF60
S1131DF0EC2FF0E0EE0FFF1FE859FD4FA591B491D1
S1131E009FB7F894111104C08C91D095D82302C0C7
S1131E10EC91DE2BDC939FBFDF91CF911F9108954E
S1131E20CF93DF93282F30E0F901E458FE4F8491DB
S1131E30F901EE53FE4FD491F901E85FFD4FC491CF
S1131E40CC2389F081112DDFEC2FF0E0EE0FFF1F82
S1131E50E25BFD4FA591B491EC91ED2381E090E01C
S1131E6021F480E002C080E090E0DF91CF910895FA
S1131E70FC01918D228D892F90E0805C9F4F821B05
S1131E8091098F7399270895FC01918D828D98177C
S1131E9031F0828DE80FF11D858D90E008958FEF6C
S1131EA09FEF0895FC01918D828D981761F0828DCA
S1131EB0DF01A80FB11D5D968C91928D9F5F9F737A
S1131EC0928F90E008958FEF9FEF0895FC01538D5A
S1131ED0448D252F30E0842F90E0821B930B541700
S1131EE010F0CF9608950197089584E09CE0892B23
S1131EF039F080E090E0892B19F086DC811125C04F
S1131F0080E090E0892B41F080E090E0892B21F083
S1131F100E94000081111CC080E090E0892B41F0F8
S1131F2080E090E0892B21F00E940000811113C011
S1131F3080E090E0892BA1F080E090E0892B81F093
S1131F400E94000081110AC008950E940000D8CFA9
S1131F500E940000E1CF0E940000EACF0C94000030
S1131F600895FC01848DDF01A80FB11DA35ABF4F52
S1131F702C91848D90E001968F739927848FA68984
S1131F80B7892C93A089B1898C91837080648C93D8
S1131F90938D848D981306C00288F389E02D808187
S1131FA08F7D80830895EF92FF920F931F93CF93B9
S1131FB0DF93EC0181E0888F9B8D8C8D981305C095
S1131FC0E889F989808185FD25C0F62E0B8D10E006
S1131FD00F5F1F4F0F731127E02E8C8DE8120BC07B
S1131FE00FB607FCFACFE889F989808185FFF5CF20
S1131FF0CE01B7DFF2CF8B8DFE01E80FF11DE35A5E
S1132000FF4FF0829FB7F8940B8FEA89FB89808198
S113201080620AC09FB7F894EE89FF896083E889DB
S1132020F98980818370806480839FBF81E090E020
S1132030DF91CF911F910F91FF90EF900895CF936F
S1132040DF93EC01888D8823C1F0EA89FB898081C4
S113205085FD05C0A889B9898C9186FD0EC00FB68F
S113206007FCF5CF808185FFF2CFA889B9898C91CF
S113207085FFEDCFCE0175DFE8CFDF91CF910895D5
S11320800895A1E21A2EAA1BBB1BFD010DC0AA1FB5
S1132090BB1FEE1FFF1FA217B307E407F50720F0CD
S11320A0A21BB30BE40BF50B661F771F881F991F48
S11320B01A9469F760957095809590959B01AC0191
S11320C0BD01CF010895EE0FFF1F881F8BBF07903E
S10D20D0F691E02D1994F894FFCF67
S11320DA191817161D1C1B1A31323341343536426E
S11320EA373839432A3023443200140016003200A8
S11320FA013C3E43686F7365204F7074696F6E3C90
S113210A3E00413C48656174004C69676874733EDB
S113211A4200413C46616E0054656D70733E420054
S113212A433C57696E646F77004175746F204D6F35
S113213A6465206973206F6E2100413C542E4F66FA
S113214A66003C3E46616E20436F6E74726F6C7318
S113215A3C3E00413C542E4175746F0053706565D2
S113216A643E420053706565643A002500413C446C
S113217A65632E00496E632E3E42003C3E54656DF3
S113218A7065726174757265733C3E00413C5365B7
S113219A7400436865636B3E42003C2D3E43686F9E
S11321AA736520526F6F6D3C2D3E00413C44696E4D
S11321BA696E67004B6964733E4200536574207408
S11321CA656D703A003F3F0044696E696E673A0074
S11321DA4B6964733A2020005365743E4100413CC4
S11321EA436C6F73652077696E646F7700413C4F67
S11321FA70656E2077696E646F7700423C542E4195
S113220A75746F0048756D693E4300413C536574AB
S113221A20416C6C6F77656400416C2E48756D695A
S113222A646974793A00556E6B6E6F776E205374D5
S113223A616765210054727920225265736574229C
S113224A21212100000000009D0599059605000042
S113225A00006407470CFC05FF0500000000D30FCB
S10F226A470C660F1F10380F520F440F72
S9030000FC
