S0130000426172654D696E696D756D2E73726563BB
S113000015C1000043C1000041C100003FC1000010
S11300103DC100003BC1000039C1000037C10000F0
S113002035C1000033C1000031C100002FC1000000
S11300302DC100002BC1000029C1000027C1000010
S113004025C10000C8C4000021C100001FC1000078
S11300501DC100001BC1000019C10000CFC6000073
S113006015C1000068C500009CC500000FC1000058
S11300700DC100000BC1000009C1000007C1000050
S1130080D6C4000003C1000001C10000FFC000008D
S1130090FDC00000FBC00000F9C00000F7C0000074
S11300A0F5C00000F3C00000EEC40000EFC0000083
S11300B0EDC00000EBC00000E9C0000010C5000066
S11300C0E5C00000E3C00000E1C00000DFC00000A4
S11300D0DDC00000DBC00000D9C00000D7C00000B4
S11300E0D5C00000CF07D207C107C507CB07090851
S11300F0D607DA07E007E407E807EE07F207F60792
S11301000908FC070008040800000A0B02090C0D8A
S11301100E080703040100000000000000000000B6
S113012000000000000000000000000000000000CB
S11301300000000012111000000000000000000088
S113014000000000000000000000000000000102A8
S113015010202008081020401020408002010201D5
S1130160080402010102040810204080804020108D
S113017008040201800402018040201008040201E6
S1130180080402010102040810204080010204084E
S11301901020408005050505070508080808020227
S11301A002020A0A0808040404040101010101010D
S11301B001010303030303030303040707070C0CF0
S11301C00C0C0C0C0C0C02020202060606060606B7
S11301D006060B0B0B0B0B0B0B0B00002000230074
S11301E0260029002C002F0032000001000003012A
S11301F00601090100002200250028002B002E0022
S11302003100340002010000050108010B01000067
S11302102100240027002A002D00300033000101B2
S11302200000040107010A013902030611241FBE5C
S1130230CFEFD1E2DEBFCDBF00E00CBF13E0A0E002
S1130240B2E0E0EAF3E100E00BBF02C007900D92D8
S1130250A430B107D9F724E0A4E0B3E001C01D92B3
S1130260AD3BB207E1F711E0C6E1D1E000E006C022
S113027021970109802FFE010E94C609C431D107CC
S113028080E00807A9F7EDD40C94CE09B9CE611526
S1130290710579F0FB0101900020E9F73197AF0176
S11302A0461B570BDC01ED91FC910280F381E02D9C
S11302B0199480E090E008958230910509F44FC0CC
S11302C00CF5009781F1019709F0B5C040E060E0BA
S11302D088E693E0F0D169E372E088E693E0D7DF43
S11302E040E069E088E693E0E6D16FE372E088E6F7
S11302F093E0CDDF41E060E088E693E0DCD167E4A1
S113030072E0AAC08430910509F461C00CF443C0C2
S1130310059709F090C040E060E088E693E0CBD117
S113032061EB72E099C040E060E088E693E0C3D1FD
S113033068E172E088E693E0AADF41E060E088E6E5
S113034093E0B9D169E272E088E693E0A0DF41E08E
S113035068E088E693E0AFD160E372E07DC040E0FE
S113036060E088E693E0A7D161E572E088E693E077
S11303708EDF41E060E088E693E09DD162E672E0C2
S113038088E693E084DF41E06AE088E693E093D175
S11303906AE672E061C040E060E088E693E08BD1F9
S11303A061E772E088E693E072DF41E060E088E6AE
S11303B093E081D162E872E088E693E068DF41E08F
S11303C069E088E693E077D16BE872E045C040E0ED
S11303D060E088E693E06FD163E972E088E693E039
S11303E056DF60918003709181034AE050E088E613
S11303F093E0FED46AE972E088E693E048DF40E0E7
S11304006AE088E693E057D16CE972E088E693E00D
S11304103EDF41E060E088E693E04DD163EA72E0BC
S113042088E693E034DF41E06AE088E693E043D174
S11304306AEA72E011C040E060E088E693E03BD1F4
S11304406EEB72E088E693E022DF41E060E088E64C
S113045093E031D16DEC72E088E693E018CF20E0B0
S113046042E060E188E693E03FD185E090E024CF6C
S11304700895CF92EF920F938DE0C82E9CE0E92E61
S11304800BE02AE049E068E088E693E0BAD124E092
S1130490E22E04E020E032E044E052E068E072E062
S11304A084E093E011D00F91EF90CF900895FC0178
S11304B01082138214820895862F16C6862F642F05
S11304C0E5C5862F642FA6C54F925F926F927F92E7
S11304D08F929F92AF92BF92CF92DF92EF920F933F
S11304E0CF93DF93EC016B014A0159010296DFDFE0
S11304F080EE92E0998388832E018BE1480E511C93
S11305003E018DE4680E711CC201D1DF85E0480E06
S1130510511C46145704C1F7FE01E95AFF4F91825A
S113052080823296B182A082329600833196E08234
S11305303797D182C08238968AE090E09183808395
S1130540329684EF91E091838083339611821082F6
S113055071971082118212821382CF59DF4F188251
S1130560DF91CF910F91EF90DF90CF90BF90AF903C
S11305709F908F907F906F905F904F90089580E050
S113058090E008950895CF93DF93EC0160E08E81AD
S11305907DD581E090E07CD461E08E8177D581E0E7
S11305A090E076D460E08E8171D584E690E0DF91AE
S11305B0CF916EC4CF92DF92EF92FF920F931F936D
S11305C0CF93DF936C017C0187E0E80EF11CC0E05F
S11305D0D0E0062F10E0B8010C2E02C07595679587
S11305E00A94E2F76170F70181917F014FD521965A
S11305F0C430D10581F7C601DF91CF911F910F91CE
S1130600FF90EF90DF90CF90BECFCF92DF92EF922A
S1130610FF920F931F93CF93DF936C017C0187E0CC
S1130620E80EF11CC0E0D0E0062F10E0B8010C2E5B
S113063002C0759567950A94E2F76170F70181919C
S11306407F0124D52196C830D10581F7C601DF91F9
S1130650CF911F910F91FF90EF90DF90CF9093CFA8
S11306601F93CF93DF93EC01162F642F8C810ED54B
S11306708D818F3F11F060E009D58F85612F84FF54
S113068005C0CE01DF91CF911F91BFCF70E084E010
S1130690759567958A95E1F7CE018CDF612FCE01C0
S11306A0DF91CF911F9186CF40E0DACF61E0FCDF8C
S11306B080ED97E0EDC3FC01443008F043E083890A
S11306C0481710F04FEF480FDF01A40FB11D5496E7
S11306D09C91690F6068CF01E7CFFC016089262FE8
S11306E02460208B6C60E0CFEF92FF920F931F93F6
S11306F0CF93DF93EC01423018F08F8588608F87A9
S11307004B8B1C8A80E48D8B6E8B70E0605C7F4F1A
S11307106F8B222329F0413019F48F8584608F87F1
S113072061E08C8177D48D818F3F11F061E072D4C8
S113073061E08E816FD47E0187E0E80EF11C00E059
S113074010E08F8584FD03C084E090E002C088E05F
S113075090E00817190744F461E0F70181917F01E3
S113076059D40F5F1F4FEDCF80E593EC91D360E038
S11307708C818CD460E08E8189D48D818F3F11F07F
S113078060E084D46F8564FD16C063E0CE0112DF9F
S113079084E991E17DD363E0CE010CDF84E991E14A
S11307A077D363E0CE0106DF86E990E071D362E09F
S11307B0CE0100DF11C06062CE0176DF84E991E1F1
S11307C067D36F856062CE016FDF86E990E060D306
S11307D06F856062CE0168DF6F856062CE0164DF81
S11307E084E0888BCE0179DFCE0160DF82E0898BE3
S11307F066E0CE01DF91CF911F910F91FF90EF90B2
S113080053CFCF92EF920F93FC01138212828AEEA0
S113081092E09183808364838FEF8583468327836B
S11308200087E186C2861386148615861686178687
S113083020E041E060E1CF010F91EF90CF9054CFE1
S113084041E00EDF81E090E00895CF92DF92EF92D5
S1130850FF920F931F93CF93DF937B016A01082FBD
S113086010E0E801CD57DC4F888187FF04C0FB010D
S11308701182108224C08CE0809F9001819F300DF2
S113088011248881A901480F511D87FD5A95809133
S1130890820390E04817590794F48881A901480F0E
S11308A0511D87FD5A95CA01FA01EE0FFF1F8E0FE5
S11308B09F1FFC01E957FC4F808186FD19C0888188
S11308C08F5F88838CE0809F9001819F300D11247D
S11308D08881A901480F511D87FD5A958091820393
S11308E090E048175907B4F488818C303CF112C069
S11308F08881280F311D87FD3A95F901EE0FFF1FFE
S11309002E0F3F1FF901E957FC4F808160E08F7380
S1130910BDD3D5CFF70180819181049680349C4961
S113092018F480E49CE904C0F70180819181049665
S1130930F601918380838FEF888344C0F70140815F
S113094051818881B901680F711D87FD7A95CB01AA
S1130950FB01EE0FFF1F8E0F9F1FFC01E957FC4F99
S113096081819281840F951FF60191838083888110
S1130970A901480F511D87FD5A95CA01FA01EE0FCE
S1130980FF1F8E0F9F1FFC01E957FC4F808186FFDC
S113099019C08881280F311D87FD3A95F901EE0FA2
S11309A0FF1F2E0F3F1FF901E957FC4F808161E0C3
S11309B08F73DF91CF911F910F91FF90EF90DF9094
S11309C0CF9064C3DF91CF911F910F91FF90EF906F
S11309D0DF90CF9008951F920F920FB60F921124BB
S11309E00BB60F922F933F934F935F936F937F9325
S11309F08F939F93AF93BF93EF93FF9348E850E097
S1130A0064E870E081E021DFFF91EF91BF91AF9145
S1130A109F918F917F916F915F914F913F912F9112
S1130A200F900BBE0F900FBE0F901F9018951F9242
S1130A300F920FB60F9211240BB60F922F933F9380
S1130A404F935F936F937F938F939F93AF93BF93D2
S1130A50EF93FF9348E950E064E970E082E0F5DE4B
S1130A60FF91EF91BF91AF919F918F917F916F9182
S1130A705F914F913F912F910F900BBE0F900FBE3E
S1130A800F901F9018951F920F920FB60F9211247A
S1130A900BB60F922F933F934F935F936F937F9374
S1130AA08F939F93AF93BF93EF93FF9348EA50E0E4
S1130AB064EA70E083E0C9DEFF91EF91BF91AF91EA
S1130AC09F918F917F916F915F914F913F912F9162
S1130AD00F900BBE0F900FBE0F901F9018951F9292
S1130AE00F920FB60F9211240BB60F922F933F93D0
S1130AF04F935F936F937F938F939F93AF93BF9322
S1130B00EF93FF9348E251E064E271E080E09DDE00
S1130B10FF91EF91BF91AF919F918F917F916F91D1
S1130B205F914F913F912F910F900BBE0F900FBE8D
S1130B300F901F9018951F920F920FB60F921124C9
S1130B400BB60F922F938F939F93EF93FF93E091A4
S1130B502704F09128048081E0912D04F0912E0463
S1130B6082FD12C09081809130048F5F8F73209139
S1130B703104821751F0E0913004F0E0E95EFB4F5C
S1130B80958F8093300401C08081FF91EF919F91F4
S1130B908F912F910F900BBE0F900FBE0F901F904F
S1130BA018951F920F920FB60F9211240BB60F9245
S1130BB02F933F934F935F936F937F938F939F9361
S1130BC0AF93BF93EF93FF9387E194E02ED3FF910C
S1130BD0EF91BF91AF919F918F917F916F915F91B1
S1130BE04F913F912F910F900BBE0F900FBE0F901E
S1130BF01F90189587E194E09FD221E0892B09F496
S1130C0020E0822F0895E7E1F4E01382128288EE57
S1130C1093E0A0E0B0E084839583A683B78386EF56
S1130C2092E09183808385EC90E09587848784ECBF
S1130C3090E09787868780EC90E0918B808B81ECA5
S1130C4090E0938B828B82EC90E0958B848B86EC86
S1130C5090E0978B868B118E128E138E148E0895CE
S1130C60089521D1FDDFFBDBC9EDD8E001DC20973D
S1130C70E9F39FD2FBCFCF92DF92EF92FF920F93D3
S1130C801F93CF93DF936C017A018B01C0E0D0E016
S1130C90CE15DF0581F0D8016D918D01D601ED915E
S1130CA0FC910190F081E02DC6011995892B11F07A
S1130CB02196EECF7E01C701DF91CF911F910F9155
S1130CC0FF90EF90DF90CF900895DC01ED91FC91BF
S1130CD00190F081E02D19948F929F92AF92BF9270
S1130CE0EF92FF920F931F93CF93DF93CDB7DEB7AD
S1130CF0A1970FB6F894DEBF0FBECDBF7C01FA01F9
S1130D00CB0119A2223008F42AE08E010F5D1F4F97
S1130D10822E912CA12CB12CBF01A501940114D3D6
S1130D20F901CA01015011096A3010F4605D01C073
S1130D30695CD8016C93232B242B252B69F7B8010C
S1130D40C701A5DAA1960FB6F894DEBF0FBECDBFDA
S1130D50DF91CF911F910F91FF90EF90BF90AF90D3
S1130D609F908F900895CF92DF92EF92FF920F930E
S1130D701F93CF93DF932115310581F4DC01ED91AD
S1130D80FC910190F081E02D642FDF91CF911F91B0
S1130D900F91FF90EF90DF90CF9019942A30310596
S1130DA0F1F477FF1BC06A017B01EC016DE28DDF7A
S1130DB08C0144275527BA014C195D096E097F0936
S1130DC02AE0CE0189DF800F911FDF91CF911F911F
S1130DD00F91FF90EF90DF90CF9008952AE0DF917C
S1130DE0CF911F910F91FF90EF90DF90CF9074CF30
S1130DF09A01AB01770F660B770BB5CF1F920F9259
S1130E000FB60F9211242F933F938F939F93AF9319
S1130E10BF938091B5049091B604A091B704B091AA
S1130E20B8043091B40423E0230F2D3720F4019645
S1130E30A11DB11D05C026E8230F0296A11DB11DF9
S1130E402093B4048093B5049093B604A093B7049C
S1130E50B093B8048091B9049091BA04A091BB04F2
S1130E60B091BC040196A11DB11D8093B904909367
S1130E70BA04A093BB04B093BC04BF91AF919F91FB
S1130E808F913F912F910F900FBE0F901F90189547
S1130E908230910538F0880F991F880F991F0597A4
S1130EA00197F1F70895789484B5826084BD84B580
S1130EB0816084BD85B5826085BD85B5816085BD51
S1130EC0EEE6F0E0808181608083E1E8F0E010826A
S1130ED0808182608083808181608083E0E8F0E0AB
S1130EE0808181608083E1EBF0E080818460808395
S1130EF0E0EBF0E0808181608083E1E9F0E08081D3
S1130F0082608083808181608083E0E9F0E0808179
S1130F1081608083E1EAF0E0808182608083808167
S1130F2081608083E0EAF0E0808181608083E1E297
S1130F30F1E0808182608083808181608083E0E24F
S1130F40F1E0808181608083EAE7F0E08081846061
S1130F5080838081826080838081816080838081BE
S1130F60806880831092C100089590E0FC0131975D
S1130F70E231F10508F04DC08827EE58FF4F8F4F3E
S1130F8005C2809180008F7703C0809180008F7D9F
S1130F9080938000089580918000877FF9CF84B585
S1130FA08F7702C084B58F7D84BD08958091B00091
S1130FB08F7703C08091B0008F7D8093B000089537
S1130FC0809190008F7707C0809190008F7D03C03F
S1130FD080919000877F8093900008958091A00075
S1130FE08F7707C08091A0008F7D03C08091A000FF
S1130FF0877F8093A0000895809120018F7707C098
S1131000809120018F7D03C080912001877F809390
S113101020010895CF93DF9390E0FC01E25BFE4F43
S11310202491FC01EC56FE4F8491882361F190E0F9
S1131030880F991FFC01E25FFD4FC591D491FC011B
S1131040EC50FE4FA591B491611109C09FB7F8947B
S11310508881209582238883EC912E230BC06230F3
S113106061F49FB7F8948881322F30958323888365
S1131070EC912E2B2C939FBF06C08FB7F894E88178
S11310802E2B28838FBFDF91CF9108951F93CF9389
S1131090DF93282F30E0F901E85FFE4F8491F901D6
S11310A0E25BFE4FD491F901EC56FE4FC491CC2380
S11310B0B9F0162F811159DFEC2FF0E0EE0FFF1F6E
S11310C0EC50FE4FA591B4919FB7F894111104C050
S11310D08C91D095D82302C0EC91DE2BDC939FBF7A
S11310E0DF91CF911F910895CF93DF93282F30E0A4
S11310F0F901E85FFE4F8491F901E25BFE4FD49160
S1131100F901EC56FE4FC491CC2389F081112DDFF7
S1131110EC2FF0E0EE0FFF1FE652FE4FA591B491C5
S1131120EC91ED2381E090E021F480E002C080E0C6
S113113090E0DF91CF910895FC01918D228D892F4C
S113114090E0805C9F4F821B91098F7399270895CB
S1131150FC01918D828D981731F0828DE80FF11D7D
S1131160858D90E008958FEF9FEF0895FC01918D98
S1131170828D981761F0828DDF01A80FB11D5D96F5
S11311808C91928D9F5F9F73928F90E008958FEF63
S11311909FEF0895FC01538D448D252F30E0842F5B
S11311A090E0821B930B541710F0CF96089501978B
S11311B008958AEF95E0892B39F080E090E0892B3F
S11311C019F018DD811125C080E090E0892B41F0F1
S11311D080E090E0892B21F00E94000081111CC066
S11311E080E090E0892B41F080E090E0892B21F0B1
S11311F00E940000811113C080E090E0892BA1F0CF
S113120080E090E0892B81F00E94000081110AC0E7
S113121008950E940000D8CF0E940000E1CF0E94F0
S11312200000EACF0C9400000895FC01848DDF01D6
S1131230A80FB11DA35ABF4F2C91848D90E0019645
S11312408F739927848FA689B7892C93A089B18934
S11312508C91837080648C93938D848D981306C0D5
S11312600288F389E02D80818F7D80830895EF9239
S1131270FF920F931F93CF93DF93EC0181E0888F4C
S11312809B8D8C8D981305C0E889F989808185FD33
S113129025C0F62E0B8D10E00F5F1F4F0F73112723
S11312A0E02E8C8DE8120BC00FB607FCFACFE8894C
S11312B0F989808185FFF5CFCE01B7DFF2CF8B8D21
S11312C0FE01E80FF11DE35AFF4FF0829FB7F89437
S11312D00B8FEA89FB89808180620AC09FB7F894EA
S11312E0EE89FF896083E889F9898081837080644D
S11312F080839FBF81E090E0DF91CF911F910F9198
S1131300FF90EF900895CF93DF93EC01888D8823AD
S1131310C1F0EA89FB89808185FD05C0A889B98966
S11313208C9186FD0EC00FB607FCF5CF808185FF3A
S1131330F2CFA889B9898C9185FFEDCFCE0175DFF5
S1131340E8CFDF91CF910895A1E21A2EAA1BBB1B0F
S1131350FD010DC0AA1FBB1FEE1FFF1FA217B3077D
S1131360E407F50720F0A21BB30BE40BF50B661F93
S1131370771F881F991F1A9469F760957095809557
S113138090959B01AC01BD01CF010895EE0FFF1FA5
S1131390881F8BBF0790F691E02D1994F894FFCF26
S11313A0191817161D1C1B1A3132334134353642B5
S11313B0373839432A3023443C3E43686F736520F1
S11313C04F7074696F6E3C3E00413C486561740027
S11313D04C69676874733E4200413C46616E005438
S11313E0656D70733E4200433C57696E646F77735A
S11313F0004175746F204D6F6465206973206F6EB2
S11314002100413C542E4F6666004261636B3E42AC
S1131410003C3E46616E20436F6E74726F6C733C89
S11314203E00413C542E4175746F005370656564F1
S11314303E420053706565643A002500446F6E6552
S11314403E4100423C4465632E00496E632E3E4398
S11314500054656D70657261747572657300556EC4
S11314606B6E6F776E2053746167652100547279D7
S1131470202252657365742221212100000000009E
S113148061025E025C020000000020043B06BF0211
S1131490C2020000000037093B06CA0883099C0801
S10714A0B608A808D6
S9030000FC
